:100000000C9464000C94D2070C94AB070C94F90781
:100010000C94F9070C94F9070C948C000C94AD0621
:100020000C948C000C948C000C948C000C94730831
:100030000C948C000C948C000C948C000C948C0010
:100040000C9461070C948C000C942F070C940907F6
:100050000C948C000C948C000C948C000C948C00F0
:100060000C948C000C948C000000000024002700ED
:100070002A0000000008000201000003040700003D
:100080000000000000000200000000250028002BF6
:1000900000000000002300260029000404040404DA
:1000A0000404040202020202020303030303030125
:1000B00002040810204080010204081020010204FC
:1000C000081020007109C40B11241FBECFEFD8E027
:1000D000DEBFCDBF11E0A0E0B1E0EEECFAE102C07E
:1000E00005900D92A832B107D9F722E0A8E2B1E05D
:1000F00001C01D92A237B207E1F710E0C3E6D0E0DD
:1001000004C02197FE010E944F0DC236D107C9F7E6
:100110000E94940A0C945A0D0C940000E0919601F0
:10012000F09197010190F081E02D682F86E991E030
:100130000994CF92DF92EF92FF920F931F93CF9388
:10014000DF936C017A018B01C0E0D0E0CE15DF05B2
:1001500089F0D8016D918D01D601ED91FC9101904E
:10016000F081E02DC6010995892B11F47E0102C0B2
:100170002196ECCFC701DF91CF911F910F91FF9096
:10018000EF90DF90CF900895FC01918D828D9817AC
:1001900061F0828DDF01A80FB11D5D968C91928D6B
:1001A0009F5F9F73928F90E008958FEF9FEF089568
:1001B000FC01918D828D981731F0828DE80FF11D31
:1001C000858D90E008958FEF9FEF0895FC01918D4C
:1001D000228D892F90E0805C9F4F821B91098F7345
:1001E0009927089586E991E00E94E60021E0892B95
:1001F00009F420E0822F0895FC01848DDF01A80F0F
:10020000B11DA35ABF4F2C91848D90E001968F733E
:100210009927848FA689B7892C93A089B1898C915D
:1002200080648C93938D848D981306C00288F38923
:10023000E02D80818F7D80830895EF92FF920F9350
:100240001F93CF93DF93EC0181E0888F9B8D8C8D82
:10025000981305C0E889F989808185FD24C0F62EB0
:100260000B8D10E00F5F1F4F0F731127E02E8C8D49
:10027000E8120CC00FB607FCFACFE889F989808133
:1002800085FFF5CFCE010E94FC00F1CF8B8DFE01E2
:10029000E80FF11DE35AFF4FF0820B8FEA89FB89CB
:1002A0008081806207C0EE89FF896083E889F989CF
:1002B00080818064808381E090E0DF91CF911F9105
:1002C0000F91FF90EF900895CF93DF93EC01888D0D
:1002D0008823C9F0EA89FB89808185FD05C0A8894A
:1002E000B9898C9186FD0FC00FB607FCF5CF8081D0
:1002F00085FFF2CFA889B9898C9185FFEDCFCE011A
:100300000E94FC00E7CFDF91CF91089580E090E05C
:10031000892B29F00E94F20081110C9400000895AD
:1003200090E0FC01EE58FF4F3491FC01E155FF4F86
:100330002491FC01E556FF4FE491EE2309F43BC004
:10034000332339F1333091F038F43130A9F03230C1
:1003500001F584B58F7D12C0373091F03830A1F0AF
:100360003430B9F4809180008F7D03C0809180008B
:100370008F77809380000DC084B58F7784BD09C0CE
:100380008091B0008F7703C08091B0008F7D809303
:10039000B000F0E0EE0FFF1FE957FF4FA591B491B9
:1003A0008FB7F894EC91611103C020952E2301C002
:1003B0002E2B2C938FBF089590910401981324C085
:1003C000E6E8F0E0E4919FEF90930401E130B9F0AA
:1003D00098F0E230C9F4909170009D7F9093700086
:1003E00091E09093B0009091B100987F94609093C9
:1003F000B1001092B30008C010926E0005C0909139
:100400006F009D7F90936F0060E00C949001CF93FC
:10041000DF9390E0FC01E155FF4F2491FC01E5568C
:10042000FF4F8491882361F190E0880F991FFC01B0
:10043000E859FF4FC591D491FC01E957FF4FA591B1
:10044000B491611109C09FB7F894888120958223E7
:100450008883EC912E230BC0623061F49FB7F8942F
:100460003881822F809583238883EC912E2B2C93C7
:100470009FBF06C08FB7F894E8812E2B28838FBFCB
:10048000DF91CF9108958E3008F08E508770806490
:1004900080937C0080917A00806480937A008091C0
:1004A0007A0086FDFCCF809178002091790090E061
:1004B000922B08950F931F93CF93DF9380E10E94B7
:1004C0004302EC018FE00E9443028C018EE00E9407
:1004D0004302E9E6F2E09183808313830283D583AC
:1004E000C483DF91CF911F910F9108953FB7F89486
:1004F0008091870190918801A0918901B0918A0132
:1005000026B5A89B05C02F3F19F00196A11DB11D6E
:100510003FBFBA2FA92F982F8827820F911DA11DA9
:10052000B11DBC01CD0142E0660F771F881F991FE6
:100530004A95D1F708958F929F92AF92BF92CF9232
:10054000DF92EF92FF920E9476024B015C0184E6FB
:10055000C82ED12CE12CF12C0E947602DC01CB01BB
:1005600088199909AA09BB09883E9340A105B105DC
:1005700058F021E0C21AD108E108F10888EE880E8F
:1005800083E0981EA11CB11CC114D104E104F10444
:1005900019F7FF90EF90DF90CF90BF90AF909F90B2
:1005A0008F9008950F931F93CF93DF930E945A0269
:1005B0000E945A020E945A020E945A02E9E6F2E0A0
:1005C0008481958122813381C8E5D2E040815181C7
:1005D0005C834B833E832D8398878F8303E612E0F1
:1005E000F80180810E944302845D9E4FF80192834E
:1005F00081830E949B02EFE6F0E08081826080832D
:1006000081E08883DF91CF911F910F910895089524
:1006100020918D0130918E012817390771F4909146
:100620008B0180918C01981741F0E0918B01F0E0F3
:10063000EE5BFE4F808190E008958FEF9FEF08956D
:1006400008951F93CF93DF93DC015C962D913C912D
:100650005D972115310539F481E090E013969C9364
:100660008E9312973DC05196ED91FC915297509602
:100670009C915097892F80951FB75E964C915E97FD
:1006800041FB772770F941FD6095F894408177230D
:1006900011F0492B01C048234083E9012197F1F76C
:1006A00048E0508160FF02C0592B01C0582350839D
:1006B000E9012197F1F76695415099F7772321F0E9
:1006C00090818923808303C08081982B90831FBFF2
:1006D0005C968D919C915D970197F1F721E030E058
:1006E000C901DF91CF911F91089520918D01309123
:1006F0008E012817390771F480918C0120918B01AC
:1007000090E0805C9F4F821B910960E470E00E9442
:10071000C80C089580E090E0089520918D013091FB
:100720008E0128173907B9F490918B0180918C01C3
:10073000981789F0E0918B01F0E0EE5BFE4F80812D
:1007400020918B0130E02F5F3F4F2F733327209391
:100750008B0190E008958FEF9FEF0895E0918D0158
:10076000F0918E01E817F90769F4A389B4899C9187
:100770008589809589238C9310928E0110928D012A
:1007800081E0089580E008952FB7F8948091830167
:1007900090918401A0918501B09186012FBF909323
:1007A00041018093400120913E0130913F01AC0115
:1007B000421B530B4536510554F090933F018093F3
:1007C0003E01809166020E94DC010C94D2020895E1
:1007D0008F929F92AF92BF92CF92DF92EF92FF9251
:1007E000CF9380906702909068028091660290910A
:1007F0000401981721F09F3F09F097C104C0E6E873
:10080000F0E0C4917DC080930401E6E8F0E0C4917B
:10081000CF3F09F48AC1C13029F1C23009F449C07F
:10082000C1116EC014BC15BC94B5926094BD95B551
:10083000916095BD282F30E0F901E556FF4FE49116
:10084000F0E0EE0FFF1FE957FF4F45915491509391
:10085000350140933401F901E155FF4FE491E093F4
:10086000330150C01092800010928100909181005D
:1008700098609093810090918100916090938100A5
:10088000282F30E0F901E556FF4FE491F0E0EE0F3C
:10089000FF1FE957FF4F4591549150933201409308
:1008A0003101F901E155FF4FE491E0933001C1E0DE
:1008B00029C01092B0001092B1009091B0009260E7
:1008C0009093B0009091B10091609093B100282F67
:1008D00030E0F901E556FF4FE491F0E0EE0FFF1F25
:1008E000E957FF4F459154915093900140938F01E8
:1008F000F901E155FF4FE491E0939101C2E002C09C
:10090000C7FD13C161E00E940702A12CB12C8C2FFE
:100910008D7F09F0A0C060E072E18AE790E0A50158
:1009200094010E94FE0C69017A01DA01C901019764
:10093000A109B1098F3F9105A105B10509F008F49E
:1009400042C060E472E48FE090E0A50194010E944F
:10095000FE0CDA01C9010197A109B109C230E1F425
:100960008F3F9105A105B10509F008F43DC160E98B
:1009700070ED83E090E0A50194010E94FE0CDA0185
:10098000C9010197A109B1098F3F9105A105B105E1
:1009900009F088F523E058C08F3F9105A105B10506
:1009A000A1F098F068E478EE81E090E0A501940170
:1009B0000E94FE0CDA01C9010197A109B109CC23FB
:1009C00009F4C6C009C121E001C022E0CC2371F0C6
:1009D0003BC0D701C6012AE0B595A79597958795A5
:1009E0002A95D1F70197A109B10925E035B5387FDE
:1009F000232B25BD61C068E478EE81E090E0A5017D
:100A000094010E94FE0CDA01C9010197A109B10904
:100A10008F3F9105A105B10509F008F497C064E284
:100A200074EF80E090E0A50194010E94FE0CDA01D1
:100A3000C9010197A109B1098F3F9105A105B10530
:100A400011F008F0A3C025E03091B100387F232BCE
:100A50002093B1002BC060E072E18AE790E0A5012D
:100A600094010E94FE0CDA01C9010197A109B109A4
:100A7000009721E0A207B10578F068E478EE81E004
:100A800090E0A50194010E94FE0CDA01C9010197D2
:100A9000A109B10933E001C031E0C13039F420913E
:100AA0008100287F232B2093810018C0C130B1F032
:100AB000C23049F1C11139C087BD8FEF9FEFDC0112
:100AC00080933A0190933B01A0933C01B0933D0188
:100AD00080916E00826080936E0027C090938900A1
:100AE000809388008FEF9FEFDC0180933601909315
:100AF0003701A0933801B093390180916F00826073
:100B000080936F0012C08093B3008FEF9FEFDC01E2
:100B10008093920190939301A0939401B0939501D7
:100B20008091700082608093700080916F008D7F53
:100B300080936F0010925802CF91FF90EF90DF905A
:100B4000CF90BF90AF909F908F90089524E07CCF7E
:100B50008F3F9105A105B105B9F0B0F062E17AE7E8
:100B600080E090E0A50194010E94FE0CDA01C90129
:100B70000197A109B1098F3F9105A105B10511F0B8
:100B800008F027CF24E032CF23E030CF62E17AE7CC
:100B900080E090E0A50194010E94FE0CDA01C901F9
:100BA0000197A109B1098F3F9105A105B10591F008
:100BB00088F0D701C6013AE0B595A7959795879536
:100BC0003A95D1F70197A109B109CC2309F40DCFCA
:100BD00027E03ACF26E0FACE8F3F9105A105B10577
:100BE00009F0A0F624E0F2CE22E02ECF8F929F9261
:100BF000AF92BF920F931F93CF93DF93CDB7DEB722
:100C0000A1970FB6F894DEBF0FBECDBF19A2423038
:100C100008F44AE08E010F5D1F4F842E912CA12C09
:100C2000B12CA50194010E94DC0CE62FB901CA0188
:100C300001501109EA3014F4E05D01C0E95CD8010B
:100C4000EC93232B242B252B61F70115110571F053
:100C5000F80101900020E9F73197AF01401B510BDB
:100C6000B80186E991E00E94990002C080E090E01E
:100C7000A1960FB6F894DEBF0FBECDBFDF91CF9126
:100C80001F910F91BF90AF909F908F900895CF923A
:100C9000DF92EF92FF92CF93DF936C01990FEE08F2
:100CA000FF08F7FE17C08DE20E948E00EC01662758
:100CB0007727CB016C197D098E099F094AE00E94B4
:100CC000F6058C0F9D1FDF91CF91FF90EF90DF9085
:100CD000CF9008954AE0C701B601DF91CF91FF9010
:100CE000EF90DF90CF900C94F6050E94550D8F92F7
:100CF0009F92AF92BF92CF92DF92EF92FF92FC0150
:100D0000E080F180A281B381448155819D010E94E0
:100D10001D0D4B015C019701D7010E941D0D75014E
:100D20006401C60ED71EE81EF91E9A01DA010E9460
:100D30001D0D6C0D7D1D8E1D9F1D0E94040C0E94BB
:100D4000700C0E94CE0BCB01FF90EF90DF90CF9004
:100D5000BF90AF909F908F9008951F920F920FB603
:100D60000F9211242F933F934F935F936F937F9331
:100D70008F939F93AF93BF93EF93FF9380919201D3
:100D800090919301A0919401B0919501892B8A2BA8
:100D90008B2B51F180919101E0918F01F0919001A5
:100DA0009081892780838091920190919301A091F5
:100DB0009401B0919501181619061A061B06C4F481
:100DC0008091920190919301A0919401B09195012D
:100DD0000197A109B1098093920190939301A09387
:100DE0009401B093950104C0809104010E94DC013C
:100DF000FF91EF91BF91AF919F918F917F916F91F3
:100E00005F914F913F912F910F900FBE0F901F90C8
:100E100018951F920F920FB60F9211242F933F93A4
:100E20004F935F936F937F938F939F93AF93BF93F2
:100E3000EF93FF9386E991E00E94FC00FF91EF9110
:100E4000BF91AF919F918F917F916F915F914F91E2
:100E50003F912F910F900FBE0F901F9018951F92EA
:100E60000F920FB60F9211242F938F939F93EF93AE
:100E7000FF93E091A601F091A7018081E091AC0180
:100E8000F091AD0182FD12C090818091AF018F5F22
:100E90008F732091B001821751F0E091AF01F0E023
:100EA000EA56FE4F958F8093AF0101C08081FF917C
:100EB000EF919F918F912F910F900FBE0F901F90E8
:100EC00018951F920F920FB60F9211242F933F93F4
:100ED0008F939F93AF93BF938091830190918401EF
:100EE000A0918501B09186013091820123E0230F0A
:100EF0002D3720F40196A11DB11D05C026E8230F52
:100F00000296A11DB11D20938201809383019093CD
:100F10008401A0938501B09386018091870190910F
:100F20008801A0918901B0918A010196A11DB11D8E
:100F30008093870190938801A0938901B0938A01DF
:100F4000BF91AF919F918F913F912F910F900FBEC5
:100F50000F901F9018951F920F920FB60F921124A9
:100F60002F933F934F935F936F937F938F939F93B1
:100F7000AF93BF93EF93FF93E0910201F0910301D0
:100F80000995FF91EF91BF91AF919F918F917F91C3
:100F90006F915F914F913F912F910F900FBE0F90E6
:100FA0001F9018951F920F920FB60F9211242F9336
:100FB0003F934F935F936F937F938F939F93AF93E1
:100FC000BF93EF93FF93E0910001F0910101099528
:100FD000FF91EF91BF91AF919F918F917F916F9111
:100FE0005F914F913F912F910F900FBE0F901F90E7
:100FF00018951F920F920FB60F9211242F933F93C3
:101000004F935F936F937F938F939F93AF93BF9310
:10101000EF93FF93E0918D01F0918E01309709F4E9
:1010200051C0968DA685B785858591FF04C09C919A
:10103000892329F447C09C91892309F043C0A389DF
:10104000B4899C918589809589238C938689978919
:101050000197F1F7608D718DA685B785558538E0CC
:1010600020E0CB010197F1F7822F90E095958795CD
:10107000282F4C91452309F02068315091F7868D37
:1010800081FD209580918C0190E001968F739927C6
:1010900030918B01381749F0A0918C01B0E0AE5B24
:1010A000BE4F2C9380938C0103C0868D8160868F08
:1010B000828D938D0197F1F7A389B4899C918589DD
:1010C000892B8C93FF91EF91BF91AF919F918F915D
:1010D0007F916F915F914F913F912F910F900FBE34
:1010E0000F901F9018951F920F920FB60F92112418
:1010F000CF92DF92EF92FF920F931F932F933F9324
:101100004F935F936F937F938F939F93AF93BF930F
:10111000EF93FF932FB7F89480918301909184010E
:10112000A0918501B09186012FBF80932C019093EF
:101130002D01A0932E01B0932F01409128015091D1
:10114000290160912A0170912B018C019D01041BE2
:10115000150B260B370B053611052105310508F453
:10116000A9C08093280190932901A0932A01B093EC
:101170002B010E945A0220916D0230916E02409123
:101180006B0250916C028091690290916A02909377
:10119000530280935202509355024093540230936D
:1011A0005702209356020E94470689E00E948E0053
:1011B00080915402909155020E94470689E00E9456
:1011C0008E0080915602909157020E94470689E056
:1011D0000E948E008BE592E00E9477067C0182E5FA
:1011E00092E00E9477069701281B390BC9010E94E3
:1011F000470689E00E948E0082E592E00E94770611
:101200000E94470689E00E948E0083E10E9443020B
:101210006C01990FEE08FF08F7FE0CC08DE20E94EA
:101220008E0066277727CB016C197D098E099F09EF
:101230004AE003C04AE0C701B6010E94F60542E059
:1012400050E065E271E086E991E00E94990082E554
:1012500092E00E9477067C018BE592E00E9477067F
:101260002091590230915A02AC01421B530BE416F3
:10127000F506D0F0280F391F2E153F05A8F0E09095
:101280006402F0906502809163020E944302E816B6
:10129000F90650F086E0E2E5F2E0ABE5B2E001905D
:1012A0000D928A95E1F706C0E0916102F091620229
:1012B0000995F0CFFF91EF91BF91AF919F918F91E1
:1012C0007F916F915F914F913F912F911F910F915E
:1012D000FF90EF90DF90CF900F900FBE0F901F9078
:1012E0001895CF92DF92EF92FF921092990110928F
:1012F000980198EEC92E93E0D92EE12CF12CC092E2
:101300009A01D0929B01E0929C01F0929D0189E0AC
:1013100091E0909397018093960185EC90E09093F3
:10132000A3018093A20184EC90E09093A5018093A7
:10133000A40180EC90E09093A7018093A60181EC3A
:1013400090E09093A9018093A80182EC90E09093A3
:10135000AB018093AA0186EC90E09093AD0180935D
:10136000AC011092AF011092B0011092B101109235
:10137000B20110926A021092690210926C021092ED
:101380006B0210926E0210926D0280E180936F02E8
:1013900081E18093700282E1809371028CE08093FE
:1013A000660288EE90E0909368028093670261E0A5
:1013B0008CE00E94070283E18093630262E00E9456
:1013C00007021092580284E190E090935A028093B1
:1013D000590210925C0210925B0210925E0210920F
:1013E0005D021092600210925F0288EE93E090938B
:1013F000620280936102F894109280001092810042
:1014000088E09DE39093890080938800809181001B
:101410008860809381008091810084608093810046
:101420008091810081608093810080916F008D7F29
:1014300080936F007894109253021092520210928F
:1014400055021092540210925702109256021092B6
:10145000360210923502C0923702D0923802E092E2
:101460003902F0923A0289E191E09093340280933C
:10147000330210924A021092490210924C021092CA
:101480004B0210924E0210924D0210925002109296
:101490004F02609151026E7F6D7F6093510266959D
:1014A000617081E0682785E00E94900161E085E03D
:1014B0000E940702E4EBF0E0E491E0934302E0EAEB
:1014C000F0E0E491F0E0EE0FFF1FE957FF4F859148
:1014D0009491909345028093440260E084E00E94DE
:1014E00007028091510281FD04C061E084E00E9406
:1014F000900184E080933F02E3EBF0E0E491E0931D
:101500004002EFE9F0E0E491F0E0EE0FFF1FEF564C
:10151000FF4F859194919093420280934102FF90F6
:10152000EF90DF90CF900895789484B5826084BD69
:1015300084B5816084BD85B5826085BD85B58160D7
:1015400085BD80916E00816080936E001092810055
:101550008091810082608093810080918100816010
:1015600080938100809180008160809380008091D1
:10157000B10084608093B1008091B000816080935D
:10158000B00080917A00846080937A0080917A0024
:10159000826080937A0080917A00816080937A00E3
:1015A00080917A00806880937A001092C100E09167
:1015B000A601F091A70182E08083E091A201F09161
:1015C000A3011082E091A401F091A5018FEC80832A
:1015D0001092AE01E091AA01F091AB0186E0808308
:1015E000E091A801F091A901808180618083E09160
:1015F000A801F091A901808188608083E091A80111
:10160000F091A901808180688083E091A801F09128
:10161000A90180818F7D808310924E0210924D022D
:1016200010924C0210924B0210924A021092490200
:101630008DE991E09093500280934F0290913F0288
:10164000963108F057C02DEB30E030934A022093DA
:1016500049022BE931E030934C0220934B022CE2FB
:1016600031E030934E0220934D0220916800983073
:1016700050F031E09E3008F430E081E001C0880F86
:101680003A95EAF701C084E0822B80936800983095
:1016900038F09E3040F0963148F020E030E008C04D
:1016A0002DE630E005C02BE630E002C02CE630E04D
:1016B0003093470220934602983030F481E001C015
:1016C000880F9A95EAF70EC0292F30E09E3018F463
:1016D0002850310902C02E50310981E001C0880F25
:1016E0002A95EAF78093480280914F029091500228
:1016F0000197F1F780914D0290914E02892B21F1D3
:1017000080918D0190918E0122E083339207E1F068
:10171000009711F00E94AE03809151028E7F80935A
:10172000510210928C0110928B0183E392E090930E
:101730008E0180938D01E0914602F09147029081E5
:1017400080914802892B808361E08DE00E9407022E
:1017500062E082E00E94070284EC93E09093010132
:1017600080930001809169008C7F82608093690082
:10177000E89A0E949B020E94D20283E392E00E94B8
:1017800075030E948601F9CF89E191E090933402BC
:101790008093330283E392E00C94AE030E94D50B56
:1017A0006894B1110C94640C08950E94490C88F05F
:1017B0009F5798F0B92F9927B751B0F0E1F0660F15
:1017C000771F881F991F1AF0BA95C9F714C0B13056
:1017D00091F00E94630CB1E008950C94630C672FA4
:1017E000782F8827B85F39F0B93FCCF38695779585
:1017F0006795B395D9F73EF490958095709561956E
:101800007F4F8F4F9F4F0895E89409C097FB3EF498
:1018100090958095709561957F4F8F4F9F4F99233D
:10182000A9F0F92F96E9BB279395F69587957795BB
:101830006795B795F111F8CFFAF4BB0F11F460FF7B
:101840001BC06F5F7F4F8F4F9F4F16C0882311F0D3
:1018500096E911C0772321F09EE8872F762F05C0E7
:10186000662371F096E8862F70E060E02AF09A9582
:10187000660F771F881FDAF7880F9695879597F977
:10188000089557FD9058440F551F59F05F3F71F070
:101890004795880F97FB991F61F09F3F79F08795D7
:1018A0000895121613061406551FF2CF4695F1DF60
:1018B00008C0161617061806991FF1CF86957105F0
:1018C000610508940895E894BB2766277727CB0124
:1018D00097F9089519F416F40C94BE0C0C94B00CFE
:1018E0000E94490CB8F39923C9F3B6F39F57550BDF
:1018F00087FF0E94C10C0024A0E640EA90018058B6
:101900005695979528F4805C660F771F881F20F006
:1019100026173707480730F4621B730B840B202906
:1019200031294A2BA69517940794202531254A275B
:1019300058F7660F771F881F20F0261737074807CC
:1019400030F4620B730B840B200D311D411DA095EB
:1019500081F7B901842F9158880F9695879508953E
:101960009F3F31F0915020F4879577956795B79513
:10197000880F911D9695879597F908959FEF80ECB4
:10198000089591505040660F771F881FD2F7089531
:1019900097FB072E16F4009407D077FD09D00E941C
:1019A0003B0D07FC05D03EF4909581959F4F08951F
:1019B000709561957F4F0895A1E21A2EAA1BBB1B5B
:1019C000FD010DC0AA1FBB1FEE1FFF1FA217B3070B
:1019D000E407F50720F0A21BB30BE40BF50B661F21
:1019E000771F881F991F1A9469F7609570958095E5
:1019F00090959B01AC01BD01CF010895052E97FB89
:101A00001EF400940E94150D57FD07D00E94DC0CB7
:101A100007FC03D04EF40C94150D5095409530956D
:101A200021953F4F4F4F5F4F08959095809570954A
:101A300061957F4F8F4F9F4F08950E94250D33234F
:101A400012F48A1B9B0B0C94360DA29FB001B39F1E
:101A5000C001A39F700D811D1124911DB29F700DB7
:101A6000811D1124911D08950E94250DB7FF089531
:101A7000821B930B0895AA1BBB1B51E107C0AA1F31
:101A8000BB1FA617B70710F0A61BB70B881F991F1F
:101A90005A95A9F780959095BC01CD010895EE0F58
:101AA000FF1F0590F491E02D099481E090E0F894F7
:101AB0000C945A0D10E0C3E6D0E004C0FE010E9471
:0E1AC0004F0D2196C436D107C9F7F894FFCF19
:101ACE0007030703FF000000001D019900E600C494
:101ADE0000D8006401000000002103990075038DF9
:081AEE0003080320030D0A00A8
:107E0000112484B714BE81FFF0D085E080938100F7
:107E100082E08093C00088E18093C10086E0809377
:107E2000C20080E18093C4008EE0C9D0259A86E02C
:107E300020E33CEF91E0309385002093840096BBD3
:107E4000B09BFECF1D9AA8958150A9F7CC24DD24C4
:107E500088248394B5E0AB2EA1E19A2EF3E0BF2EE7
:107E6000A2D0813461F49FD0082FAFD0023811F036
:107E7000013811F484E001C083E08DD089C08234E0
:107E800011F484E103C0853419F485E0A6D080C0E4
:107E9000853579F488D0E82EFF2485D0082F10E0AE
:107EA000102F00270E291F29000F111F8ED06801E7
:107EB0006FC0863521F484E090D080E0DECF843638
:107EC00009F040C070D06FD0082F6DD080E0C81688
:107ED00080E7D80618F4F601B7BEE895C0E0D1E017
:107EE00062D089930C17E1F7F0E0CF16F0E7DF06D8
:107EF00018F0F601B7BEE89568D007B600FCFDCFD4
:107F0000A601A0E0B1E02C9130E011968C91119780
:107F100090E0982F8827822B932B1296FA010C0160
:107F200087BEE89511244E5F5F4FF1E0A038BF0790
:107F300051F7F601A7BEE89507B600FCFDCF97BE46
:107F4000E89526C08437B1F42ED02DD0F82E2BD052
:107F50003CD0F601EF2C8F010F5F1F4F84911BD097
:107F6000EA94F801C1F70894C11CD11CFA94CF0C13
:107F7000D11C0EC0853739F428D08EE10CD085E9AC
:107F80000AD08FE07ACF813511F488E018D01DD067
:107F900080E101D065CF982F8091C00085FFFCCF94
:107FA0009093C60008958091C00087FFFCCF809118
:107FB000C00084FD01C0A8958091C6000895E0E648
:107FC000F0E098E1908380830895EDDF803219F02E
:107FD00088E0F5DFFFCF84E1DECF1F93182FE3DFCA
:107FE0001150E9F7F2DF1F91089580E0E8DFEE27F6
:047FF000FF270994CA
:027FFE00040479
:0400000300007E007B
:00000001FF