:100000000C9464000C948C000C948C000C940D07E0
:100010000C940D070C940D070C948C000C94E905BE
:100020000C948C000C948C000C948C000C9487071E
:100030000C948C000C948C000C948C000C948C0010
:100040000C94C3060C948C000C9491060C946B06D3
:100050000C948C000C948C000C948C000C948C00F0
:100060000C948C000C948C000000000024002700ED
:100070002A0000000008000201000003040700003D
:100080000000000000000200000000250028002BF6
:1000900000000000002300260029000404040404DA
:1000A0000404040202020202020303030303030125
:1000B00002040810204080010204081020010204FC
:1000C000081020005908CF0A11241FBECFEFD8E036
:1000D000DEBFCDBF11E0A0E0B1E0E6EDF8E102C087
:1000E00005900D92A432B107D9F722E0A4E2B1E065
:1000F00001C01D92A336B207E1F710E0C3E6D0E0DD
:1001000004C02197FE010E94600BC236D107C9F7D7
:100110000E946B090C945E0C0C940000CF92DF924D
:10012000EF92FF920F931F93CF93DF936C017A01AD
:100130008B01C0E0D0E0CE15DF0589F0D8016D91CC
:100140008D01D601ED91FC910190F081E02DC60169
:100150000995892B11F47E0102C02196ECCFC701CD
:10016000DF91CF911F910F91FF90EF90DF90CF9093
:100170000895FC01918D828D981761F0828DDF01C9
:10018000A80FB11D5D968C91928D9F5F9F73928F8A
:1001900090E008958FEF9FEF0895FC01918D828D7F
:1001A000981731F0828DE80FF11D858D90E008954C
:1001B0008FEF9FEF0895FC01918D228D892F90E0A4
:1001C000805C9F4F821B91098F73992708958EE859
:1001D00091E00E94DB0021E0892B09F420E0822FCE
:1001E0000895FC01848DDF01A80FB11DA35ABF4FF4
:1001F0002C91848D90E001968F739927848FA68926
:10020000B7892C93A089B1898C9180648C93938D4C
:10021000848D981306C00288F389E02D80818F7D3C
:1002200080830895EF92FF920F931F93CF93DF93F4
:10023000EC0181E0888F9B8D8C8D981305C0E88937
:10024000F989808185FD24C0F62E0B8D10E00F5FAB
:100250001F4F0F731127E02E8C8DE8120CC00FB6C4
:1002600007FCFACFE889F989808185FFF5CFCE01B7
:100270000E94F100F1CF8B8DFE01E80FF11DE35AD2
:10028000FF4FF0820B8FEA89FB898081806207C073
:10029000EE89FF896083E889F989808180648083A1
:1002A00081E090E0DF91CF911F910F91FF90EF904F
:1002B0000895CF93DF93EC01888D8823C9F0EA89F4
:1002C000FB89808185FD05C0A889B9898C9186FD4F
:1002D0000FC00FB607FCF5CF808185FFF2CFA8894C
:1002E000B9898C9185FFEDCFCE010E94F100E7CF57
:1002F000DF91CF91089580E090E0892B29F00E9452
:10030000E70081110C940000089590E0FC01EE5884
:10031000FF4F3491FC01E155FF4F2491FC01E5565C
:10032000FF4FE491EE2309F43BC0332339F133301E
:1003300091F038F43130A9F0323001F584B58F7D79
:1003400012C0373091F03830A1F03430B9F48091D8
:1003500080008F7D03C0809180008F778093800024
:100360000DC084B58F7784BD09C08091B0008F77B0
:1003700003C08091B0008F7D8093B000F0E0EE0F5D
:10038000FF1FE957FF4FA591B4918FB7F894EC91F7
:10039000611103C020952E2301C02E2B2C938FBFFB
:1003A0000895CF93DF9390E0FC01E155FF4F249136
:1003B000FC01E556FF4F8491882361F190E0880F9E
:1003C000991FFC01E859FF4FC591D491FC01E957F1
:1003D000FF4FA591B491611109C09FB7F89488812E
:1003E000209582238883EC912E230BC0623061F428
:1003F0009FB7F8943881822F809583238883EC916E
:100400002E2B2C939FBF06C08FB7F894E8812E2B1C
:1004100028838FBFDF91CF9108958E3008F08E50E2
:100420008770806480937C0080917A0080648093E0
:100430007A0080917A0086FDFCCF8091780020912F
:10044000790090E0922B08950F931F93CF93DF9341
:1004500080E10E940D02EC018FE00E940D028C01F0
:100460008EE00E940D02EAE5F2E09183808313831F
:100470000283D583C483DF91CF911F910F9108959B
:100480003FB7F89480917F0190918001A091810104
:10049000B091820126B5A89B05C02F3F19F00196A7
:1004A000A11DB11D3FBFBA2FA92F982F8827820FFA
:1004B000911DA11DB11DBC01CD0142E0660F771F4A
:1004C000881F991F4A95D1F7089520918501309191
:1004D00086012817390771F4909183018091840176
:1004E000981741F0E0918301F0E0E65CFE4F8081D7
:1004F00090E008958FEF9FEF089508951F93CF9395
:10050000DF93DC015C962D913C915D9721153105BF
:1005100039F481E090E013969C938E9312973DC03E
:100520005196ED91FC91529750969C915097892F3E
:1005300080951FB75E964C915E9741FB772770F9C7
:1005400041FD6095F8944081772311F0492B01C05B
:1005500048234083E9012197F1F748E0508160FF8B
:1005600002C0592B01C058235083E9012197F1F7AC
:100570006695415099F7772321F0908189238083F4
:1005800003C08081982B90831FBF5C968D919C91B6
:100590005D970197F1F721E030E0C901DF91CF913C
:1005A0001F91089520918501309186012817390700
:1005B00071F4809184012091830190E0805C9F4FD1
:1005C000821B910960E470E00E94D90A089580E0DE
:1005D00090E0089520918501309186012817390710
:1005E000B9F49091830180918401981789F0E0918A
:1005F0008301F0E0E65CFE4F80812091830130E0D2
:100600002F5F3F4F2F7333272093830190E008958E
:100610008FEF9FEF0895E0918501F0918601E81733
:10062000F90769F4A389B4899C9185898095892308
:100630008C93109286011092850181E0089580E0EC
:1006400008954F925F926F927F928F929F92AF9296
:10065000BF92CF92DF92EF92FF921F93CF93DF93DF
:10066000C0915802D0915902809157029091000197
:10067000981721F09F3F09F013C204C0E6E8F0E0AC
:1006800014917DC080930001E6E8F0E014911F3FD3
:1006900009F406C2113029F1123009F449C01111D0
:1006A0006EC014BC15BC94B5926094BD95B59160B4
:1006B00095BD282F30E0F901E556FF4FE491F0E0B9
:1006C000EE0FFF1FE957FF4F4591549150933101B1
:1006D00040933001F901E155FF4FE491E0932F0180
:1006E00050C010928000109281009091810098601B
:1006F0009093810090918100916090938100282FC8
:1007000030E0F901E556FF4FE491F0E0EE0FFF1FF6
:10071000E957FF4F4591549150932E0140932D017D
:10072000F901E155FF4FE491E0932C0111E029C05C
:100730001092B0001092B1009091B000926090932E
:10074000B0009091B10091609093B100282F30E0FB
:10075000F901E556FF4FE491F0E0EE0FFF1FE95776
:10076000FF4F459154915093880140938701F901BF
:10077000E155FF4FE491E093890112E002C017FDBB
:100780008FC161E00E94D1014E01A12CB12C812FBB
:100790008D7F09F0B6C060E072E18AE790E0A501C4
:1007A00094010E940F0B29013A0169017A0121E0AD
:1007B000C21AD108E108F1088FEFC816D104E1048C
:1007C000F10409F008F44BC060E472E48FE090E0BB
:1007D000A50194010E940F0B69017A0181E0C81AFA
:1007E000D108E108F108123001F52FEFC216D1044B
:1007F000E104F10409F008F451C160E970ED83E00F
:1008000090E0A50194010E940F0B69017A0181E03B
:10081000C81AD108E108F1082FEFC216D104E1048B
:10082000F10409F0C0F583E065C08FEFC816D1046C
:10083000E104F104B1F0A8F068E478EE81E090E022
:10084000A50194010E940F0B69017A0181E0C81A89
:10085000D108E108F108112309F4C8C016C181E0EC
:1008600001C082E0112391F045C0D301C2012AE00A
:10087000B595A795979587952A95D1F76C017D0138
:1008800021E0C21AD108E108F10885E095B5987F0A
:10089000892B85BD65C068E478EE81E090E0A50114
:1008A00094010E940F0B69017A0181E0C81AD108F6
:1008B000E108F1082FEFC216D104E104F10409F0B8
:1008C00008F492C064E274EF80E090E0A501940126
:1008D0000E940F0B69017A0181E0C81AD108E10872
:1008E000F1082FEFC216D104E104F10411F008F071
:1008F0009FC085E09091B100987F892B8093B100D3
:100900002FC060E072E18AE790E0A50194010E94A7
:100910000F0B69017A0181E0C81AD108E108F108DA
:10092000C114D10421E0E206F10488F068E478EE15
:1009300081E090E0A50194010E940F0B69017A010A
:1009400081E0C81AD108E108F10893E001C091E004
:10095000113031F480918100887F892B8093810050
:100960009E01220F331FA8EEB3E00E94360B28EE43
:1009700033E040E050E00E94ED0A113099F012306F
:1009800019F111118DC0C7BC209336013093370186
:10099000409338015093390180916E0082608093BA
:1009A0006E007EC0D0928900C092880020933201F0
:1009B00030933301409334015093350180916F009F
:1009C000826080936F006CC0C092B30020938A0154
:1009D00030938B0140938C0150938D018091700076
:1009E0008260809370005CC084E084CF8FEFC81673
:1009F000D104E104F104D1F0C8F062E17AE780E0CB
:100A000090E0A50194010E940F0B69017A0181E039
:100A1000C81AD108E108F1082FEFC216D104E10489
:100A2000F10411F008F021CF84E030CF83E02ECF25
:100A300062E17AE780E090E0A50194010E940F0B4B
:100A400069017A0181E0C81AD108E108F1082FEFA5
:100A5000C216D104E104F104B1F0A8F0D301C2013F
:100A60005AE0B595A795979587955A95D1F76C015A
:100A70007D0121E0C21AD108E108F108112309F42F
:100A800004CF87E037CF86E0EDCE8FEFC816D104D4
:100A9000E104F10409F060F684E0E4CE82E02ACFBC
:100AA000DF91CF911F91FF90EF90DF90CF90BF909B
:100AB000AF909F908F907F906F905F904F90089530
:100AC0008F929F92AF92BF920F931F93CF93DF931A
:100AD000CDB7DEB7A1970FB6F894DEBF0FBECDBF7E
:100AE00019A2423008F44AE08E010F5D1F4F842E98
:100AF000912CA12CB12CA50194010E94ED0AE62FA6
:100B0000B901CA0101501109EA3014F4E05D01C0D5
:100B1000E95CD801EC93232B242B252B61F70115DD
:100B2000110571F0F80101900020E9F73197AF014C
:100B3000401B510BB8018EE891E00E948E0002C06C
:100B400080E090E0A1960FB6F894DEBF0FBECDBF57
:100B5000DF91CF911F910F91BF90AF909F908F9099
:100B600008950E94590C8F929F92AF92BF92CF929C
:100B7000DF92EF92FF92FC01E080F180A281B381CD
:100B8000448155819D010E942E0B4B015C01970110
:100B9000D7010E942E0B75016401C60ED71EE81EF8
:100BA000F91E9A01DA010E942E0B6C0D7D1D8E1D1F
:100BB0009F1D0E94950B0E94010C0E94660BCB01A9
:100BC000FF90EF90DF90CF90BF90AF909F908F906D
:100BD00008951F920F920FB60F9211242F933F93F7
:100BE0004F935F936F937F938F939F93AF93BF9335
:100BF000EF93FF9380918A0190918B01A0918C01DA
:100C0000B0918D01892B8A2B8B2B59F18091890111
:100C1000E0918701F09188019081892780838091FC
:100C20008A0190918B01A0918C01B0918D011816D1
:100C300019061A061B060CF03DC080918A0190919E
:100C40008B01A0918C01B0918D010197A109B1098F
:100C500080938A0190938B01A0938C01B0938D01B6
:100C600029C080910001E6E8F0E0E4919FEF9093C5
:100C70000001E130B9F098F0E230C9F490917000D1
:100C80009D7F9093700091E09093B0009091B1009F
:100C9000987F94609093B1001092B30008C01092B6
:100CA0006E0005C090916F009D7F90936F0060E093
:100CB0000E948501FF91EF91BF91AF919F918F911C
:100CC0007F916F915F914F913F912F910F900FBE48
:100CD0000F901F9018951F920F920FB60F9211242C
:100CE0002F933F934F935F936F937F938F939F9334
:100CF000AF93BF93EF93FF938EE891E00E94F100D2
:100D0000FF91EF91BF91AF919F918F917F916F91E3
:100D10005F914F913F912F910F900FBE0F901F90B9
:100D200018951F920F920FB60F9211242F938F9345
:100D30009F93EF93FF93E0919E01F0919F0180813B
:100D4000E091A401F091A50182FD12C090818091F3
:100D5000A7018F5F8F732091A801821751F0E09156
:100D6000A701F0E0E257FE4F958F8093A70101C0E5
:100D70008081FF91EF919F918F912F910F900FBEE6
:100D80000F901F9018951F920F920FB60F9211247B
:100D90002F933F938F939F93AF93BF9380917B014A
:100DA00090917C01A0917D01B0917E0130917A01FA
:100DB00023E0230F2D3720F40196A11DB11D05C09E
:100DC00026E8230F0296A11DB11D20937A0180937E
:100DD0007B0190937C01A0937D01B0937E01809173
:100DE0007F0190918001A0918101B09182010196D3
:100DF000A11DB11D80937F0190938001A09381017B
:100E0000B0938201BF91AF919F918F913F912F91AC
:100E10000F900FBE0F901F9018951F920F920FB654
:100E20000F9211242F933F934F935F936F937F9370
:100E30008F939F93AF93BF93EF93FF93E0918501BF
:100E4000F0918601309709F451C0968DA685B7853B
:100E5000858591FF04C09C91892329F447C09C910A
:100E6000892309F043C0A389B4899C918589809521
:100E700089238C93868997890197F1F7608D718D0D
:100E8000A685B785558538E020E0CB010197F1F7BD
:100E9000822F90E095958795282F4C91452309F056
:100EA0002068315091F7868D81FD209580918401D5
:100EB00090E001968F73992730918301381749F09C
:100EC000A0918401B0E0A65CBE4F2C938093840176
:100ED00003C0868D8160868F828D938D0197F1F797
:100EE000A389B4899C918589892B8C93FF91EF917B
:100EF000BF91AF919F918F917F916F915F914F9132
:100F00003F912F910F900FBE0F901F9018951F9239
:100F10000F920FB60F921124CF92DF92EF92FF92B1
:100F20000F931F932F933F934F935F936F937F93F1
:100F30008F939F93AF93BF93EF93FF93CF93DF93E1
:100F4000CDB7DEB72697DEBFCDBF2FB7F89480911F
:100F50007B0190917C01A0917D01B0917E012FBF1A
:100F60008093280190932901A0932A01B0932B012B
:100F70004091240150912501609126017091270133
:100F80008C019D01041B150B260B370B0536110533
:100F90002105310508F46EC080932401909325014A
:100FA000A0932601B09327010E94240280915E0243
:100FB00090915F0220915C0230915D0240915A0253
:100FC00050915B025A8349833C832B839E838D839C
:100FD00081E10E940D026C01990FEE08FF08F7FEF7
:100FE00014C0E0918E01F0918F010190F081E02D0D
:100FF0006DE28EE891E0099566277727CB016C19A1
:101000007D098E099F094AE003C04AE0C701B60185
:101010000E94600542E050E061E271E08EE891E0FC
:101020000E948E00CE0101960E94B3057C018CE4E3
:1010300092E00E94B30520914A0230914B02AC012C
:10104000421B530BE416F50680F0280F391F2E15AE
:101050003F0558F0E0905502F090560280915402FE
:101060000E940D02E816F90628F4E0915202F09170
:101070005302099526960FB6F894DEBF0FBECDBF7A
:10108000DF91CF91FF91EF91BF91AF919F918F91A0
:101090007F916F915F914F913F912F911F910F9190
:1010A000FF90EF90DF90CF900F900FBE0F901F90AA
:1010B0001895CF92DF92EF92FF92109291011092C9
:1010C000900198EEC92E93E0D92EE12CF12CC0921C
:1010D0009201D0929301E0929401F092950185E003
:1010E00091E090938F0180938E0185EC90E0909336
:1010F0009B0180939A0184EC90E090939D018093F2
:101100009C0180EC90E090939F0180939E0181EC84
:1011100090E09093A1018093A00182EC90E09093E5
:10112000A3018093A20186EC90E09093A5018093A7
:10113000A4011092A7011092A8011092A901109287
:10114000AA0110925B0210925A0210925D02109254
:101150005C0210925F0210925E028EE08093600249
:101160008FE08093610280E1809362028CE0809343
:10117000570288EE90E0909359028093580261E004
:101180008CE00E94D10181E1809354028AE090E0DA
:1011900090934B0280934A0210924D0210924C029F
:1011A00010924F0210924E02109251021092500271
:1011B00081E293E09093530280935202F89410924C
:1011C00080001092810088E09DE3909389008093D5
:1011D00088008091810088608093810080918100E7
:1011E0008460809381008091810081608093810080
:1011F00080916F008D7F80936F00789410922E0203
:1012000010922D02C0922F02D0923002E092310251
:10121000F092320285E191E090932C0280932B02B0
:101220001092420210924102109244021092430224
:101230001092460210924502109248021092470204
:10124000609149026E7F6D7F60934902669561707F
:1012500081E0682785E00E94850161E085E00E94C9
:10126000D101E4EBF0E0E491E0933B02E0EAF0E04E
:10127000E491F0E0EE0FFF1FE957FF4F8591949145
:1012800090933D0280933C0260E084E00E94D10193
:101290008091490281FD04C061E084E00E948501E3
:1012A00084E080933702E3EBF0E0E491E0933802CE
:1012B000EFE9F0E0E491F0E0EE0FFF1FEF56FF4F93
:1012C0008591949190933A0280933902FF90EF9028
:1012D000DF90CF900895789484B5826084BD84B502
:1012E000816084BD85B5826085BD85B5816085BD21
:1012F00080916E00816080936E00109281008091D9
:101300008100826080938100809181008160809360
:101310008100809180008160809380008091B10085
:1013200084608093B1008091B00081608093B000B0
:1013300080917A00846080937A0080917A00826044
:1013400080937A0080917A00816080937A00809106
:101350007A00806880937A001092C100E0919E012B
:10136000F0919F0182E08083E0919A01F0919B01CE
:101370001082E0919C01F0919D0180E180831092A8
:10138000A601E091A201F091A30186E08083E091A3
:10139000A001F091A101808180618083E091A00192
:1013A000F091A101808188608083E091A001F0919B
:1013B000A101808180688083E091A001F091A1016A
:1013C00080818F7D80831092460210924502109298
:1013D00044021092430210924202109241028DE99F
:1013E00091E09093480280934702909137029631A2
:1013F00008F057C02DEB30E03093420220934102B9
:101400002BE931E030934402209343022CE231E097
:10141000309346022093450220916800983050F0A6
:1014200031E09E3008F430E081E001C0880F3A9549
:10143000EAF701C084E0822B80936800983038F08E
:101440009E3040F0963148F020E030E008C02DE6B4
:1014500030E005C02BE630E002C02CE630E03093EF
:101460003F0220933E02983030F481E001C0880FA3
:101470009A95EAF70EC0292F30E09E3018F42850D4
:10148000310902C02E50310981E001C0880F2A9530
:10149000EAF78093400280914702909148020197B9
:1014A000F1F78091450290914602892B21F18091BC
:1014B00085019091860122E08B329207E1F000973E
:1014C00011F00E940B03809149028E7F80934902A4
:1014D00010928401109283018BE292E09093860136
:1014E00080938501E0913E02F0913F0290818091CE
:1014F0004002892B808361E08DE00E94D1010E942F
:1015000040024B015C0184E6C82ED12CE12CF12C69
:101510000E944002DC01CB0188199909AA09BB0984
:10152000883E9340A105B10558F081E0C81AD10862
:10153000E108F10828EE820E23E0921EA11CB11CE6
:10154000C114D104E104F10419F780916F008260A5
:1015500080936F000E94240280915E0290915F024E
:1015600020915C0230915D0240915A0250915B02E1
:1015700050934D0240934C0230934F0220934E0201
:101580009093510280935002809154020E940D0268
:1015900090935602809355020E947B01FDCF85E116
:1015A00091E090932C0280932B028BE292E00C94BA
:1015B0000B0397FB072E16F4009407D077FD09D094
:1015C0000E944C0B07FC05D03EF4909581959F4FEF
:1015D0000895709561957F4F0895A1E21A2EAA1B78
:1015E000BB1BFD010DC0AA1FBB1FEE1FFF1FA217D3
:1015F000B307E407F50720F0A21BB30BE40BF50BD0
:10160000661F771F881F991F1A9469F76095709558
:10161000809590959B01AC01BD01CF010895052EE9
:1016200097FB1EF400940E94260B57FD07D00E94E2
:10163000ED0A07FC03D04EF40C94260B5095409510
:10164000309521953F4F4F4F5F4F0895909580956E
:10165000709561957F4F8F4F9F4F08950E94360B75
:10166000332312F48A1B9B0B0C94470BA29FB001EF
:10167000B39FC001A39F700D811D1124911DB29FC6
:10168000700D811D1124911D08950E94360BB7FF26
:101690000895821B930B0895AA1BBB1B51E107C041
:1016A000AA1FBB1FA617B70710F0A61BB70B881FF2
:1016B000991F5A95A9F780959095BC01CD01089581
:1016C000EE0FFF1F0590F491E02D09940E94DA0BB4
:1016D00088F09F5798F0B92F9927B751B0F0E1F0F3
:1016E000660F771F881F991F1AF0BA95C9F714C0A3
:1016F000B13091F00E94F40BB1E008950C94F40B1A
:10170000672F782F8827B85F39F0B93FCCF38695DB
:1017100077956795B395D9F73EF490958095709538
:1017200061957F4F8F4F9F4F0895E89409C097FBB5
:101730003EF490958095709561957F4F8F4F9F4FA8
:101740009923A9F0F92F96E9BB279395F6958795EC
:1017500077956795B795F111F8CFFAF4BB0F11F4AF
:1017600060FF1BC06F5F7F4F8F4F9F4F16C0882356
:1017700011F096E911C0772321F09EE8872F762F8C
:1017800005C0662371F096E8862F70E060E02AF0CD
:101790009A95660F771F881FDAF7880F96958795B9
:1017A00097F9089557FD9058440F551F59F05F3F22
:1017B00071F04795880F97FB991F61F09F3F79F073
:1017C00087950895121613061406551FF2CF4695F5
:1017D000F1DF08C0161617061806991FF1CF869577
:1017E0007105610508940895E894BB27662777275B
:1017F000CB0197F9089519F416F40C944F0C0C943E
:10180000410C0E94DA0BB8F39923C9F3B6F39F5742
:10181000550B87FF0E94520C0024A0E640EA90017D
:1018200080585695979528F4805C660F771F881F1F
:1018300020F026173707480730F4621B730B840B20
:10184000202931294A2BA695179407942025312564
:101850004A2758F7660F771F881F20F0261737078B
:10186000480730F4620B730B840B200D311D411DB2
:10187000A09581F7B901842F9158880F9695879587
:1018800008959F3F31F0915020F4879577956795A3
:10189000B795880F911D9695879597F908959FEFB5
:1018A00080EC089591505040660F771F881FD2F743
:1018B000089581E090E0F8940C945E0C10E0C3E68B
:1018C000D0E004C0FE010E94600B2196C436D1070F
:0618D000C9F7F894FFCFF8
:1018D600FF0000000012018E00DB00B900CD0059A8
:1018E60001000000007E028E00D202EA0265027D3F
:0418F600020D0A00D5
:00000001FF
