:100000000C9464000C9478070C9451070C949F078F
:100010000C949F070C949F070C948C000C9453062F
:100020000C948C000C948C000C948C000C9419088B
:100030000C948C000C948C000C948C000C948C0010
:100040000C9407070C948C000C94D5060C94AF0606
:100050000C948C000C948C000C948C000C948C00F0
:100060000C948C000C948C000000000024002700ED
:100070002A0000000008000201000003040700003D
:100080000000000000000200000000250028002BF6
:1000900000000000002300260029000404040404DA
:1000A0000404040202020202020303030303030125
:1000B00002040810204080010204081020010204FC
:1000C000081020001709980B11241FBECFEFD8E0AD
:1000D000DEBFCDBF11E0A0E0B1E0E6E7FAE102C08B
:1000E00005900D92A832B107D9F722E0A8E2B1E05D
:1000F00001C01D92A437B207E1F710E0C3E6D0E0DB
:1001000004C02197FE010E94230DC236D107C9F712
:100110000E94460A0C942E0D0C940000E09192016E
:10012000F09193010190F081E02D682F82E991E038
:100130000994CF92DF92EF92FF920F931F93CF9388
:10014000DF936C017A018B01C0E0D0E0CE15DF05B2
:1001500089F0D8016D918D01D601ED91FC9101904E
:10016000F081E02DC6010995892B11F47E0102C0B2
:100170002196ECCFC701DF91CF911F910F91FF9096
:10018000EF90DF90CF900895FC01918D828D9817AC
:1001900061F0828DDF01A80FB11D5D968C91928D6B
:1001A0009F5F9F73928F90E008958FEF9FEF089568
:1001B000FC01918D828D981731F0828DE80FF11D31
:1001C000858D90E008958FEF9FEF0895FC01918D4C
:1001D000228D892F90E0805C9F4F821B91098F7345
:1001E0009927089582E991E00E94E60021E0892B99
:1001F00009F420E0822F0895FC01848DDF01A80F0F
:10020000B11DA35ABF4F2C91848D90E001968F733E
:100210009927848FA689B7892C93A089B1898C915D
:1002200080648C93938D848D981306C00288F38923
:10023000E02D80818F7D80830895EF92FF920F9350
:100240001F93CF93DF93EC0181E0888F9B8D8C8D82
:10025000981305C0E889F989808185FD24C0F62EB0
:100260000B8D10E00F5F1F4F0F731127E02E8C8D49
:10027000E8120CC00FB607FCFACFE889F989808133
:1002800085FFF5CFCE010E94FC00F1CF8B8DFE01E2
:10029000E80FF11DE35AFF4FF0820B8FEA89FB89CB
:1002A0008081806207C0EE89FF896083E889F989CF
:1002B00080818064808381E090E0DF91CF911F9105
:1002C0000F91FF90EF900895CF93DF93EC01888D0D
:1002D0008823C9F0EA89FB89808185FD05C0A8894A
:1002E000B9898C9186FD0FC00FB607FCF5CF8081D0
:1002F00085FFF2CFA889B9898C9185FFEDCFCE011A
:100300000E94FC00E7CFDF91CF91089580E090E05C
:10031000892B29F00E94F20081110C9400000895AD
:1003200090E0FC01EE58FF4F3491FC01E155FF4F86
:100330002491FC01E556FF4FE491EE2309F43BC004
:10034000332339F1333091F038F43130A9F03230C1
:1003500001F584B58F7D12C0373091F03830A1F0AF
:100360003430B9F4809180008F7D03C0809180008B
:100370008F77809380000DC084B58F7784BD09C0CE
:100380008091B0008F7703C08091B0008F7D809303
:10039000B000F0E0EE0FFF1FE957FF4FA591B491B9
:1003A0008FB7F894EC91611103C020952E2301C002
:1003B0002E2B2C938FBF089590910401981324C085
:1003C000E6E8F0E0E4919FEF90930401E130B9F0AA
:1003D00098F0E230C9F4909170009D7F9093700086
:1003E00091E09093B0009091B100987F94609093C9
:1003F000B1001092B30008C010926E0005C0909139
:100400006F009D7F90936F0060E00C949001CF93FC
:10041000DF9390E0FC01E155FF4F2491FC01E5568C
:10042000FF4F8491882361F190E0880F991FFC01B0
:10043000E859FF4FC591D491FC01E957FF4FA591B1
:10044000B491611109C09FB7F894888120958223E7
:100450008883EC912E230BC0623061F49FB7F8942F
:100460003881822F809583238883EC912E2B2C93C7
:100470009FBF06C08FB7F894E8812E2B28838FBFCB
:10048000DF91CF9108958E3008F08E508770806490
:1004900080937C0080917A00806480937A008091C0
:1004A0007A0086FDFCCF809178002091790090E061
:1004B000922B08950F931F93CF93DF9380E10E94B7
:1004C0004302EC018FE00E9443028C018EE00E9407
:1004D0004302EBE6F2E087549140918380830F540E
:1004E000114013830283CB55D140D583C483DF9160
:1004F000CF911F910F9108953FB7F8948091830198
:1005000090918401A0918501B091860126B5A89BA8
:1005100005C02F3F19F00196A11DB11D3FBFBA2F95
:10052000A92F982F8827820F911DA11DB11DBC01F5
:10053000CD0142E0660F771F881F991F4A95D1F7BA
:10054000089508952091890130918A01281739076B
:1005500071F49091870180918801981741F0E091A2
:100560008701F0E0E25CFE4F808190E008958FEF1C
:100570009FEF089508951F93CF93DF93DC015C965E
:100580002D913C915D972115310539F481E090E082
:1005900013969C938E9312973DC05196ED91FC91CA
:1005A000529750969C915097892F80951FB75E96D1
:1005B0004C915E9741FB772770F941FD6095F89467
:1005C0004081772311F0492B01C048234083E90182
:1005D0002197F1F748E0508160FF02C0592B01C01C
:1005E00058235083E9012197F1F76695415099F717
:1005F000772321F090818923808303C08081982B09
:1006000090831FBF5C968D919C915D970197F1F748
:1006100021E030E0C901DF91CF911F910895209131
:10062000890130918A012817390771F48091880176
:100630002091870190E0805C9F4F821B910960E4CC
:1006400070E00E949C0C089580E090E00895209155
:10065000890130918A0128173907B9F490918701EF
:1006600080918801981789F0E0918701F0E0E25CC1
:10067000FE4F80812091870130E02F5F3F4F2F7325
:1006800033272093870190E008958FEF9FEF08951F
:10069000E0918901F0918A01E817F90769F4A389CB
:1006A000B4899C918589809589238C9310928A01C5
:1006B0001092890181E0089580E008950F931F93BF
:1006C000CF93DF93809168020E94DC01EFE6F0E0B7
:1006D0008081826080830E945A020E945A020E9496
:1006E0005A020E945A02EBE6F2E08481958122814F
:1006F0003381CAE5D2E0408151815C834B833E83E4
:100700002D8398878F8305E612E0F80180810E948F
:1007100043024496F8019283818381E08883DF91CC
:10072000CF911F910F9108958F929F92AF92BF9298
:10073000CF92DF92EF92FF92CF93809069029090D8
:100740006A028091680290910401981721F09F3FFE
:1007500009F0E8C104C0E6E8F0E0C4917DC08093F0
:100760000401E6E8F0E0C491CF3F09F4DBC1C130F9
:1007700029F1C23009F449C0C1116EC014BC15BCC6
:1007800094B5926094BD95B5916095BD282F30E0E9
:10079000F901E556FF4FE491F0E0EE0FFF1FE95736
:1007A000FF4F459154915093350140933401F90125
:1007B000E155FF4FE491E093330150C01092800067
:1007C00010928100909181009860909381009091A7
:1007D0008100916090938100282F30E0F901E55667
:1007E000FF4FE491F0E0EE0FFF1FE957FF4F4591F7
:1007F00054915093320140933101F901E155FF4F7B
:10080000E491E0933001C1E029C01092B000109251
:10081000B1009091B00092609093B0009091B100BF
:1008200091609093B100282F30E0F901E556FF4F19
:10083000E491F0E0EE0FFF1FE957FF4F459154910F
:1008400050938C0140938B01F901E155FF4FE491E6
:10085000E0938D01C2E002C0C7FD64C161E00E9467
:100860000702A12CB12C8C2F8D7F09F0A0C060E075
:1008700072E18AE790E0A50194010E94D20C69011F
:100880007A01DA01C9010197A109B1098F3F9105E8
:10089000A105B10509F008F442C060E472E48FE0FC
:1008A00090E0A50194010E94D20CDA01C9010197E0
:1008B000A109B109C230E1F48F3F9105A105B1054D
:1008C00009F008F42DC160E970ED83E090E0A50126
:1008D00094010E94D20CDA01C9010197A109B10962
:1008E0008F3F9105A105B10509F088F523E058C0B7
:1008F0008F3F9105A105B105A1F098F068E478EE6D
:1009000081E090E0A50194010E94D20CDA01C901B6
:100910000197A109B109CC2309F4B6C0F9C021E0BF
:1009200001C022E0CC2371F03BC0D701C6012AE010
:10093000B595A795979587952A95D1F70197A10920
:10094000B10925E035B5387F232B25BD61C068E4AA
:1009500078EE81E090E0A50194010E94D20CDA01CA
:10096000C9010197A109B1098F3F9105A105B10501
:1009700009F008F487C064E274EF80E090E0A5011C
:1009800094010E94D20CDA01C9010197A109B109B1
:100990008F3F9105A105B10511F008F093C025E046
:1009A0003091B100387F232B2093B1002BC060E041
:1009B00072E18AE790E0A50194010E94D20CDA016D
:1009C000C9010197A109B109009721E0A207B1056A
:1009D00078F068E478EE81E090E0A50194010E944F
:1009E000D20CDA01C9010197A109B10933E001C0B4
:1009F00031E0C13039F420918100287F232B2093EE
:100A0000810018C0C130B1F0C23049F1C1118AC0B3
:100A100087BD8FEF9FEFDC0180933A0190933B01FC
:100A2000A0933C01B0933D0180916E008260809361
:100A30006E0078C090938900809388008FEF9FEFBD
:100A4000DC018093360190933701A0933801B09375
:100A5000390180916F00826080936F0063C0809342
:100A6000B3008FEF9FEFDC0180938E0190938F0195
:100A7000A0939001B0939101809170008260809367
:100A8000700050C024E08CCF8F3F9105A105B105C7
:100A9000B9F0B0F062E17AE780E090E0A50194015E
:100AA0000E94D20CDA01C9010197A109B1098F3F57
:100AB0009105A105B10511F008F037CF24E042CF30
:100AC00023E040CF62E17AE780E090E0A501940165
:100AD0000E94D20CDA01C9010197A109B1098F3F27
:100AE0009105A105B10591F088F0D701C6013AE062
:100AF000B595A795979587953A95D1F70197A1094F
:100B0000B109CC2309F41DCF27E04ACF26E00ACF54
:100B10008F3F9105A105B10509F0A0F624E002CFB1
:100B200022E03ECFCF91FF90EF90DF90CF90BF902B
:100B3000AF909F908F9008958F929F92AF92BF92A7
:100B40000F931F93CF93DF93CDB7DEB7A1970FB667
:100B5000F894DEBF0FBECDBF19A2423008F44AE0C0
:100B60008E010F5D1F4F842E912CA12CB12CA5015D
:100B700094010E94B00CE62FB901CA01015011097D
:100B8000EA3014F4E05D01C0E95CD801EC93232B5A
:100B9000242B252B61F70115110571F0F801019047
:100BA0000020E9F73197AF01401B510BB80182E9F2
:100BB00091E00E94990002C080E090E0A1960FB6FB
:100BC000F894DEBF0FBECDBFDF91CF911F910F9183
:100BD000BF90AF909F908F900895CF92DF92EF9249
:100BE000FF92CF93DF936C01990FEE08FF08F7FE99
:100BF00017C08DE20E948E00EC0166277727CB019B
:100C00006C197D098E099F094AE00E949C058C0F92
:100C10009D1FDF91CF91FF90EF90DF90CF900895CF
:100C20004AE0C701B601DF91CF91FF90EF90DF90CE
:100C3000CF900C949C050E94290D8F929F92AF92A9
:100C4000BF92CF92DF92EF92FF92FC01E080F180A1
:100C5000A281B381448155819D010E94F10C4B0119
:100C60005C019701D7010E94F10C75016401C60E69
:100C7000D71EE81EF91E9A01DA010E94F10C6C0DD4
:100C80007D1D8E1D9F1D0E94D80B0E94440C0E944A
:100C9000A20BCB01FF90EF90DF90CF90BF90AF9071
:100CA0009F908F9008951F920F920FB60F9211246C
:100CB0002F933F934F935F936F937F938F939F9364
:100CC000AF93BF93EF93FF9380918E0190918F012B
:100CD000A0919001B0919101892B8A2B8B2B51F11E
:100CE00080918D01E0918B01F0918C019081892799
:100CF000808380918E0190918F01A0919001B0919D
:100D00009101181619061A061B06C4F480918E016B
:100D100090918F01A0919001B09191010197A1094B
:100D2000B10980938E0190938F01A0939001B093AD
:100D3000910104C0809104010E94DC01FF91EF91B8
:100D4000BF91AF919F918F917F916F915F914F91E3
:100D50003F912F910F900FBE0F901F9018951F92EB
:100D60000F920FB60F9211242F933F934F935F93DF
:100D70006F937F938F939F93AF93BF93EF93FF9363
:100D800082E991E00E94FC00FF91EF91BF91AF9149
:100D90009F918F917F916F915F914F913F912F9193
:100DA0000F900FBE0F901F9018951F920F920FB6C5
:100DB0000F9211242F938F939F93EF93FF93E091C2
:100DC000A201F091A3018081E091A801F091A90115
:100DD00082FD12C090818091AB018F5F8F73209153
:100DE000AC01821751F0E091AB01F0E0EE56FE4FFE
:100DF000958F8093AB0101C08081FF91EF919F910E
:100E00008F912F910F900FBE0F901F9018951F92EA
:100E10000F920FB60F9211242F933F938F939F93AE
:100E2000AF93BF9380917F0190918001A091810148
:100E3000B091820130917E0123E0230F2D3720F401
:100E40000196A11DB11D05C026E8230F0296A11D24
:100E5000B11D20937E0180937F0190938001A09328
:100E60008101B09382018091830190918401A091CE
:100E70008501B09186010196A11DB11D809383016A
:100E800090938401A0938501B0938601BF91AF91A7
:100E90009F918F913F912F910F900FBE0F901F90B8
:100EA00018951F920F920FB60F9211242F933F9314
:100EB0004F935F936F937F938F939F93AF93BF9362
:100EC000EF93FF93E0910201F09103010995FF91E7
:100ED000EF91BF91AF919F918F917F916F915F91B2
:100EE0004F913F912F910F900FBE0F901F9018952B
:100EF0001F920F920FB60F9211242F933F934F938F
:100F00005F936F937F938F939F93AF93BF93EF9371
:100F1000FF93E0910001F09101010995FF91EF919C
:100F2000BF91AF919F918F917F916F915F914F9101
:100F30003F912F910F900FBE0F901F9018951F9209
:100F40000F920FB60F9211242F933F934F935F93FD
:100F50006F937F938F939F93AF93BF93EF93FF9381
:100F6000E0918901F0918A01309709F451C0968D82
:100F7000A685B785858591FF04C09C91892329F4B6
:100F800047C09C91892309F043C0A389B4899C91EF
:100F90008589809589238C93868997890197F1F7B4
:100FA000608D718DA685B785558538E020E0CB0131
:100FB0000197F1F7822F90E095958795282F4C9116
:100FC000452309F02068315091F7868D81FD2095E9
:100FD0008091880190E001968F7399273091870165
:100FE000381749F0A0918801B0E0A25CBE4F2C9365
:100FF0008093880103C0868D8160868F828D938D5A
:101000000197F1F7A389B4899C918589892B8C93E9
:10101000FF91EF91BF91AF919F918F917F916F91D0
:101020005F914F913F912F910F900FBE0F901F90A6
:1010300018951F920F920FB60F921124CF92DF9244
:10104000EF92FF920F931F932F933F934F935F93D2
:101050006F937F938F939F93AF93BF93EF93FF9380
:101060002FB7F89480917F0190918001A091810128
:10107000B09182012FBF80932C0190932D01A093FA
:101080002E01B0932F0140912801509129016091C8
:101090002A0170912B018C019D01041B150B260B5D
:1010A000370B053611052105310508F4A9C08093D9
:1010B000280190932901A0932A01B0932B010E944B
:1010C0005A0220916F023091700240916D0250914E
:1010D0006E0280916B0290916C0290935502809306
:1010E0005402509357024093560230935902209372
:1010F00058020E94ED0589E00E948E008091560200
:10110000909157020E94ED0589E00E948E00809127
:101110005802909159020E94ED0589E00E948E00CC
:101120008EE492E00E941D067C0184E592E00E941C
:101130001D069701281B390BC9010E94ED0589E0A6
:101140000E948E0084E592E00E941D060E94ED053B
:1011500089E00E948E0083E10E9443026C01990F96
:10116000EE08FF08F7FE0CC08DE20E948E00662795
:101170007727CB016C197D098E099F094AE003C0CE
:101180004AE0C701B6010E949C0542E050E065E2DA
:1011900071E082E991E00E94990084E592E00E946A
:1011A0001D067C018EE492E00E941D0620915B02E8
:1011B00030915C02AC01421B530BE416F506D0F0F3
:1011C000280F391F2E153F05A8F0E0906602F09019
:1011D0006702809165020E944302E816F90650F00A
:1011E00086E0E4E5F2E0AEE4B2E001900D928A958B
:1011F000E1F706C0E0916302F09164020995F0CF37
:10120000FF91EF91BF91AF919F918F917F916F91DE
:101210005F914F913F912F911F910F91FF90EF9010
:10122000DF90CF900F900FBE0F901F901895CF9228
:10123000DF92EF92FF92109295011092940198EE36
:10124000C92E93E0D92EE12CF12CC0929601D092B8
:101250009701E0929801F092990189E091E09093D2
:1012600093018093920185EC90E090939F0180938D
:101270009E0184EC90E09093A1018093A00180EC0A
:1012800090E09093A3018093A20181EC90E0909371
:10129000A5018093A40182EC90E09093A701809334
:1012A000A60186EC90E09093A9018093A80110928A
:1012B000AB011092AC011092AD011092AE011092F0
:1012C0006C0210926B0210926E0210926D021092DC
:1012D000700210926F0280E18093710281E180932D
:1012E000720282E1809373028CE08093680288EE40
:1012F00090E090936A028093690261E08CE00E9422
:10130000070283E18093650262E00E940702109267
:101310005A028AE090E090935C0280935B02109204
:101320005E0210925D021092600210925F021092B3
:1013300062021092610284E993E0909364028093C8
:101340006302F894109280001092810088E09DE37F
:1013500090938900809388008091810088608093B9
:101360008100809181008460809381008091810060
:1013700081608093810080916F008D7F80936F00EA
:1013800078941092550210925402109257021092C3
:101390005602109259021092580210924F02109267
:1013A0004E0210925102109250021092530210926B
:1013B00052021092320210923102C0923302D09245
:1013C0003402E0923502F092360289E191E0909386
:1013D000300280932F021092460210924502109222
:1013E00048021092470210924A021092490210924B
:1013F0004C0210924B0260914D026E7F6D7F6093A4
:101400004D026695617081E0682785E00E94900139
:1014100061E085E00E940702E4EBF0E0E491E093F4
:101420003F02E0EAF0E0E491F0E0EE0FFF1FE95741
:10143000FF4F85919491909341028093400260E028
:1014400084E00E94070280914D0281FD04C061E0AA
:1014500084E00E94900184E080933B02E3EBF0E0A3
:10146000E491E0933C02EFE9F0E0E491F0E0EE0F6C
:10147000FF1FEF56FF4F8591949190933E0280930A
:101480003D02FF90EF90DF90CF900895789484B55F
:10149000826084BD84B5816084BD85B5826085BD70
:1014A00085B5816085BD80916E00816080936E00FE
:1014B00010928100809181008260809381008091F0
:1014C00081008160809381008091800081608093A1
:1014D00080008091B10084608093B1008091B00061
:1014E00081608093B00080917A00846080937A005C
:1014F00080917A00826080937A0080917A00816086
:1015000080937A0080917A00806880937A001092AC
:10151000C100E091A201F091A30182E08083E091FB
:101520009E01F0919F011082E091A001F091A10134
:1015300080E180831092AA01E091A601F091A701B9
:1015400086E08083E091A401F091A5018081806113
:101550008083E091A401F091A5018081886080835F
:10156000E091A401F091A501808180688083E091E1
:10157000A401F091A50180818F7D808310924A02A1
:1015800010924902109248021092470210924602AD
:10159000109245028DE991E090934C0280934B02AA
:1015A00090913B02963108F057C02DEB30E030931C
:1015B0004602209345022BE931E030934802209304
:1015C00047022CE231E030934A02209349022091F5
:1015D0006800983050F031E09E3008F430E081E04F
:1015E00001C0880F3A95EAF701C084E0822B80930E
:1015F0006800983038F09E3040F0963148F020E096
:1016000030E008C02DE630E005C02BE630E002C037
:101610002CE630E03093430220934202983030F4BD
:1016200081E001C0880F9A95EAF70EC0292F30E0BB
:101630009E3018F42850310902C02E50310981E043
:1016400001C0880F2A95EAF78093440280914B02EB
:1016500090914C020197F1F78091490290914A02D2
:10166000892B21F18091890190918A0122E08F32AA
:101670009207E1F0009711F00E94480380914D021B
:101680008E7F80934D0210928801109287018FE225
:1016900092E090938A0180938901E0914202F09157
:1016A0004302908180914402892B808361E08DE028
:1016B0000E94070262E082E00E9407028EE593E04A
:1016C0009093010180930001809169008C7F82607A
:1016D00080936900E89A0E947C024B015C0184E6D9
:1016E000C82ED12CE12CF12C0E947C02DC01CB0114
:1016F00088199909AA09BB09883E9340A105B1053B
:1017000058F081E0C81AD108E108F10828EE820EED
:1017100023E0921EA11CB11CC114D104E104F10408
:1017200019F78FE292E00E940F030E948601F9CF21
:1017300089E191E09093300280932F028FE292E052
:101740000C9448030E94A90B6894B1110C94380CB6
:1017500008950E941D0C88F09F5798F0B92F992783
:10176000B751B0F0E1F0660F771F881F991F1AF08C
:10177000BA95C9F714C0B13091F00E94370CB1E0AE
:1017800008950C94370C672F782F8827B85F39F0AD
:10179000B93FCCF3869577956795B395D9F73EF425
:1017A00090958095709561957F4F8F4F9F4F0895CD
:1017B000E89409C097FB3EF49095809570956195EB
:1017C0007F4F8F4F9F4F9923A9F0F92F96E9BB27A1
:1017D0009395F695879577956795B795F111F8CF1D
:1017E000FAF4BB0F11F460FF1BC06F5F7F4F8F4F88
:1017F0009F4F16C0882311F096E911C0772321F07E
:101800009EE8872F762F05C0662371F096E8862F15
:1018100070E060E02AF09A95660F771F881FDAF76C
:10182000880F9695879597F9089557FD9058440F1E
:10183000551F59F05F3F71F04795880F97FB991F2F
:1018400061F09F3F79F087950895121613061406EC
:10185000551FF2CF4695F1DF08C016161706180679
:10186000991FF1CF86957105610508940895E89454
:10187000BB2766277727CB0197F9089519F416F44B
:101880000C94920C0C94840C0E941D0CB8F39923B8
:10189000C9F3B6F39F57550B87FF0E94950C0024A0
:1018A000A0E640EA900180585695979528F4805C10
:1018B000660F771F881F20F026173707480730F478
:1018C000621B730B840B202931294A2BA695179490
:1018D0000794202531254A2758F7660F771F881F60
:1018E00020F026173707480730F4620B730B840B80
:1018F000200D311D411DA09581F7B901842F91580C
:10190000880F9695879508959F3F31F0915020F468
:10191000879577956795B795880F911D96958795CB
:1019200097F908959FEF80EC089591505040660F0D
:10193000771F881FD2F7089597FB072E16F400949F
:1019400007D077FD09D00E940F0D07FC05D03EF4AB
:10195000909581959F4F0895709561957F4F08955B
:10196000A1E21A2EAA1BBB1BFD010DC0AA1FBB1FA3
:10197000EE1FFF1FA217B307E407F50720F0A21B15
:10198000B30BE40BF50B661F771F881F991F1A9482
:1019900069F760957095809590959B01AC01BD01AC
:1019A000CF010895052E97FB1EF400940E94E90CC8
:1019B00057FD07D00E94B00C07FC03D04EF40C94E6
:1019C000E90C50954095309521953F4F4F4F5F4F13
:1019D000089590958095709561957F4F8F4F9F4F9B
:1019E00008950E94F90C332312F48A1B9B0B0C946C
:1019F0000A0DA29FB001B39FC001A39F700D811D6E
:101A00001124911DB29F700D811D1124911D089507
:101A10000E94F90CB7FF0895821B930B0895AA1B2F
:101A2000BB1B51E107C0AA1FBB1FA617B70710F0C9
:101A3000A61BB70B881F991F5A95A9F780959095FB
:101A4000BC01CD010895EE0FFF1F0590F491E02D2C
:101A5000099481E090E0F8940C942E0D10E0C3E618
:101A6000D0E004C0FE010E94230D2196C436D107A8
:061A7000C9F7F894FFCF56
:101A7600A102A102FF000000001D019900E600C4BA
:101A860000D800640100000000BB0299000F032784
:081A960003A202BA020D0A00CE
:107E0000112484B714BE81FFF0D085E080938100F7
:107E100082E08093C00088E18093C10086E0809377
:107E2000C20080E18093C4008EE0C9D0259A86E02C
:107E300020E33CEF91E0309385002093840096BBD3
:107E4000B09BFECF1D9AA8958150A9F7CC24DD24C4
:107E500088248394B5E0AB2EA1E19A2EF3E0BF2EE7
:107E6000A2D0813461F49FD0082FAFD0023811F036
:107E7000013811F484E001C083E08DD089C08234E0
:107E800011F484E103C0853419F485E0A6D080C0E4
:107E9000853579F488D0E82EFF2485D0082F10E0AE
:107EA000102F00270E291F29000F111F8ED06801E7
:107EB0006FC0863521F484E090D080E0DECF843638
:107EC00009F040C070D06FD0082F6DD080E0C81688
:107ED00080E7D80618F4F601B7BEE895C0E0D1E017
:107EE00062D089930C17E1F7F0E0CF16F0E7DF06D8
:107EF00018F0F601B7BEE89568D007B600FCFDCFD4
:107F0000A601A0E0B1E02C9130E011968C91119780
:107F100090E0982F8827822B932B1296FA010C0160
:107F200087BEE89511244E5F5F4FF1E0A038BF0790
:107F300051F7F601A7BEE89507B600FCFDCF97BE46
:107F4000E89526C08437B1F42ED02DD0F82E2BD052
:107F50003CD0F601EF2C8F010F5F1F4F84911BD097
:107F6000EA94F801C1F70894C11CD11CFA94CF0C13
:107F7000D11C0EC0853739F428D08EE10CD085E9AC
:107F80000AD08FE07ACF813511F488E018D01DD067
:107F900080E101D065CF982F8091C00085FFFCCF94
:107FA0009093C60008958091C00087FFFCCF809118
:107FB000C00084FD01C0A8958091C6000895E0E648
:107FC000F0E098E1908380830895EDDF803219F02E
:107FD00088E0F5DFFFCF84E1DECF1F93182FE3DFCA
:107FE0001150E9F7F2DF1F91089580E0E8DFEE27F6
:047FF000FF270994CA
:027FFE00040479
:0400000300007E007B
:00000001FF