:100000000C9464000C94F5040C94CE040C941C0520
:100010000C941C050C941C050C948C000C945F0D26
:100020000C948C000C948C000C948C000C94DA06CC
:100030000C948C000C948C000C948C000C948C0010
:100040000C9484040C948C000C94E10D0C94BB0D66
:100050000C948C000C948C000C948C000C948C00F0
:100060000C94AC050C948C000000000024002700C8
:100070002A0000000008000201000003040700003D
:100080000000000000000200000000250028002BF6
:1000900000000000002300260029000404040404DA
:1000A0000404040202020202020303030303030125
:1000B00002040810204080010204081020010204FC
:1000C000081020001D0E130E11241FBECFEFD8E024
:1000D000DEBFCDBF11E0A0E0B1E0EAE2F8E202C08D
:1000E00005900D92A439B107D9F723E0A4E9B1E056
:1000F00001C01D92A937B207E1F710E0C3E6D0E0D6
:1001000004C02197FE010E945F11C236D107C9F7D2
:100110000E949A0F0C9408140C94000008952091EA
:100120006402309165022817390771F490916202D8
:1001300080916302981741F0E0916202F0E0E75E7F
:10014000FD4F808190E008958FEF9FEF089508950F
:100150001F93CF93DF93DC015C962D913C915D97CB
:100160002115310539F481E090E013969C938E932C
:1001700012973DC05196ED91FC91529750969C91EB
:100180005097892F80951FB75E964C915E9741FBE3
:10019000772770F941FD6095F8944081772311F03D
:1001A000492B01C048234083E9012197F1F748E03A
:1001B000508160FF02C0592B01C058235083E901D0
:1001C0002197F1F76695415099F7772321F09081B7
:1001D0008923808303C08081982B90831FBF5C9606
:1001E0008D919C915D970197F1F721E030E0C90175
:1001F000DF91CF911F9108952091640230916502A3
:100200002817390771F4809163022091620290E00F
:10021000805C9F4F821B910960E470E00E94F610A1
:10022000089580E090E00895209164023091650285
:1002300028173907B9F490916202809163029817E8
:1002400089F0E0916202F0E0E75EFD4F808120914D
:10025000620230E02F5F3F4F2F73332720936202FB
:1002600090E008958FEF9FEF089585ED8093BC0097
:100270008091BC0084FDFCCF1092F3010895409161
:10028000CD01262F30E0240F311D21323105DCF461
:100290002091F3012430C9F4FC0180E090E086173E
:1002A00058F43091CD012191DC01A555BE4FA30F2B
:1002B000B11D2C930196F3CF8091CD01680F60930F
:1002C000CD0180E0089581E0089582E008950895C9
:1002D0008FEF9FEF08958FEF9FEF08958091AA0110
:1002E00090E09195819591090895CF93DF9300D087
:1002F000CDB7DEB7CB01642F49835A830E943F01FB
:100300004981842F5A81952F0F900F90DF91CF91C3
:100310000895CF93DF931F92CDB7DEB7698361E075
:10032000CE0101960E943F0181E090E00F90DF91A5
:10033000CF9108950E94031485E391E00E94CA0AB8
:1003400080914F030E94340D85E491E00E94CA0A17
:100350000C94C60B80914F030E94340D85E491E00C
:100360000C94CA0A90E0FC01EE58FF4F3491FC0156
:10037000E155FF4F2491FC01E556FF4FE491EE2338
:1003800009F43BC0332339F1333091F038F4313084
:10039000A9F0323001F584B58F7D12C0373091F06D
:1003A0003830A1F03430B9F4809180008F7D03C0E3
:1003B000809180008F77809380000DC084B58F7707
:1003C00084BD09C08091B0008F7703C08091B000D8
:1003D0008F7D8093B000F0E0EE0FFF1FE957FF4FD5
:1003E000A591B4918FB7F894EC91611103C0209559
:1003F0002E2301C02E2B2C938FBF0895CF93DF9314
:1004000090E0FC01E155FF4F2491FC01E556FF4FC0
:100410008491882361F190E0880F991FFC01E859CD
:10042000FF4FC591D491FC01E957FF4FA591B491BD
:10043000611109C09FB7F894888120958223888331
:10044000EC912E230BC0623061F49FB7F894388191
:10045000822F809583238883EC912E2B2C939FBF32
:1004600006C08FB7F894E8812E2B28838FBFDF91C9
:10047000CF9108958F929F92AF92BF92CF92DF92C9
:10048000EF92FF92CF938090500390905103809110
:100490004F0390910401981721F09F3F09F097C1F5
:1004A00004C0E6E8F0E0C4917DC080930401E6E872
:1004B000F0E0C491CF3F09F48AC1C13029F1C230C4
:1004C00009F449C0C1116EC014BC15BC94B592604A
:1004D00094BD95B5916095BD282F30E0F901E556A2
:1004E000FF4FE491F0E0EE0FFF1FE957FF4F4591FA
:1004F00054915093A1014093A001F901E155FF4FA0
:10050000E491E0939F0150C010928000109281000E
:10051000909181009860909381009091810091600A
:1005200090938100282F30E0F901E556FF4FE491C8
:10053000F0E0EE0FFF1FE957FF4F459154915093A4
:100540009E0140939D01F901E155FF4FE491E09335
:100550009C01C1E029C01092B0001092B1009091AE
:10056000B00092609093B0009091B1009160909330
:10057000B100282F30E0F901E556FF4FE491F0E09B
:10058000EE0FFF1FE957FF4F4591549150936702BB
:1005900040936602F901E155FF4FE491E093680250
:1005A000C2E002C0C7FD13C161E00E94FE01A12CA0
:1005B000B12C8C2F8D7F09F0A0C060E072E18AE73A
:1005C00090E0A50194010E942C1169017A01DA01E1
:1005D000C9010197A109B1098F3F9105A105B10595
:1005E00009F008F442C060E472E48FE090E0A501F5
:1005F00094010E942C11DA01C9010197A109B109E6
:10060000C230E1F48F3F9105A105B10509F008F46E
:100610003DC160E970ED83E090E0A50194010E9486
:100620002C11DA01C9010197A109B1098F3F910588
:10063000A105B10509F088F523E058C08F3F910569
:10064000A105B105A1F098F068E478EE81E090E0B2
:10065000A50194010E942C11DA01C9010197A10999
:10066000B109CC2309F4C6C009C121E001C022E0D0
:10067000CC2371F03BC0D701C6012AE0B595A79500
:10068000979587952A95D1F70197A109B10925E09A
:1006900035B5387F232B25BD61C068E478EE81E055
:1006A00090E0A50194010E942C11DA01C901019783
:1006B000A109B1098F3F9105A105B10509F008F421
:1006C00097C064E274EF80E090E0A50194010E947D
:1006D0002C11DA01C9010197A109B1098F3F9105D8
:1006E000A105B10511F008F0A3C025E03091B100DB
:1006F000387F232B2093B1002BC060E072E18AE7A2
:1007000090E0A50194010E942C11DA01C901019722
:10071000A109B109009721E0A207B10578F068E4CA
:1007200078EE81E090E0A50194010E942C11DA019D
:10073000C9010197A109B10933E001C031E0C1301D
:1007400039F420918100287F232B2093810018C049
:10075000C130B1F0C23049F1C11139C087BD8FEF4E
:100760009FEFDC018093A6019093A701A093A801BD
:10077000B093A90180916E00826080936E0027C0C3
:1007800090938900809388008FEF9FEFDC01809326
:10079000A2019093A301A093A401B093A50180911D
:1007A0006F00826080936F0012C08093B3008FEF60
:1007B0009FEFDC018093690290936A02A0936B0221
:1007C000B0936C0280917000826080937000809181
:1007D0006F008D7F80936F0010923503CF91FF9053
:1007E000EF90DF90CF90BF90AF909F908F90089543
:1007F00024E07CCF8F3F9105A105B105B9F0B0F0A1
:1008000062E17AE780E090E0A50194010E942C115A
:10081000DA01C9010197A109B1098F3F9105A1052D
:10082000B10511F008F027CF24E032CF23E030CF1C
:1008300062E17AE780E090E0A50194010E942C112A
:10084000DA01C9010197A109B1098F3F9105A105FD
:10085000B10591F088F0D701C6013AE0B595A795AA
:10086000979587953A95D1F70197A109B109CC23BE
:1008700009F40DCF27E03ACF26E0FACE8F3F91055D
:10088000A105B10509F0A0F624E0F2CE22E02ECFBA
:100890008E3008F08E508770806480937C00809149
:1008A0007A00806480937A0080917A0086FDFCCF84
:1008B000809178002091790090E0922B08953FB7C5
:1008C000F89480915E0290915F02A0916002B091D5
:1008D000610226B5A89B05C02F3F19F00196A11D06
:1008E000B11D3FBFBA2FA92F982F8827820F911DC6
:1008F000A11DB11DBC01CD0142E0660F771F881F0D
:10090000991F4A95D1F708951F920F920FB60F9233
:1009100011242F933F938F939F93AF93BF93809115
:100920005A0290915B02A0915C02B0915D023091FD
:10093000590223E0230F2D3720F40196A11DB11D8C
:1009400005C026E8230F0296A11DB11D2093590270
:1009500080935A0290935B02A0935C02B0935D0275
:1009600080915E0290915F02A0916002B09161025D
:100970000196A11DB11D80935E0290935F02A0932A
:100980006002B0936102BF91AF919F918F913F91AF
:100990002F910F900FBE0F901F9018951F920F92DE
:1009A0000FB60F9211242F933F934F935F936F9342
:1009B0007F938F939F93AF93BF93EF93FF93E091B8
:1009C0000201F09103010995FF91EF91BF91AF9161
:1009D0009F918F917F916F915F914F913F912F9157
:1009E0000F900FBE0F901F9018951F920F920FB689
:1009F0000F9211242F933F934F935F936F937F93A5
:100A00008F939F93AF93BF93EF93FF93E091000178
:100A1000F09101010995FF91EF91BF91AF919F91E5
:100A20008F917F916F915F914F913F912F910F9097
:100A30000FBE0F901F9018951F920F920FB60F9236
:100A400011242F933F934F935F936F937F938F93D3
:100A50009F93AF93BF93EF93FF93E0916402F09164
:100A60006502309709F451C0968DA685B7858585B6
:100A700091FF04C09C91892329F447C09C9189234C
:100A800009F043C0A389B4899C9185898095892305
:100A90008C93868997890197F1F7608D718DA68572
:100AA000B785558538E020E0CB010197F1F7822F1B
:100AB00090E095958795282F4C91452309F0206863
:100AC000315091F7868D81FD20958091630290E0F1
:100AD00001968F73992730916202381749F0A091DF
:100AE0006302B0E0A75EBD4F2C938093630203C006
:100AF000868D8160868F828D938D0197F1F7A38912
:100B0000B4899C918589892B8C93FF91EF91BF913A
:100B1000AF919F918F917F916F915F914F913F9195
:100B20002F910F900FBE0F901F901895E0916402C7
:100B3000F0916502E817F90769F4A389B4899C91DB
:100B40008589809589238C931092650210926402A6
:100B500081E0089580E008951F920F920FB60F92E2
:100B600011242F933F934F935F936F937F938F93B2
:100B70009F93AF93BF93EF93FF938091B900887FCA
:100B8000803609F49CC068F5883209F45BC090F4A3
:100B9000803109F454C038F4882309F4F6C0883051
:100BA00009F44DC0F6C0883109F44CC0803209F414
:100BB0005DC0EFC0803409F468C048F4803309F4A4
:100BC00055C0883309F0E5C08093F201D8C0803564
:100BD00009F44FC0883509F45DC0883409F0D9C0E4
:100BE000D6C0883909F4C7C0A8F4883709F467C0AB
:100BF00038F4883609F463C0803709F460C0C9C08E
:100C0000883809F4B8C0803909F45FC0803809F029
:100C1000C0C05BC0803B09F486C038F4803A09F458
:100C200066C0883A09F47FC0B4C0803C09F4A7C00C
:100C3000883C09F4A4C0883B09F48AC0AAC080910A
:100C4000180210C09091170280911602981770F543
:100C5000E091170281E08E0F80931702F0E0EA50D6
:100C6000FE4F80818093BB0085EC86C08093F201AB
:100C70008EC0E091170281E08E0F80931702809161
:100C8000BB00F0E0EA50FE4F808390911702809104
:100C900016026EC0E091170281E08E0F809317025A
:100CA0008091BB00F0E0EA50FE4F80838091F50117
:100CB00081116DC081E08093F40184EA61C083E01A
:100CC0008093F3011092F101CFCF8091F101803236
:100CD00008F051C0E091F10181E08E0F8093F101A5
:100CE0008091BB00F0E0EF52FE4F8083BDCF85ECDA
:100CF0008093BC001092F3018091F101803230F4B6
:100D0000E091F101F0E0EF52FE4F10826091F101AD
:100D100070E0E091CF01F091D00181ED91E0099573
:100D20001092F10136C084E08093F3011092CE015D
:100D30001092CD01E091CB01F091CC010995809109
:100D4000CD01811105C081E08093CD011092AB01EE
:100D5000E091CE0181E08E0F8093CE01F0E0E55569
:100D6000FE4F80818093BB009091CE018091CD0198
:100D7000981708F479CF85E88093BC000AC085EC09
:100D80008093BC001092F30104C01092F2010E9403
:100D90003501FF91EF91BF91AF919F918F917F911D
:100DA0006F915F914F913F912F910F900FBE0F90D8
:100DB0001F9018951F920F920FB60F9211244F9209
:100DC0005F926F927F928F929F92AF92BF92CF92DB
:100DD000DF92EF92FF920F931F932F933F934F93C6
:100DE0005F936F937F938F939F93AF93BF93EF9393
:100DF000FF93CF93DF9300D000D0CDB7DEB72FB7EE
:100E0000F89480915A0290915B02A0915C02B0919B
:100E10005D022FBF8093980190939901A0939A014E
:100E2000B0939B014091940150919501609196017E
:100E3000709197018C019D01041B150B260B370B3C
:100E4000053611052105310508F476C28093940119
:100E500090939501A0939601B09397010E94D80AB0
:100E60004091560350915703609158037091590374
:100E700080915A0390915B03A0915C03B0915D0354
:100E8000C0905203D0905303E0905403F090550368
:100E9000C0922903D0922A03E0922B03F0922C03F4
:100EA00040932D0350932E0360932F0370933003D0
:100EB0008093310390933203A0933303B0933403B0
:100EC00082E10E944804BC01990F880B990B0E9493
:100ED000811220E030E040EA50E40E94361320E026
:100EE00030EC4FE754E40E94D71120E030E0A90134
:100EF0000E94661160933603709337038093380322
:100F00009093390383E10E944804BC01990F880B38
:100F1000990B0E94811220E030E046E953E40E94E0
:100F2000361320E030EC4FE754E40E94D71120E064
:100F300030E0A9010E9466110E94491270934C038F
:100F400060934B032091290330912A0340912B0396
:100F500050912C0360913A0370913B0380913C03C4
:100F600090913D030E94651142E00E94600C89E06F
:100F70000E94550C20912D0330912E0340912F0398
:100F80005091300360913E0370913F038091400384
:100F9000909141030E94651142E00E94600C89E03B
:100FA0000E94550C2091310330913203409133035C
:100FB0005091340360914203709143038091440344
:100FC000909145030E94651142E00E94600C89E007
:100FD0000E94550C60913A0370913B0380913C0351
:100FE00090913D0380903E0390903F03A09040037A
:100FF000B0904103C0904203D0904303E09044037B
:10100000F09045039B01AC010E9436132B013C017B
:10101000A5019401C501B4010E9436139B01AC01E6
:10102000C301B2010E9466114B015C01A701960148
:10103000C701B6010E9436139B01AC01C501B40182
:101040000E9466110E94A91369837A838B839C8313
:101050006091290370912A0380912B0390912C03B6
:10106000C0902D03D0902E03E0902F03F09030031A
:101070008090310390903203A0903303B0903403FA
:101080009B01AC010E9436132B013C01A701960184
:10109000C701B6010E9436139B01AC01C301B20126
:1010A0000E9466116B017C01A5019401C501B40188
:1010B0000E9436139B01AC01C701B6010E94661164
:1010C0000E94A9139B01AC0169817A818B819C816B
:1010D0000E94651142E00E94600C89E00E94550C5C
:1010E00060913603709137038091380390913903F2
:1010F00042E00E94600C89E00E94550C83E10E944E
:101100004804BC01990F880B990B0E94811220E0C2
:1011100030E046E953E40E94361320E030EC4FE71C
:1011200054E40E94D71120E030E0A9010E9466112A
:1011300042E00E94600C89E00E94550CE0904B0355
:10114000F0904C0380914A030E94480420914D0383
:1011500030914E03821B930B9C0161E070E080E0B4
:1011600090E0E216F3061CF060E070E0CB014AE08C
:101170000E94140C89E00E94550C81E10E944804F1
:101180006C01990FEE08FF08F7FE0CC08DE20E947B
:10119000550C66277727CB016C197D098E099F09AD
:1011A0004AE003C04AE0C701B6010E94140C8FE474
:1011B00091E00E94B80A80913503882309F4BCC0ED
:1011C0002091290330912A0340912B0350912C0345
:1011D00060913A0370913B0380913C0390913D03F1
:1011E0000E9465116B017C0120E030E0A9010E94A2
:1011F0003113181624F0F7FAF094F7F8F0942091D0
:101200003603309137034091380350913903C701B9
:10121000B6010E94311318164CF482E591E00E9449
:10122000CA0AE0914603F0914703099520912D03E6
:1012300030912E0340912F035091300360913E0373
:1012400070913F0380914003909141030E9465118A
:101250006B017C0120E030E0A9010E9431131816D7
:1012600024F0F7FAF094F7F8F094209136033091D7
:1012700037034091380350913903C701B6010E94EA
:10128000311318164CF48BE591E00E94CA0AE091E4
:101290004603F091470309952091310330913203C1
:1012A00040913303509134036091420370914303A2
:1012B00080914403909145030E9465116B017C016C
:1012C00020E030E0A9010E943113181624F0F7FA4B
:1012D000F094F7F8F0942091360330913703409161
:1012E000380350913903C701B6010E943113181613
:1012F0004CF484E691E00E94CA0AE0914603F09122
:1013000047030995E0904B03F0904C0380914A030A
:101310000E94480420914D0330914E03821B930B91
:10132000E816F9064CF48DE691E00E94CA0AE091B5
:101330004603F091470309950F900F900F900F907F
:10134000DF91CF91FF91EF91BF91AF919F918F91DD
:101350007F916F915F914F913F912F911F910F91CD
:10136000FF90EF90DF90CF90BF90AF909F908F90C5
:101370007F906F905F904F900F900FBE0F901F90D7
:101380001895CF92DF92EF92FF920F931F93CF9316
:10139000DF936C017A018B01C0E0D0E0CE15DF0550
:1013A00089F0D8016D918D01D601ED91FC910190EC
:1013B000F081E02DC6010995892B11F47E0102C050
:1013C0002196ECCFC701DF91CF911F910F91FF9034
:1013D000EF90DF90CF900895FC01918D828D98174A
:1013E00061F0828DDF01A80FB11D5D968C91928D09
:1013F0009F5F9F73928F90E008958FEF9FEF089506
:10140000FC01918D828D981731F0828DE80FF11DCE
:10141000858D90E008958FEF9FEF0895FC01918DE9
:10142000228D892F90E0805C9F4F821B91098F73E2
:10143000992708958DE692E00E940E0A21E0892BFB
:1014400009F420E0822F0895FC01848DDF01A80FAC
:10145000B11DA35ABF4F2C91848D90E001968F73DC
:101460009927848FA689B7892C93A089B1898C91FB
:1014700080648C93938D848D981306C00288F389C1
:10148000E02D80818F7D80830895EF92FF920F93EE
:101490001F93CF93DF93EC0181E0888F9B8D8C8D20
:1014A000981305C0E889F989808185FD24C0F62E4E
:1014B0000B8D10E00F5F1F4F0F731127E02E8C8DE7
:1014C000E8120CC00FB607FCFACFE889F9898081D1
:1014D00085FFF5CFCE010E94240AF1CF8B8DFE014E
:1014E000E80FF11DE35AFF4FF0820B8FEA89FB8969
:1014F0008081806207C0EE89FF896083E889F9896D
:1015000080818064808381E090E0DF91CF911F91A2
:101510000F91FF90EF900895CF93DF93EC01888DAA
:101520008823C9F0EA89FB89808185FD05C0A889E7
:10153000B9898C9186FD0FC00FB607FCF5CF80816D
:1015400085FFF2CFA889B9898C9185FFEDCFCE01B7
:101550000E94240AE7CFDF91CF91089580E090E0C8
:10156000892B29F00E941A0A81110C940000089519
:10157000009769F0FC0101900020E9F73197AF0175
:10158000481B590BBC018DE692E00C94C10980E028
:1015900090E00895CF93DF930E94B80AEC018FE4A6
:1015A00091E00E94B80A8C0F9D1FDF91CF910895A2
:1015B0002F923F924F925F926F927F928F929F9263
:1015C000AF92BF92CF92DF92EF92FF920F931F9351
:1015D000CF93DF93C2E5D3E08A8D0E9448041C01BB
:1015E000898D0E9448048C01888D0E944804CC8813
:1015F000DD88EE88FF8888889988AA88BB884C8413
:101600005D846E847F84BC01990F880B990B0E94C6
:10161000811220E030E845E853E40E9465112DEC8A
:101620003CEC4CE951E40E94361320E030E045E008
:1016300053E40E94D7112DEC3CEC4CE151E40E94A4
:101640006511A30192010E9465112FE832EC45EF6C
:101650005CE30E9436132AEA3AE84AE65EE30E9417
:10166000D7119B01AC01C301B2010E9466116883CE
:1016700079838A839B83B801110F880B990B0E9491
:10168000811220E030E843E853E40E9465112DEC1C
:101690003CEC4CE951E40E94361320E030E046E097
:1016A00053E40E94D7112DEC3CEC4CE151E40E9434
:1016B0006511A50194010E9465112FE832EC45EFF8
:1016C0005CE30E9436132AEA3AE84AE65EE30E94A7
:1016D000D7119B01AC01C501B4010E9466116C8356
:1016E0007D838E839F83B101330C880B990B0E94FD
:1016F000811220E030E043E853E40E9465112DECB4
:101700003CEC4CE951E40E94361320E030E047E025
:1017100053E40E94D7112DEC3CEC4CE151E40E94C3
:101720006511A70196010E9465112FE832EC45EF83
:101730005CE30E9436132AEA3AE84AE65EE30E9436
:10174000D7119B01AC01C701B6010E9466116887E1
:1017500079878A879B878CE0FE01AEE5B3E0019034
:101760000D928A95E1F7DF91CF911F910F91FF9034
:10177000EF90DF90CF90BF90AF909F908F907F9031
:101780006F905F904F903F902F9008950F931F930D
:10179000CF93DF9380916F00826080936F00C2E3EC
:1017A000D0E00E94D80A2197E1F781E10E94480425
:1017B00090934E0380934D034091560350915703ED
:1017C000609158037091590380915A0390915B0383
:1017D000A0915C03B0915D030091520310915303FB
:1017E000209154033091550300933A0310933B0327
:1017F00020933C0330933D0340933E0350933F03BB
:10180000609340037093410380934203909343039A
:10181000A0934403B093450381E080933503DF91A7
:10182000CF911F910F9108958F929F92AF92BF9287
:101830000F931F93CF93DF93CDB7DEB7A1970FB66A
:10184000F894DEBF0FBECDBF19A2423008F44AE0C3
:101850008E010F5D1F4F842E912CA12CB12CA50160
:1018600094010E940A11E62FB901CA010150110921
:10187000EA3014F4E05D01C0E95CD801EC93232B5D
:10188000242B252B61F7C8010E94B80AA1960FB638
:10189000F894DEBF0FBECDBFDF91CF911F910F91A6
:1018A000BF90AF909F908F900895E0916D02F0915E
:1018B0006E020190F081E02D682F8DE692E0099490
:1018C0004F925F926F927F928F929F92AF92BF9250
:1018D000CF92DF92EF92FF926B017C01B42E9B01BD
:1018E000AC010E94E913882319F08AE791E027C030
:1018F00026013701E89477F82FEF3FEF4FE75FE7D6
:10190000C301B2010E94E91381110DC02FEF3FEF17
:101910004FE75FE7C301B2010E94D21118161CF411
:101920008EE791E00CC02FEF3FEF4FE75FE4C70178
:10193000B6010E943113181684F482E891E0FF90FA
:10194000EF90DF90CF90BF90AF909F908F907F905F
:101950006F905F904F900C94B80A2FEF3FEF4FE7D6
:101960005FECC701B6010E94D21187FDE6CF20E0EF
:1019700030E0A901C701B6010E94D21187FF09C05A
:101980008DE20E94550C4C01F7FAF094F7F8F094B0
:1019900002C0812C912CA12C60E070E080E09FE3DC
:1019A000AB1441F020E030E040E251E40E94D71156
:1019B000A394F6CF9B01AC01C701B6010E9466114A
:1019C0002B013C010E9450126B017C010E947F128E
:1019D0009B01AC01C301B2010E9465112B013C01C6
:1019E0004AE0C701B6010E94140C7C01E80CF91C06
:1019F000BB2029F08EE20E94550CE80EF91EDB2C6C
:101A0000DD2021F120E030E040E251E4C301B201E9
:101A10000E9436132B013C010E9450124B01A12C55
:101A2000B12C4AE0C501B4010E94140CE80EF91E65
:101A3000C501B4010E947F129B01AC01C301B20138
:101A40000E9465112B013C01DA94DACFC701FF90A7
:101A5000EF90DF90CF90BF90AF909F908F907F904E
:101A60006F905F904F90089590910401981324C057
:101A7000E6E8F0E0E4919FEF90930401E130B9F0E3
:101A800098F0E230C9F4909170009D7F90937000BF
:101A900091E09093B0009091B100987F9460909302
:101AA000B1001092B30008C010926E0005C0909172
:101AB0006F009D7F90936F0060E00C94B2011F92C5
:101AC0000F920FB60F9211242F933F934F935F9372
:101AD0006F937F938F939F93AF93BF93EF93FF93F6
:101AE0008091690290916A02A0916B02B0916C02A0
:101AF000892B8A2B8B2B51F180916802E091660231
:101B0000F09167029081892780838091690290918A
:101B10006A02A0916B02B0916C02181619061A069F
:101B20001B06C4F48091690290916A02A0916B0235
:101B3000B0916C020197A109B10980936902909359
:101B40006A02A0936B02B0936C0204C080910401FE
:101B50000E94340DFF91EF91BF91AF919F918F91B2
:101B60007F916F915F914F913F912F910F900FBE99
:101B70000F901F9018951F920F920FB60F9211247D
:101B80002F933F934F935F936F937F938F939F9385
:101B9000AF93BF93EF93FF938DE692E00E94240AE8
:101BA000FF91EF91BF91AF919F918F917F916F9135
:101BB0005F914F913F912F910F900FBE0F901F900B
:101BC00018951F920F920FB60F9211242F938F9397
:101BD0009F93EF93FF93E0917D02F0917E028081CD
:101BE000E0918302F091840282FD12C09081809185
:101BF00086028F5F8F7320918702821751F0E091E8
:101C00008602F0E0E359FD4F958F8093860201C074
:101C10008081FF91EF919F918F912F910F900FBE37
:101C20000F901F90189589E291E090930B03809399
:101C30000A038AE093E00C949605CF92DF92EF922C
:101C4000FF921092700210926F0298EEC92E93E0EC
:101C5000D92EE12CF12CC0927102D0927202E09246
:101C60007302F092740289E091E090936E02809387
:101C70006D0285EC90E090937A028093790284EC77
:101C800090E090937C0280937B0280EC90E09093B4
:101C90007E0280937D0281EC90E09093800280939D
:101CA0007F0282EC90E0909382028093810286EC26
:101CB00090E09093840280938302109286021092A7
:101CC000870210928802109289021092700310927B
:101CD0006F03C0927103D0927203E0927303F0928B
:101CE000740389E191E090936E0380936D031092E9
:101CF0005203109253031092540310925503109202
:101D000056031092570310925803109259031092E1
:101D10005A0310925B0310925C0310925D031092C1
:101D20005E0310925F0310926003109261031092A1
:101D30006203109263031092640310926503109281
:101D400066031092670310926803109269038EE095
:101D500080936A038FE080936B0380E180936C0330
:101D600089E080934F0388EE90E090935103809335
:101D7000500361E089E00E94FE0181E180934A0303
:101D800062E00E94FE011092350380E090E0A0E244
:101D9000B1E48093360390933703A0933803B09354
:101DA000390310923A0310923B0310923C031092B5
:101DB0003D0310923E0310923F0310924003109295
:101DC0004103109242031092430310924403109275
:101DD00045038AE392E090934703809346038AEA9F
:101DE00091E09093490380934803F8941092800007
:101DF0001092810088E09DE3909389008093880091
:101E0000809181008860809381008091810084604E
:101E10008093810080918100816080938100809116
:101E20006F008D7F80936F00789410922903109239
:101E30002A0310922B0310922C0310922D03109260
:101E40002E0310922F031092300310923103109240
:101E50003203109233031092340310920D03109248
:101E60000C03C0920E03D0920F03E0921003F09285
:101E7000110389E291E090930B0380930A0310927F
:101E80002103109220031092230310922203109238
:101E900025031092240310922703109226036091C9
:101EA00028036E7F6D7F609328036695617081E0E3
:101EB000682785E00E94B20161E085E00E94FE0192
:101EC000E4EBF0E0E491E0931A03E0EAF0E0E4915F
:101ED000F0E0EE0FFF1FE957FF4F8591949190932B
:101EE0001C0380931B0360E084E00E94FE0180914C
:101EF000280381FD04C061E084E00E94B20184E017
:101F000080931603E3EBF0E0E491E0931703EFE92D
:101F1000F0E0E491F0E0EE0FFF1FEF56FF4F8591E8
:101F200094919093190380931803FF90EF90DF90A2
:101F3000CF900895789484B5826084BD84B5816023
:101F400084BD85B5826085BD85B5816085BD809184
:101F50006E00816080936E001092810080918100FC
:101F600082608093810080918100816080938100F4
:101F7000809180008160809380008091B1008460B6
:101F80008093B1008091B00081608093B000809117
:101F90007A00846080937A0080917A0082608093D6
:101FA0007A0080917A00816080937A0080917A0033
:101FB000806880937A001092C100E0917D02F091D8
:101FC0007E0282E08083E0917902F0917A021082B1
:101FD000E0917B02F0917C0280E180831092850287
:101FE000E0918102F091820286E08083E0917F029D
:101FF000F0918002808180618083E0917F02F09186
:102000008002808188608083E0917F02F09180026D
:10201000808180688083E0917F02F09180028081DE
:102020008F7D808310922503109224031092230346
:102030001092220310922103109220038DE991E067
:10204000909327038093260390911603963108F00E
:1020500057C02DEB30E030932103209320032BE970
:1020600031E030932303209322032CE231E03093BC
:1020700025032093240320916800983050F031E02C
:102080009E3008F430E081E001C0880F3A95EAF70D
:1020900001C084E0822B80936800983038F09E3035
:1020A00040F0963148F020E030E008C02DE630E006
:1020B00005C02BE630E002C02CE630E030931E0372
:1020C00020931D03983030F481E001C0880F9A9569
:1020D000EAF70EC0292F30E09E3018F4285031095D
:1020E00002C02E50310981E001C0880F2A95EAF71D
:1020F00080931F0380912603909127030197F1F7A6
:102100008091240390912503892B21F18091640211
:102110009091650223E08A309207E1F0009711F078
:102120000E949605809128038E7F80932803109249
:102130006302109262028AE093E0909365028093BA
:102140006402E0911D03F0911E03908180911F03B2
:10215000892B808361E08DE00E94FE0161E08DE0CB
:102160000E94B20162E082E00E94FE018CE991E0EF
:102170009093010180930001809169008C7F8260BF
:1021800080936900E89A86E891E00E94CA0A0E945A
:102190005F044B015C0184E6C82ED12CE12CF12CAC
:1021A0000E945F04DC01CB0188199909AA09BB09C7
:1021B000883E9340A105B10558F081E0C81AD108C6
:1021C000E108F10828EE820E23E0921EA11CB11C4A
:1021D000C114D104E104F10419F70E94C60B8AE08E
:1021E00093E00E94FC000E94AE0AF9CF97FB072EF5
:1021F00016F4009407D077FD09D00E944B1107FC1C
:1022000005D03EF4909581959F4F08957095619506
:102210007F4F0895A1E21A2EAA1BBB1BFD010DC022
:10222000AA1FBB1FEE1FFF1FA217B307E407F50786
:1022300020F0A21BB30BE40BF50B661F771F881F62
:10224000991F1A9469F760957095809590959B01F8
:10225000AC01BD01CF010895052E97FB1EF400943B
:102260000E94431157FD07D00E940A1107FC03D0BA
:102270004EF40C94431150954095309521953F4F65
:102280004F4F5F4F089590958095709561957F4F62
:102290008F4F9F4F0895AA1BBB1B51E107C0AA1F78
:1022A000BB1FA617B70710F0A61BB70B881F991FF7
:1022B0005A95A9F780959095BC01CD010895EE0F30
:1022C000FF1F0590F491E02D09945058BB27AA27D1
:1022D0000E947D110C94F7120E94E91238F00E94BE
:1022E000F01220F039F49F3F19F426F40C94E61212
:1022F0000EF4E095E7FB0C94E012E92F0E9408131E
:1023000058F3BA17620773078407950720F079F42A
:10231000A6F50C942A130EF4E0950B2EBA2FA02DDF
:102320000B01B90190010C01CA01A0011124FF2782
:10233000591B99F0593F50F4503E68F11A16F0407D
:10234000A22F232F342F4427585FF3CF469537957C
:102350002795A795F0405395C9F77EF41F16BA0B41
:10236000620B730B840BBAF09150A1F0FF0FBB1FEF
:10237000661F771F881FC2F70EC0BA0F621F731F38
:10238000841F48F4879577956795B795F7959E3F95
:1023900008F0B0CF9395880F08F09927EE0F979526
:1023A000879508950E94BC1208F481E008950E9468
:1023B000EB110C94F7120E94F01258F00E94E912EF
:1023C00040F029F45F3F29F00C94E01251110C9475
:1023D0002B130C94E6120E94081368F39923B1F3AF
:1023E000552391F3951B550BBB27AA27621773073B
:1023F000840738F09F5F5F4F220F331F441FAA1FCF
:10240000A9F335D00E2E3AF0E0E832D0915050408A
:10241000E695001CCAF72BD0FE2F29D0660F771F38
:10242000881FBB1F261737074807AB07B0E809F01E
:10243000BB0B802DBF01FF2793585F4F3AF09E3FA3
:10244000510578F00C94E0120C942B135F3FE4F3E9
:10245000983ED4F3869577956795B795F7959F5FE6
:10246000C9F7880F911D9695879597F90895E1E032
:10247000660F771F881FBB1F621773078407BA0791
:1024800020F0621B730B840BBA0BEE1F88F7E095EC
:1024900008950E9450126894B1110C942B13089562
:1024A0000E94101388F09F5798F0B92F9927B751C1
:1024B000B0F0E1F0660F771F881F991F1AF0BA95E8
:1024C000C9F714C0B13091F00E942A13B1E0089509
:1024D0000C942A13672F782F8827B85F39F0B93FFB
:1024E000CCF3869577956795B395D9F73EF490959B
:1024F0008095709561957F4F8F4F9F4F0895E89419
:1025000009C097FB3EF490958095709561957F4F3B
:102510008F4F9F4F9923A9F0F92F96E9BB279395E9
:10252000F695879577956795B795F111F8CFFAF4F9
:10253000BB0F11F460FF1BC06F5F7F4F8F4F9F4F2A
:1025400016C0882311F096E911C0772321F09EE888
:10255000872F762F05C0662371F096E8862F70E0EE
:1025600060E02AF09A95660F771F881FDAF7880FC8
:102570009695879597F90895990F0008550FAA0B1E
:10258000E0E8FEEF16161706E807F907C0F0121686
:102590001306E407F50798F0621B730B840B950B89
:1025A00039F40A2661F0232B242B252B21F40895DE
:1025B0000A2609F4A140A6958FEF811D811D08957B
:1025C00097F99F6780E870E060E008959FEF80ECE6
:1025D000089500240A941616170618060906089589
:1025E00000240A9412161306140605060895092EEF
:1025F0000394000C11F4882352F0BB0F40F4BF2B5E
:1026000011F460FF04C06F5F7F4F8F4F9F4F08959D
:1026100057FD9058440F551F59F05F3F71F0479593
:10262000880F97FB991F61F09F3F79F08795089578
:10263000121613061406551FF2CF4695F1DF08C097
:10264000161617061806991FF1CF869571056105B4
:1026500008940895E894BB2766277727CB0197F95C
:1026600008950E94BC1208F48FEF08950E94491348
:102670000C94F7120E94E91238F00E94F01220F038
:10268000952311F00C94E0120C94E61211240C9492
:102690002B130E94081370F3959FC1F3950F50E020
:1026A000551F629FF001729FBB27F00DB11D639F04
:1026B000AA27F00DB11DAA1F649F6627B00DA11DAA
:1026C000661F829F2227B00DA11D621F739FB00D50
:1026D000A11D621F839FA00D611D221F749F3327C0
:1026E000A00D611D231F849F600D211D822F762F59
:1026F0006A2F11249F5750409AF0F1F088234AF036
:10270000EE0FFF1FBB1F661F771F881F91505040A1
:10271000A9F79E3F510580F00C94E0120C942B1306
:102720005F3FE4F3983ED4F3869577956795B79528
:10273000F795E7959F5FC1F7FE2B880F911D969542
:10274000879597F9089519F416F40C94E6120C94F1
:10275000EE130E941013B8F39923C9F3B6F39F57F1
:10276000550B87FF0E94FC130024A0E640EA90016D
:1027700080585695979528F4805C660F771F881FC0
:1027800020F026173707480730F4621B730B840BC1
:10279000202931294A2BA695179407942025312505
:1027A0004A2758F7660F771F881F20F0261737072C
:1027B000480730F4620B730B840B200D311D411D53
:1027C000A09581F7B901842F9158880F9695879528
:1027D00008950E94BC12880B990B08959F3F31F019
:1027E000915020F4879577956795B795880F911D3F
:1027F0009695879597F9089591505040660F771FE9
:10280000881FD2F7089581E090E0F8940C940814A2
:1028100010E0C3E6D0E004C0FE010E945F112196E3
:0A282000C436D107C9F7F894FFCFC2
:10282A008E008E00FF00000000450AC1090E0AEC66
:10283A0009000A8C0A00000000890175016E016B0B
:10284A00016801670100000000A800C109FC00142A
:10285A00018F00A70062746E5F696E7420707265E2
:10286A007373656400616C61726D206F6666000D3A
:10287A000A0063617573653A205800636175736570
:10288A003A20590063617573653A205A006361758D
:10289A0073653A207072657373006E616E00696EBB
:1028AA0066006F76660068656C6C6F2C20776F72B5
:0428BA006C64210029
:00000001FF
