:100000000C9464000C9442060C941B060C94690634
:100010000C9469060C9469060C948C000C94C90C21
:100020000C948C000C948C000C948C000C94110893
:100030000C948C000C948C000C948C000C948C0010
:100040000C94D1050C948C000C94F2020C94CC020C
:100050000C948C000C948C000C948C000C948C00F0
:100060000C94E3060C948C00000000002400270090
:100070002A0000000008000201000003040700003D
:100080000000000000000200000000250028002BF6
:1000900000000000002300260029000404040404DA
:1000A0000404040202020202020303030303030125
:1000B00002040810204080010204081020010204FC
:1000C00008102000910E870E11241FBECFEFD8E03C
:1000D000DEBFCDBF11E0A0E0B1E0EEE1F6E202C08C
:1000E00005900D92A237B107D9F723E0A2E7B1E05E
:1000F00001C01D92A734B207E1F710E0C3E6D0E0DB
:1001000004C02197FE010E94F712C236D107C9F739
:100110000E94250D0C9402130C940000FC01538DD9
:10012000448D252F30E0842F90E0821B930B5417D1
:1001300010F0CF96089501970895FC01918D828D5E
:10014000981761F0828DDF01A80FB11D5D968C912B
:10015000928D9F5F9F73928F90E008958FEF9FEF36
:100160000895FC01918D828D981731F0828DE80FF2
:10017000F11D858D90E008958FEF9FEF0895FC01AC
:10018000918D228D892F90E0805C9F4F821B910979
:100190008F73992708958BE492E00E94BF0021E0BD
:1001A000892B09F420E0822F0895FC01848DDF0162
:1001B000A80FB11DA35ABF4F2C91848D90E00196DA
:1001C0008F739927848FA689B7892C93A089B189C9
:1001D0008C9180648C93938D848D981306C00288D3
:1001E000F389E02D80818F7D80830895EF92FF92C7
:1001F0000F931F93CF93DF93EC0181E0888F9B8D4A
:100200008C8D981305C0E889F989808185FD24C00B
:10021000F62E0B8D10E00F5F1F4F0F731127E02E8E
:100220008C8DE8120CC00FB607FCFACFE889F9896B
:10023000808185FFF5CFCE010E94D500F1CF8B8D57
:10024000FE01E80FF11DE35AFF4FF0820B8FEA89A0
:10025000FB898081806207C0EE89FF896083E8891D
:10026000F98980818064808381E090E0DF91CF9183
:100270001F910F91FF90EF900895CF93DF93EC01C2
:10028000888D8823C9F0EA89FB89808185FD05C0B6
:10029000A889B9898C9186FD0FC00FB607FCF5CFF0
:1002A000808185FFF2CFA889B9898C9185FFEDCF38
:1002B000CE010E94D500E7CFDF91CF91089580E075
:1002C00090E0892B29F00E94CB0081110C94000052
:1002D00008953FB7F89480913C0290913D02A0911F
:1002E0003E02B0913F0226B5A89B05C02F3F19F0F2
:1002F0000196A11DB11D3FBFBA2FA92F982F8827A6
:10030000820F911DA11DB11DBC01CD0142E0660F00
:10031000771F881F991F4A95D1F708950895209156
:100320004202309143022817390771F4909140023C
:1003300080914102981741F0E0914002F0E0E950CD
:10034000FE4F808190E008958FEF9FEF089508950C
:100350001F93CF93DF93DC015C962D913C915D97C9
:100360002115310539F481E090E013969C938E932A
:1003700012973DC05196ED91FC91529750969C91E9
:100380005097892F80951FB75E964C915E9741FBE1
:10039000772770F941FD6095F8944081772311F03B
:1003A000492B01C048234083E9012197F1F748E038
:1003B000508160FF02C0592B01C058235083E901CE
:1003C0002197F1F76695415099F7772321F09081B5
:1003D0008923808303C08081982B90831FBF5C9604
:1003E0008D919C915D970197F1F721E030E0C90173
:1003F000DF91CF911F9108952091420230914302E5
:100400002817390771F4809141022091400290E051
:10041000805C9F4F821B910960E470E00E948E1205
:10042000089580E090E008952091420230914302C7
:1004300028173907B9F4909140028091410298172A
:1004400089F0E0914002F0E0E950FE4F8081209178
:10045000400230E02F5F3F4F2F733327209340023D
:1004600090E008958FEF9FEF0895E0914202F091A0
:100470004302E817F90769F4A389B4899C91858937
:10048000809589238C93109243021092420281E05E
:10049000089580E0089585ED8093BC008091BC00B4
:1004A00084FDFCCF1092D10108954091AB01262F1D
:1004B00030E0240F311D21323105DCF42091D101CF
:1004C0002430C9F4FC0180E090E0861758F43091A4
:1004D000AB012191DC01A757BE4FA30FB11D2C9397
:1004E0000196F3CF8091AB01680F6093AB0180E080
:1004F000089581E0089582E0089508958FEF9FEFB9
:1005000008958FEF9FEF08958091880190E0919575
:10051000819591090895CF93DF9300D0CDB7DEB7D1
:10052000CB01642F49835A830E9455024981842F4D
:100530005A81952F0F900F90DF91CF910895CF930F
:10054000DF931F92CDB7DEB7698361E0CE010196DC
:100550000E94550281E090E00F90DF91CF910895C5
:10056000089580E090E008950E94FD128BE391E0F1
:100570000E947F0A809129030E949E0C8BE491E0E7
:100580000E947F0A0C940D0B809129030E949E0CFF
:100590008BE491E00C947F0A1F920F920FB60F929A
:1005A00011242F933F934F935F936F937F938F9378
:1005B0009F93AF93BF93EF93FF938BE492E00E94DE
:1005C000D500FF91EF91BF91AF919F918F917F9156
:1005D0006F915F914F913F912F910F900FBE0F90B0
:1005E0001F9018951F920F920FB60F9211242F9300
:1005F0008F939F93EF93FF93E0915B02F0915C02E6
:100600008081E0916102F091620282FD12C09081CE
:10061000809164028F5F8F7320916502821751F081
:10062000E0916402F0E0E55BFD4F958F80936402FA
:1006300001C08081FF91EF919F918F912F910F9039
:100640000FBE0F901F90189590E0FC01EE58FF4FE1
:100650003491FC01E155FF4F2491FC01E556FF4F19
:10066000E491EE2309F43BC0332339F1333091F0A8
:1006700038F43130A9F0323001F584B58F7D12C0E5
:10068000373091F03830A1F03430B9F480918000E7
:100690008F7D03C0809180008F77809380000DC094
:1006A00084B58F7784BD09C08091B0008F7703C077
:1006B0008091B0008F7D8093B000F0E0EE0FFF1FBF
:1006C000E957FF4FA591B4918FB7F894EC91611160
:1006D00003C020952E2301C02E2B2C938FBF08958D
:1006E000CF93DF9390E0FC01E155FF4F2491FC0193
:1006F000E556FF4F8491882361F190E0880F991FA0
:10070000FC01E859FF4FC591D491FC01E957FF4F17
:10071000A591B491611109C09FB7F8948881209583
:1007200082238883EC912E230BC0623061F49FB743
:10073000F8943881822F809583238883EC912E2B27
:100740002C939FBF06C08FB7F894E8812E2B288387
:100750008FBFDF91CF9108958F929F92AF92BF92FA
:10076000CF92DF92EF92FF92CF9380902A039090E6
:100770002B038091290390910401981721F09F3F4A
:1007800009F097C104C0E6E8F0E0C4917DC0809311
:100790000401E6E8F0E0C491CF3F09F48AC1C1301A
:1007A00029F1C23009F449C0C1116EC014BC15BC96
:1007B00094B5926094BD95B5916095BD282F30E0B9
:1007C000F901E556FF4FE491F0E0EE0FFF1FE95706
:1007D000FF4F4591549150937F0140937E01F90161
:1007E000E155FF4FE491E0937D0150C010928000ED
:1007F0001092810090918100986090938100909177
:100800008100916090938100282F30E0F901E55636
:10081000FF4FE491F0E0EE0FFF1FE957FF4F4591C6
:10082000549150937C0140937B01F901E155FF4FB6
:10083000E491E0937A01C1E029C01092B0001092D7
:10084000B1009091B00092609093B0009091B1008F
:1008500091609093B100282F30E0F901E556FF4FE9
:10086000E491F0E0EE0FFF1FE957FF4F45915491DF
:100870005093450240934402F901E155FF4FE49142
:10088000E0934602C2E002C0C7FD13C161E00E94CE
:100890007003A12CB12C8C2F8D7F09F0A0C060E0DB
:1008A00072E18AE790E0A50194010E94C4126901F7
:1008B0007A01DA01C9010197A109B1098F3F9105B8
:1008C000A105B10509F008F442C060E472E48FE0CC
:1008D00090E0A50194010E94C412DA01C9010197B8
:1008E000A109B109C230E1F48F3F9105A105B1051D
:1008F00009F008F43DC160E970ED83E090E0A501E6
:1009000094010E94C412DA01C9010197A109B10939
:100910008F3F9105A105B10509F088F523E058C086
:100920008F3F9105A105B105A1F098F068E478EE3C
:1009300081E090E0A50194010E94C412DA01C9018E
:100940000197A109B109CC2309F4C6C009C121E06E
:1009500001C022E0CC2371F03BC0D701C6012AE0E0
:10096000B595A795979587952A95D1F70197A109F0
:10097000B10925E035B5387F232B25BD61C068E47A
:1009800078EE81E090E0A50194010E94C412DA01A2
:10099000C9010197A109B1098F3F9105A105B105D1
:1009A00009F008F497C064E274EF80E090E0A501DC
:1009B00094010E94C412DA01C9010197A109B10989
:1009C0008F3F9105A105B10511F008F0A3C025E006
:1009D0003091B100387F232B2093B1002BC060E011
:1009E00072E18AE790E0A50194010E94C412DA0145
:1009F000C9010197A109B109009721E0A207B1053A
:100A000078F068E478EE81E090E0A50194010E941E
:100A1000C412DA01C9010197A109B10933E001C08B
:100A200031E0C13039F420918100287F232B2093BD
:100A3000810018C0C130B1F0C23049F1C11139C0D4
:100A400087BD8FEF9FEFDC01809384019093850138
:100A5000A0938601B093870180916E00826080939D
:100A60006E0027C090938900809388008FEF9FEFDE
:100A7000DC018093800190938101A0938201B09367
:100A8000830180916F00826080936F0012C0809319
:100A9000B3008FEF9FEFDC018093470290934802F1
:100AA000A0934902B0934A028091700082608093C3
:100AB000700080916F008D7F80936F001092130300
:100AC000CF91FF90EF90DF90CF90BF90AF909F902D
:100AD0008F90089524E07CCF8F3F9105A105B1054B
:100AE000B9F0B0F062E17AE780E090E0A50194010E
:100AF0000E94C412DA01C9010197A109B1098F3F0F
:100B00009105A105B10511F008F027CF24E032CFFF
:100B100023E030CF62E17AE780E090E0A501940124
:100B20000E94C412DA01C9010197A109B1098F3FDE
:100B30009105A105B10591F088F0D701C6013AE011
:100B4000B595A795979587953A95D1F70197A109FE
:100B5000B109CC2309F40DCF27E03ACF26E0FACE35
:100B60008F3F9105A105B10509F0A0F624E0F2CE72
:100B700022E02ECF8E3008F08E50877080648093F4
:100B80007C0080917A00806480937A0080917A0062
:100B900086FDFCCF809178002091790090E0922B27
:100BA00008951F920F920FB60F9211242F933F9327
:100BB0008F939F93AF93BF938091380290913902A6
:100BC000A0913A02B0913B023091370223E0230F0B
:100BD0002D3720F40196A11DB11D05C026E8230F75
:100BE0000296A11DB11D2093370280933802909385
:100BF0003902A0933A02B0933B0280913C0290915B
:100C00003D02A0913E02B0913F020196A11DB11D8F
:100C100080933C0290933D02A0933E02B0933F022A
:100C2000BF91AF919F918F913F912F910F900FBEE8
:100C30000F901F9018951F920F920FB60F921124CC
:100C40002F933F934F935F936F937F938F939F93D4
:100C5000AF93BF93EF93FF93E0910201F0910301F3
:100C60000995FF91EF91BF91AF919F918F917F91E6
:100C70006F915F914F913F912F910F900FBE0F9009
:100C80001F9018951F920F920FB60F9211242F9359
:100C90003F934F935F936F937F938F939F93AF9304
:100CA000BF93EF93FF93E0910001F091010109954B
:100CB000FF91EF91BF91AF919F918F917F916F9134
:100CC0005F914F913F912F910F900FBE0F901F900A
:100CD00018951F920F920FB60F9211242F933F93E6
:100CE0004F935F936F937F938F939F93AF93BF9334
:100CF000EF93FF93E0914202F0914302309709F4A1
:100D000051C0968DA685B785858591FF04C09C91BD
:100D1000892329F447C09C91892309F043C0A38902
:100D2000B4899C918589809589238C93868997893C
:100D30000197F1F7608D718DA685B785558538E0EF
:100D400020E0CB010197F1F7822F90E095958795F0
:100D5000282F4C91452309F02068315091F7868D5A
:100D600081FD20958091410290E001968F73992733
:100D700030914002381749F0A0914102B0E0A950EB
:100D8000BE4F2C938093410203C0868D8160868F75
:100D9000828D938D0197F1F7A389B4899C91858900
:100DA000892B8C93FF91EF91BF91AF919F918F9180
:100DB0007F916F915F914F913F912F910F900FBE57
:100DC0000F901F9018951F920F920FB60F9211243B
:100DD0002F933F934F935F936F937F938F939F9343
:100DE000AF93BF93EF93FF938091B900887F8036D4
:100DF00009F49CC068F5883209F45BC090F4803136
:100E000009F454C038F4882309F4F6C0883009F492
:100E10004DC0F6C0883109F44CC0803209F45DC081
:100E2000EFC0803409F468C048F4803309F455C039
:100E3000883309F0E5C08093D001D8C0803509F42B
:100E40004FC0883509F45DC0883409F0D9C0D6C0D8
:100E5000883909F4C7C0A8F4883709F467C038F4A2
:100E6000883609F463C0803709F460C0C9C0883887
:100E700009F4B8C0803909F45FC0803809F0C0C0F7
:100E80005BC0803B09F486C038F4803A09F466C040
:100E9000883A09F47FC0B4C0803C09F4A7C0883CFC
:100EA00009F4A4C0883B09F48AC0AAC08091F60165
:100EB00010C09091F5018091F401981770F5E091C0
:100EC000F50181E08E0F8093F501F0E0EC52FE4FCA
:100ED00080818093BB0085EC86C08093D0018EC05A
:100EE000E091F50181E08E0F8093F5018091BB00C8
:100EF000F0E0EC52FE4F80839091F5018091F40177
:100F00006EC0E091F50181E08E0F8093F501809134
:100F1000BB00F0E0EC52FE4F80838091D301811141
:100F20006DC081E08093D20184EA61C083E0809348
:100F3000D1011092CF01CFCF8091CF01803208F044
:100F400051C0E091CF0181E08E0F8093CF0180915D
:100F5000BB00F0E0E155FE4F8083BDCF85EC809370
:100F6000BC001092D1018091CF01803230F4E09129
:100F7000CF01F0E0E155FE4F10826091CF0170E0AB
:100F8000E091AD01F091AE018FEA91E009951092E8
:100F9000CF0136C084E08093D1011092AC01109251
:100FA000AB01E091A901F091AA0109958091AB01F3
:100FB000811105C081E08093AB0110928901E0911D
:100FC000AC0181E08E0F8093AC01F0E0E757FE4F5B
:100FD00080818093BB009091AC018091AB01981708
:100FE00008F479CF85E88093BC000AC085EC809333
:100FF000BC001092D10104C01092D0010E944B029B
:10100000FF91EF91BF91AF919F918F917F916F91E0
:101010005F914F913F912F910F900FBE0F901F90B6
:1010200018951F920F920FB60F9211244F925F9254
:101030006F927F928F929F92AF92BF92CF92DF92E8
:10104000EF92FF920F931F932F933F934F935F93D2
:101050006F937F938F939F93AF93BF93EF93FF9380
:10106000CF93DF9300D000D0CDB7DEB72FB7F89481
:101070008091380290913902A0913A02B0913B02DE
:101080002FBF8093760190937701A0937801B0935E
:1010900079014091720150917301609174017091D6
:1010A00075018C019D01041B150B260B370B0536B2
:1010B00011052105310508F4C0C180937201909398
:1010C0007301A0937401B09375010E948D0A409141
:1010D000300350913103609132037091330380915A
:1010E000340390913503A0913603B0913703C0903B
:1010F0002C03D0902D03E0902E03F0902F03C0928C
:10110000E802D092E902E092EA02F092EB02409308
:10111000EC025093ED026093EE027093EF02809325
:10112000F0029093F102A093F202B093F30282E1F5
:101130000E94BA05BC01990F880B990B0E940C11F3
:1011400020E030E040E251E40E94C11120E030ECA8
:101150004FE754E40E94621020E030E0A9010E94B1
:10116000F10F0E94DB10709315036093140383E169
:101170000E94BA05BC01990F880B990B0E940C11B3
:1011800020E030E04AEF53E40E94C11120E030EC4F
:101190004FE754E40E94621020E030E0A9010E9471
:1011A000F10F0E94DB1070932803609327032091B6
:1011B000E8023091E9024091EA025091EB0260911D
:1011C00016037091170380911803909119030E94E0
:1011D000F00F42E00E94CA0B89E00E94910B20911F
:1011E000EC023091ED024091EE025091EF026091DD
:1011F0001A0370911B0380911C0390911D030E94A0
:10120000F00F42E00E94CA0B89E00E94910B2091EE
:10121000F0023091F1024091F2025091F30260919C
:101220001E0370911F0380912003909121030E945F
:10123000F00F42E00E94CA0B89E00E94910B60917E
:1012400016037091170380911803909119038090F1
:101250001A0390901B03A0901C03B0901D03C09034
:101260001E03D0901F03E0902003F09021039B0108
:10127000AC010E94C1112B013C01A5019401C501E3
:10128000B4010E94C1119B01AC01C301B2010E94D3
:10129000F10F4B015C01A7019601C701B6010E9445
:1012A000C1119B01AC01C501B4010E94F10F0E9464
:1012B000341269837A838B839C836091E8027091F6
:1012C000E9028091EA029091EB02C090EC02D0908A
:1012D000ED02E090EE02F090EF028090F00290902C
:1012E000F102A090F202B090F3029B01AC010E94C7
:1012F000C1112B013C01A7019601C701B6010E9453
:10130000C1119B01AC01C301B2010E94F10F6B013D
:101310007C01A5019401C501B4010E94C1119B018A
:10132000AC01C701B6010E94F10F0E9434129B016B
:10133000AC0169817A818B819C810E94F00F42E02F
:101340000E94CA0B89E00E94910B82E10E94BA05BB
:101350000E949C0B89E00E94910B83E10E94BA05D8
:101360000E949C0B89E00E94910B81E10E94BA05CA
:101370006C01990FEE08FF08F7FE0CC08DE20E9489
:10138000910B66277727CB016C197D098E099F0980
:101390004AE003C04AE0C701B6010E94500B83E651
:1013A00091E00E946D0A80911303882309F445C0DF
:1013B000E0901403F09015032091E8023091E902C7
:1013C0004091EA025091EB0260911603709117036D
:1013D00080911803909119030E94F00F0E94D4107D
:1013E0009B0177FF04C022273327261B370BE21609
:1013F000F306F0F02091F0023091F1024091F202F8
:101400005091F30260911E0370911F03809120039D
:10141000909121030E94F00F0E94D4109B0177FF4E
:1014200004C022273327261B370BE216F30628F4C5
:10143000E0912203F091230309950F900F900F90F4
:101440000F90DF91CF91FF91EF91BF91AF919F915D
:101450008F917F916F915F914F913F912F911F914C
:101460000F91FF90EF90DF90CF90BF90AF909F9043
:101470008F907F906F905F904F900F900FBE0F9066
:101480001F901895CF92DF92EF92FF920F931F93C8
:10149000CF93DF936C017A018B01C0E0D0E0CE15D1
:1014A000DF0589F0D8016D918D01D601ED91FC9198
:1014B0000190F081E02DC6010995892B11F47E0180
:1014C00002C02196ECCFC701DF91CF911F910F9100
:1014D000FF90EF90DF90CF900895009769F0FC01A6
:1014E00001900020E9F73197AF01481B590BBC016F
:1014F0008BE492E00C94420A80E090E00895CF9350
:10150000DF930E946D0AEC0183E691E00E946D0A70
:101510008C0F9D1FDF91CF910895EF92FF920F9353
:101520001F93CF93DF93CCE2D3E08E850E94BA0560
:101530008C018D850E94BA057C018C850E94BA05BC
:10154000BC01990F880B990B0E940C1120E030E828
:1015500045E853E40E94F00F2DEC3CEC4CE951E4DB
:101560000E94C11120E030E045E053E40E94621087
:101570002DEC3CEC4CE151E40E94F00F6883798340
:101580008A839B83B701FF0C880B990B0E940C1177
:1015900020E030E843E853E40E94F00F2DEC3CECEF
:1015A0004CE951E40E94C11120E030E046E053E4F0
:1015B0000E9462102DEC3CEC4CE151E40E94F00FD3
:1015C0006C837D838E839F83B801110F880B990BE9
:1015D0000E940C1120E030E043E853E40E94F00F39
:1015E0002DEC3CEC4CE951E40E94C11120E030E0CC
:1015F00047E053E40E9462102DEC3CEC4CE151E4D6
:101600000E94F00F688779878A879B87DF91CF9147
:101610001F910F91FF90EF900895EF92FF920F931B
:101620001F93CF93DF93EFE6F0E0808182608083A9
:101630000E948D0AECE2F3E0448155816681778156
:1016400080859185A285B385C3E1D3E000811181B6
:10165000228133810B831C832D833E834F835887E4
:1016600069877A878B879C87AD87BE8786E2E82E5D
:1016700083E0F82EF70180810E94BA058C0183E196
:101680000E94BA05800F911FF7019283818381E048
:101690008883DF91CF911F910F91FF90EF90089574
:1016A0008F929F92AF92BF920F931F93CF93DF932E
:1016B000CDB7DEB7A1970FB6F894DEBF0FBECDBF92
:1016C00019A2423008F44AE08E010F5D1F4F842EAC
:1016D000912CA12CB12CA50194010E94A212E62FFD
:1016E000B901CA0101501109EA3014F4E05D01C0EA
:1016F000E95CD801EC93232B242B252B61F7C8013F
:101700000E946D0AA1960FB6F894DEBF0FBECDBF42
:10171000DF91CF911F910F91BF90AF909F908F90CD
:101720000895E0914B02F0914C020190F081E02D80
:10173000682F8BE492E00994CF92DF92EF92FF92B0
:10174000CF93DF936C01990FEE08FF08F7FE17C0E7
:101750008DE20E94910BEC0166277727CB016C1973
:101760007D098E099F094AE00E94500B8C0F9D1F36
:10177000DF91CF91FF90EF90DF90CF9008954AE0F6
:10178000C701B601DF91CF91FF90EF90DF90CF902E
:101790000C94500B4F925F926F927F928F929F9218
:1017A000AF92BF92CF92DF92EF92FF926B017C01DA
:1017B000B42E9B01AC010E947412882319F086E6B6
:1017C00091E027C026013701E89477F82FEF3FEF2B
:1017D0004FE75FE7C301B2010E94741281110DC08F
:1017E0002FEF3FEF4FE75FE7C301B2010E945D10AB
:1017F00018161CF48AE691E00CC02FEF3FEF4FE77C
:101800005FE4C701B6010E94BC11181684F48EE68D
:1018100091E0FF90EF90DF90CF90BF90AF909F90BE
:101820008F907F906F905F904F900C946D0A2FEF88
:101830003FEF4FE75FECC701B6010E945D1087FDE7
:10184000E6CF20E030E0A901C701B6010E945D109B
:1018500087FF09C08DE20E94910B4C01F7FAF094CA
:10186000F7F8F09402C0812C912CA12C60E070E07C
:1018700080E09FE3AB1441F020E030E040E251E42F
:101880000E946210A394F6CF9B01AC01C701B60180
:101890000E94F10F2B013C010E94DB106B017C01C7
:1018A0000E940A119B01AC01C301B2010E94F00F1A
:1018B0002B013C014AE0C701B6010E94500B7C019C
:1018C000E80CF91CBB2029F08EE20E94910BE80E77
:1018D000F91EDB2CDD2021F120E030E040E251E474
:1018E000C301B2010E94C1112B013C010E94DB1017
:1018F0004B01A12CB12C4AE0C501B4010E94500B50
:10190000E80EF91EC501B4010E940A119B01AC0149
:10191000C301B2010E94F00F2B013C01DA94DACF2F
:10192000C701FF90EF90DF90CF90BF90AF909F9056
:101930008F907F906F905F904F90089590910401E9
:10194000981324C0E6E8F0E0E4919FEF909304013F
:10195000E130B9F098F0E230C9F4909170009D7FC9
:101960009093700091E09093B0009091B100987FB7
:1019700094609093B1001092B30008C010926E0072
:1019800005C090916F009D7F90936F0060E00C9474
:1019900024031F920F920FB60F9211242F933F939F
:1019A0004F935F936F937F938F939F93AF93BF9367
:1019B000EF93FF938091470290914802A0914902D2
:1019C000B0914A02892B8A2B8B2B51F180914602D0
:1019D000E0914402F09145029081892780838091B3
:1019E000470290914802A0914902B0914A0218160C
:1019F00019061A061B06C4F480914702909148020A
:101A0000A0914902B0914A020197A109B1098093BE
:101A1000470290934802A0934902B0934A0204C03F
:101A2000809104010E949E0CFF91EF91BF91AF91B4
:101A30009F918F917F916F915F914F913F912F91E6
:101A40000F900FBE0F901F901895789484B5826008
:101A500084BD84B5816084BD85B5826085BD85B552
:101A6000816085BD80916E00816080936E001092D0
:101A7000810080918100826080938100809181004B
:101A800081608093810080918000816080938000DC
:101A90008091B10084608093B1008091B00081603A
:101AA0008093B00080917A00846080937A00809166
:101AB0007A00826080937A0080917A0081608093BE
:101AC0007A0080917A00806880937A001092C10039
:101AD000E0915B02F0915C0282E08083E09157022A
:101AE000F09158021082E0915902F0915A0280E17F
:101AF000808310926302E0915F02F091600286E0C1
:101B00008083E0915D02F0915E028081806180833C
:101B1000E0915D02F0915E02808188608083E091B7
:101B20005D02F0915E02808180688083E0915D02B9
:101B3000F0915E0280818F7D808310920F0310925E
:101B40000E0310920D0310920C0310920B031092CF
:101B50000A038DE991E09093110380931003909113
:101B60000003963108F057C02DEB30E030930B03A3
:101B700020930A032BE931E030930D0320930C03EB
:101B80002CE231E030930F0320930E032091680084
:101B9000983050F031E09E3008F430E081E001C030
:101BA000880F3A95EAF701C084E0822B80936800A1
:101BB000983038F09E3040F0963148F020E030E028
:101BC00008C02DE630E005C02BE630E002C02CE670
:101BD00030E03093080320930703983030F481E01D
:101BE00001C0880F9A95EAF70EC0292F30E09E3089
:101BF00018F42850310902C02E50310981E001C08B
:101C0000880F2A95EAF78093090380911003909139
:101C100011030197F1F780910E0390910F03892B27
:101C200021F1809142029091430222E0843F920789
:101C3000E1F0009711F00E943502809112038E7F2F
:101C400080931203109241021092400284EF92E0BE
:101C50009093430280934202E0910703F0910803BE
:101C6000908180910903892B808361E08DE00E943F
:101C7000700361E08DE00E94240362E082E00E9434
:101C8000700386EB92E090930101809300018091B4
:101C900069008C7F826080936900E89A85E591E015
:101CA0000E947F0A0E9469014B015C0184E6C82EF4
:101CB000D12CE12CF12C0E946901DC01CB018819A7
:101CC0009909AA09BB09883E9340A105B10558F0BE
:101CD00081E0C81AD108E108F10828EE820E23E05D
:101CE000921EA11CB11CC114D104E104F10419F726
:101CF0000E940D0B84EF92E00E94FC01892B21F0E1
:101D000084EF92E00E9414020E945F01F3CF8DE203
:101D100091E09093F5028093F40284EF92E00C94AA
:101D20003502CF92DF92EF92FF9210924E02109204
:101D30004D0298EEC92E93E0D92EE12CF12CC092E1
:101D40004F02D0925002E0925102F092520289E08A
:101D500091E090934C0280934B0285EC90E090933D
:101D600058028093570284EC90E090935A0280933B
:101D7000590280EC90E090935C0280935B0281ECCE
:101D800090E090935E0280935D0282EC90E09093ED
:101D9000600280935F0286EC90E0909362028093F1
:101DA0006102109264021092650210926602109213
:101DB000670210923E0310923D03C0923F03D092FF
:101DC0004003E0924103F09242038BE191E0909353
:101DD0003C0380933B0310922C0310922D0310922E
:101DE0002E0310922F0310923003109231031092A1
:101DF0003203109233031092340310923503109281
:101E00003603109237038EE0809338038FE080937F
:101E1000390380E180933A0389E08093290388EEB7
:101E200090E090932B0380932A0361E089E00E9465
:101E3000700381E18093260362E00E947003109298
:101E400013038AE090E0909315038093140310929B
:101E50001603109217031092180310921903109290
:101E60001A0310921B0310921C0310921D03109270
:101E70001E0310921F0310922003109221038CEA7C
:101E800093E0909323038093220384EC92E0909359
:101E9000250380932403F89410928000109281000F
:101EA00088E09DE390938900809388008091810071
:101EB000886080938100809181008460809381009C
:101EC0008091810081608093810080916F008D7F7F
:101ED00080936F0078941092F7021092F602C092ED
:101EE000F802D092F902E092FA02F092FB028DE23F
:101EF00091E09093F5028093F40210920B031092FC
:101F00000A0310920D0310920C0310920F0310920B
:101F10000E031092110310921003609112036E7F52
:101F20006D7F609312036695617081E0682785E09C
:101F30000E94240361E085E00E947003E4EBF0E07E
:101F4000E491E0930403E0EAF0E0E491F0E0EE0FC6
:101F5000FF1FE957FF4F859194919093060380935B
:101F6000050360E084E00E9470038091120381FD0C
:101F700004C061E084E00E94240384E080930003B5
:101F8000E3EBF0E0E491E0930103EFE9F0E0E491AA
:101F9000F0E0EE0FFF1FEF56FF4F85919491909365
:101FA0000303809302031092E8021092E902109258
:101FB000EA021092EB021092EC021092ED021092E3
:101FC000EE021092EF021092F0021092F1021092C3
:101FD000F2021092F302FF90EF90DF90CF900895FD
:101FE0005058BB27AA270E9408100C9482110E9407
:101FF000741138F00E947B1120F039F49F3F19F4DE
:1020000026F40C9471110EF4E095E7FB0C946B111F
:10201000E92F0E94931158F3BA17620773078407D8
:10202000950720F079F4A6F50C94B5110EF4E0951F
:102030000B2EBA2FA02D0B01B90190010C01CA0182
:10204000A0011124FF27591B99F0593F50F4503E2D
:1020500068F11A16F040A22F232F342F4427585F1F
:10206000F3CF469537952795A795F0405395C9F737
:102070007EF41F16BA0B620B730B840BBAF09150EF
:10208000A1F0FF0FBB1F661F771F881FC2F70EC08E
:10209000BA0F621F731F841F48F487957795679561
:1020A000B795F7959E3F08F0B0CF9395880F08F04D
:1020B0009927EE0F9795879508950E94471108F488
:1020C00081E008950E9476100C9482110E947B1189
:1020D00058F00E94741140F029F45F3F29F00C94ED
:1020E0006B1151110C94B6110C9471110E94931143
:1020F00068F39923B1F3552391F3951B550BBB2737
:10210000AA2762177307840738F09F5F5F4F220F7B
:10211000331F441FAA1FA9F335D00E2E3AF0E0E872
:1021200032D091505040E695001CCAF72BD0FE2FBC
:1021300029D0660F771F881FBB1F26173707480750
:10214000AB07B0E809F0BB0B802DBF01FF27935808
:102150005F4F3AF09E3F510578F00C946B110C9450
:10216000B6115F3FE4F3983ED4F386957795679573
:10217000B795F7959F5FC9F7880F911D969587953D
:1021800097F90895E1E0660F771F881FBB1F62175C
:1021900073078407BA0720F0621B730B840BBA0B1A
:1021A000EE1F88F7E09508950E94DB106894B11146
:1021B0000C94B61108950E949B1188F09F5798F0D7
:1021C000B92F9927B751B0F0E1F0660F771F881F3C
:1021D000991F1AF0BA95C9F714C0B13091F00E9456
:1021E000B511B1E008950C94B511672F782F8827A9
:1021F000B85F39F0B93FCCF3869577956795B3957D
:10220000D9F73EF490958095709561957F4F8F4FEB
:102210009F4F0895E89409C097FB3EF490958095F0
:10222000709561957F4F8F4F9F4F9923A9F0F92F9C
:1022300096E9BB279395F695879577956795B7951A
:10224000F111F8CFFAF4BB0F11F460FF1BC06F5F00
:102250007F4F8F4F9F4F16C0882311F096E911C012
:10226000772321F09EE8872F762F05C0662371F033
:1022700096E8862F70E060E02AF09A95660F771F47
:10228000881FDAF7880F9695879597F90895990F23
:102290000008550FAA0BE0E8FEEF16161706E80730
:1022A000F907C0F012161306E407F50798F0621B51
:1022B000730B840B950B39F40A2661F0232B242B26
:1022C000252B21F408950A2609F4A140A6958FEF45
:1022D000811D811D089597F99F6780E870E060E097
:1022E00008959FEF80EC089500240A9416161706AF
:1022F00018060906089500240A94121613061406F7
:1023000005060895092E0394000C11F4882352F059
:10231000BB0F40F4BF2B11F460FF04C06F5F7F4F11
:102320008F4F9F4F089557FD9058440F551F59F0F8
:102330005F3F71F04795880F97FB991F61F09F3FB2
:1023400079F087950895121613061406551FF2CFDB
:102350004695F1DF08C0161617061806991FF1CF2B
:1023600086957105610508940895E894BB27662752
:102370007727CB0197F908950E94471108F48FEF52
:1023800008950E94D4110C9482110E94741138F0A7
:102390000E947B1120F0952311F00C946B110C948A
:1023A000711111240C94B6110E94931170F3959F32
:1023B000C1F3950F50E0551F629FF001729FBB273C
:1023C000F00DB11D639FAA27F00DB11DAA1F649FD8
:1023D0006627B00DA11D661F829F2227B00DA11D8B
:1023E000621F739FB00DA11D621F839FA00D611D11
:1023F000221F749F3327A00D611D231F849F600D32
:10240000211D822F762F6A2F11249F5750409AF05A
:10241000F1F088234AF0EE0FFF1FBB1F661F771FE6
:10242000881F91505040A9F79E3F510580F00C94B1
:102430006B110C94B6115F3FE4F3983ED4F386958C
:1024400077956795B795F795E7959F5FC1F7FE2B51
:10245000880F911D9695879597F9089519F416F4AC
:102460000C9471110C9479120E949B11B8F399236A
:10247000C9F3B6F39F57550B87FF0E9487120024BC
:10248000A0E640EA900180585695979528F4805C24
:10249000660F771F881F20F026173707480730F48C
:1024A000621B730B840B202931294A2BA6951794A4
:1024B0000794202531254A2758F7660F771F881F74
:1024C00020F026173707480730F4620B730B840B94
:1024D000200D311D411DA09581F7B901842F915820
:1024E000880F9695879508950E944711880B990B40
:1024F00008959F3F31F0915020F487957795679527
:10250000B795880F911D9695879597F908959150E5
:102510005040660F771F881FD2F7089597FB072E4C
:1025200016F4009407D077FD09D00E94E31207FC4F
:1025300005D03EF4909581959F4F089570956195D3
:102540007F4F0895A1E21A2EAA1BBB1BFD010DC0EF
:10255000AA1FBB1FEE1FFF1FA217B307E407F50753
:1025600020F0A21BB30BE40BF50B661F771F881F2F
:10257000991F1A9469F760957095809590959B01C5
:10258000AC01BD01CF010895052E97FB1EF4009408
:102590000E94DB1257FD07D00E94A21207FC03D055
:1025A0004EF40C94DB1250954095309521953F4F99
:1025B0004F4F5F4F089590958095709561957F4F2F
:1025C0008F4F9F4F0895AA1BBB1B51E107C0AA1F45
:1025D000BB1FA617B70710F0A61BB70B881F991FC4
:1025E0005A95A9F780959095BC01CD010895EE0FFD
:1025F000FF1F0590F491E02D099481E090E0F8949C
:102600000C94021310E0C3E6D0E004C0FE010E9467
:0E261000F7122196C436D107C9F7F894FFCF10
:10261E008E018E01FF00000000F600420A8E003D82
:10262E0001BF009D00B100000000009F028B02B1AF
:10263E00027D02840281027E0200000000A8014297
:10264E000AB102A701FC0114028F0162746E5F6968
:10265E006E74207072657373656400616C61726D67
:10266E00206F66660068656C6C6F2C20776F726CDD
:10267E006421000D0A006E616E00696E66006F7651
:02268E006600E4
:107800000C94343C0C94513C0C94513C0C94513CE1
:107810000C94513C0C94513C0C94513C0C94513CB4
:107820000C94513C0C94513C0C94513C0C94513CA4
:107830000C94513C0C94513C0C94513C0C94513C94
:107840000C94513C0C94513C0C94513C0C94513C84
:107850000C94513C0C94513C0C94513C0C94513C74
:107860000C94513C0C94513C11241FBECFEFD8E036
:10787000DEBFCDBF11E0A0E0B1E0ECE9FFE702C060
:1078800005900D92A230B107D9F712E0A2E0B1E065
:1078900001C01D92AD30B107E1F70E942D3D0C945F
:1078A000CC3F0C94003C982F959595959595959582
:1078B000905D8F708A307CF0282F295A8091C0000B
:1078C00085FFFCCF9093C6008091C00085FFFCCF60
:1078D0002093C6000895282F205DF0CF982F809127
:1078E000C00085FFFCCF9093C6000895EF92FF92F1
:1078F0000F931F93EE24FF2487018091C00087FD22
:1079000017C00894E11CF11C011D111D81E4E8164B
:1079100082E4F8068FE0080780E0180770F3E09132
:107920000401F091050109958091C00087FFE9CF1E
:107930008091C6001F910F91FF90EF9008950E94D3
:10794000763C982F8091C00085FFFCCF9093C600B5
:1079500091362CF490330CF09053892F089597555D
:10796000892F08951F930E949F3C182F0E949F3CCF
:107970001295107F810F1F9108951F93182F882350
:1079800021F00E94763C1150E1F71F9108951F935A
:10799000182F0E94763C803249F0809103018F5F5E
:1079A000809303018530C1F01F9108958091C0003C
:1079B00085FFFCCF84E18093C6008091C00085FFE5
:1079C000FCCF1093C6008091C00085FFFCCF80E102
:1079D0008093C6001F910895E0910401F091050184
:1079E00009951F9108950E94763C803241F0809164
:1079F00003018F5F80930301853081F008958091AA
:107A0000C00085FFFCCF84E18093C6008091C00058
:107A100085FFFCCF80E18093C6000895E0910401CA
:107A2000F09105010995089540E951E08823A1F0FE
:107A30002D9A28EE33E0FA013197F1F721503040CA
:107A4000D1F72D9828EE33E0FA013197F1F7215064
:107A50003040D1F7815061F708953F924F925F9285
:107A60006F927F928F929F92AF92BF92CF92DF924E
:107A7000EF92FF920F931F93CF93DF93000080E16B
:107A80008093C4001092C50088E18093C10086E015
:107A90008093C2005098589A259A81E00E94143D24
:107AA00024E1F22E9EE1E92E85E9D82E0FE0C02ECA
:107AB00010E1B12EAA24A394B1E49B2EA6E58A2E50
:107AC000F2E57F2EE0E26E2E79E4572E63E5462E36
:107AD00050E5352E0E94763C8033B1F18133B9F107
:107AE000803409F46FC0813409F476C0823409F41B
:107AF00085C0853409F488C0803531F1823521F1A3
:107B0000813511F1853509F485C0863509F48DC0BC
:107B1000843609F496C0843709F403C1853709F423
:107B200072C1863709F466C0809103018F5F80932C
:107B30000301853079F6E0910401F0910501099582
:107B40000E94763C803351F60E94F33CC3CF0E94E2
:107B5000763C803249F78091C00085FFFCCFF092DF
:107B6000C6008091C00085FFFCCF9092C600809136
:107B7000C00085FFFCCF8092C6008091C00085FFC9
:107B8000FCCF7092C6008091C00085FFFCCF609250
:107B9000C6008091C00085FFFCCF5092C600809146
:107BA000C00085FFFCCF4092C6008091C00085FFD9
:107BB000FCCF3092C6008091C00085FFFCCFB09210
:107BC000C60088CF0E94763C863808F4BDCF0E945C
:107BD000763C0E94F33C7ECF0E94763C803809F4CC
:107BE0009CC0813809F40BC1823809F43CC1883942
:107BF00009F48FC080E00E94C73C6CCF84E10E94F2
:107C0000BD3C0E94F33C66CF85E00E94BD3C0E94D3
:107C1000F33C60CF0E94763C809306010E94763C44
:107C2000809307010E94F33C55CF0E94763C80333D
:107C300009F41DC183E00E94BD3C80E00E94C73C66
:107C400049CF0E94763C809309020E94763C809343
:107C5000080280910C028E7F80930C020E94763C79
:107C6000853409F415C18091080290910902892B8D
:107C700089F000E010E00E94763CF801E85FFE4FDA
:107C800080830F5F1F4F80910802909109020817AF
:107C9000190788F30E94763C803209F045CF809125
:107CA0000C0280FF01C16091060170910701660F0F
:107CB000771F7093070160930601A0910802B091AD
:107CC00009021097C9F0E8E0F1E09B01AD014E0F09
:107CD0005F1FF999FECF32BD21BD819180BDFA9A17
:107CE000F99A2F5F3F4FE417F50799F76A0F7B1F4B
:107CF00070930701609306018091C00085FFFCCF5F
:107D0000F092C6008091C00085FFFCCFB092C60003
:107D1000E1CE83E00E94C73CDDCE82E00E94C73CFA
:107D2000D9CE0E94763C809309020E94763C8093D3
:107D300008028091060190910701880F991F909386
:107D40000701809306010E94763C853409F4A6C0A1
:107D500080910C028E7F80930C020E94763C8032D0
:107D600009F0B8CE8091C00085FFFCCFF092C6002C
:107D7000609108027091090261157105B9F140E046
:107D800050E080910C02A82FA170B82FB27011C0E2
:107D9000BB2309F45CC0E0910601F0910701319624
:107DA000F0930701E09306014F5F5F4F46175707B7
:107DB000E8F4AA2369F3F999FECF209106013091E6
:107DC000070132BD21BDF89A90B58091C00085FFB2
:107DD000FCCF9093C6002F5F3F4F30930701209355
:107DE00006014F5F5F4F4617570718F38091C00099
:107DF00085FDE5CE8091C00085FFF8CFE0CE81E023
:107E00000E94C73C67CE0E94763C803209F08CCE3F
:107E10008091C00085FFFCCFF092C6008091C00029
:107E200085FFFCCFE092C6008091C00085FFFCCFAB
:107E3000D092C6008091C00085FFFCCFC092C600E2
:107E40008091C00085FFFCCFB092C60043CEE09188
:107E50000601F091070194918091C00085FFFCCF4D
:107E60009093C6009CCF80E10E94C73C33CE0E9415
:107E7000763C0E94763C182F0E94763C112309F430
:107E800083C0113009F484C08FE00E94C73C22CE29
:107E900080910C02816080930C02E5CE80910C02EF
:107EA000816080930C0259CF809107018823880F4D
:107EB000880B8A2180930B02809106019091070123
:107EC000880F991F90930701809306018091080203
:107ED00080FF09C080910802909109020196909359
:107EE000090280930802F894F999FECF1127E091D6
:107EF0000601F0910701C8E0D1E08091080290915D
:107F00000902103091F40091570001700130D9F34B
:107F100003E000935700E89500915700017001308D
:107F2000D9F301E100935700E89509901990009169
:107F3000570001700130D9F301E000935700E89534
:107F40001395103498F011270091570001700130FB
:107F5000D9F305E000935700E895009157000170B0
:107F60000130D9F301E100935700E895329602976A
:107F700009F0C7CF103011F00296E5CF112480919F
:107F8000C00085FFB9CEBCCE8EE10E94C73CA2CD19
:0C7F900085E90E94C73C9ECDF894FFCF0D
:027F9C00800063
:040000030000780081
:00000001FF