:100000000C9464000C940F090C94E8080C943609C5
:100010000C9436090C9436090C948C000C946303F0
:100020000C948C000C948C000C948C000C94F40AAE
:100030000C948C000C948C000C948C000C948C0010
:100040000C949E080C948C000C94E5030C94BF0354
:100050000C948C000C948C000C948C000C948C00F0
:100060000C94C6090C948C000000000024002700AA
:100070002A0000000008000201000003040700003D
:100080000000000000000200000000250028002BF6
:1000900000000000002300260029000404040404DA
:1000A0000404040202020202020303030303030125
:1000B00002040810204080010204081020010204FC
:1000C000081020009E0C5F0F11241FBECFEFD8E058
:1000D000DEBFCDBF11E0A0E0B1E0E0E1F5E202C09B
:1000E00005900D92AC36B107D9F723E0ACE6B1E04C
:1000F00001C01D92A134B207E1F710E0C3E6D0E0E1
:1001000004C02197FE010E94D20FC236D107C9F761
:100110000E94FD0D0C947B120C940000CF92DF9294
:10012000EF92FF920F931F93CF93DF936C017A01AD
:100130008B01C0E0D0E0CE15DF0589F0D8016D91CC
:100140008D01D601ED91FC910190F081E02DC60169
:100150000995892B11F47E0102C02196ECCFC701CD
:10016000DF91CF911F910F91FF90EF90DF90CF9093
:100170000895FC01918D828D981761F0828DDF01C9
:10018000A80FB11D5D968C91928D9F5F9F73928F8A
:1001900090E008958FEF9FEF0895FC01918D828D7F
:1001A000981731F0828DE80FF11D858D90E008954C
:1001B0008FEF9FEF0895FC01918D228D892F90E0A4
:1001C000805C9F4F821B91098F73992708958BE75D
:1001D00091E00E94DB0021E0892B09F420E0822FCE
:1001E0000895FC01848DDF01A80FB11DA35ABF4FF4
:1001F0002C91848D90E001968F739927848FA68926
:10020000B7892C93A089B1898C9180648C93938D4C
:10021000848D981306C00288F389E02D80818F7D3C
:1002200080830895EF92FF920F931F93CF93DF93F4
:10023000EC0181E0888F9B8D8C8D981305C0E88937
:10024000F989808185FD24C0F62E0B8D10E00F5FAB
:100250001F4F0F731127E02E8C8DE8120CC00FB6C4
:1002600007FCFACFE889F989808185FFF5CFCE01B7
:100270000E94F100F1CF8B8DFE01E80FF11DE35AD2
:10028000FF4FF0820B8FEA89FB898081806207C073
:10029000EE89FF896083E889F989808180648083A1
:1002A00081E090E0DF91CF911F910F91FF90EF904F
:1002B0000895CF93DF93EC01888D8823C9F0EA89F4
:1002C000FB89808185FD05C0A889B9898C9186FD4F
:1002D0000FC00FB607FCF5CF808185FFF2CFA8894C
:1002E000B9898C9185FFEDCFCE010E94F100E7CF57
:1002F000DF91CF91089580E090E0892B29F00E9452
:10030000E70081110C940000089590E0FC01EE5884
:10031000FF4F3491FC01E155FF4F2491FC01E5565C
:10032000FF4FE491EE2309F43BC0332339F133301E
:1003300091F038F43130A9F0323001F584B58F7D79
:1003400012C0373091F03830A1F03430B9F48091D8
:1003500080008F7D03C0809180008F778093800024
:100360000DC084B58F7784BD09C08091B0008F77B0
:1003700003C08091B0008F7D8093B000F0E0EE0F5D
:10038000FF1FE957FF4FA591B4918FB7F894EC91F7
:10039000611103C020952E2301C02E2B2C938FBFFB
:1003A00008953FB7F89480916C0190916D01A091F0
:1003B0006E01B0916F0126B5A89B05C02F3F19F0C3
:1003C0000196A11DB11D3FBFBA2FA92F982F8827D5
:1003D000820F911DA11DB11DBC01CD0142E0660F30
:1003E000771F881F991F4A95D1F708950E947612AA
:1003F000009769F0FC0101900020E9F73197AF0107
:10040000481B590BBC018BE791E00C948E0080E0F7
:1004100090E00895CF93DF930E94F801EC0185E30B
:1004200091E00E94F8018C0F9D1FDF91CF910895FC
:100430008F929F92AF92BF920F931F93CF93DF93B0
:10044000CDB7DEB7A1970FB6F894DEBF0FBECDBF14
:1004500019A2423008F44AE08E010F5D1F4F842E2E
:10046000912CA12CB12CA50194010E947D0FE62FA7
:10047000B901CA0101501109EA3014F4E05D01C06C
:10048000E95CD801EC93232B242B252B61F7C801C1
:100490000E94F801A1960FB6F894DEBF0FBECDBF43
:1004A000DF91CF911F910F91BF90AF909F908F9050
:1004B0000895E0917B01F0917C010190F081E02DA5
:1004C000682F8BE791E009944F925F926F927F9231
:1004D0008F929F92AF92BF92CF92DF92EF92FF9254
:1004E0006B017C01B42E9B01AC010E945C1288233D
:1004F00019F088E391E027C026013701E89477F8E6
:100500002FEF3FEF4FE75FE7C301B2010E945C129C
:1005100081110DC02FEF3FEF4FE75FE7C301B2013D
:100520000E94451018161CF48CE391E00CC02FEFCC
:100530003FEF4FE75FE4C701B6010E94A411181610
:1005400084F480E491E0FF90EF90DF90CF90BF9033
:10055000AF909F908F907F906F905F904F900C9492
:10056000F8012FEF3FEF4FE75FECC701B6010E94A4
:10057000451087FDE6CF20E030E0A901C701B601B4
:100580000E94451087FF09C08DE20E9459024C016C
:10059000F7FAF094F7F8F09402C0812C912CA12C7A
:1005A00060E070E080E09FE3AB1441F020E030E0D9
:1005B00040E251E40E944A10A394F6CF9B01AC01A3
:1005C000C701B6010E94D90F2B013C010E94C31044
:1005D0006B017C010E94F2109B01AC01C301B201CE
:1005E0000E94D80F2B013C014AE0C701B6010E94CE
:1005F00018027C01E80CF91CBB2029F08EE20E9455
:100600005902E80EF91EDB2CDD2021F120E030E05C
:1006100040E251E4C301B2010E94A9112B013C0147
:100620000E94C3104B01A12CB12C4AE0C501B401BA
:100630000E941802E80EF91EC501B4010E94F210D2
:100640009B01AC01C301B2010E94D80F2B013C01F8
:10065000DA94DACFC701FF90EF90DF90CF90BF9090
:10066000AF909F908F907F906F905F904F90089584
:1006700090910401981324C0E6E8F0E0E4919FEF24
:1006800090930401E130B9F098F0E230C9F4909110
:1006900070009D7F9093700091E09093B0009091D6
:1006A000B100987F94609093B1001092B30008C09D
:1006B00010926E0005C090916F009D7F90936F0027
:1006C00060E00C9485011F920F920FB60F921124D7
:1006D0002F933F934F935F936F937F938F939F934A
:1006E000AF93BF93EF93FF9380917701909178013F
:1006F000A0917901B0917A01892B8A2B8B2B51F132
:1007000080917601E0917401F091750190818927C3
:1007100080838091770190917801A0917901B091C7
:100720007A01181619061A061B06C4F4809177017F
:1007300090917801A0917901B0917A010197A10976
:10074000B1098093770190937801A0937901B093D8
:100750007A0104C0809104010E943803FF91EF9157
:10076000BF91AF919F918F917F916F915F914F91C9
:100770003F912F910F900FBE0F901F9018951F92D1
:100780000F920FB60F9211242F933F934F935F93C5
:100790006F937F938F939F93AF93BF93EF93FF9349
:1007A0008BE791E00E94F100FF91EF91BF91AF9133
:1007B0009F918F917F916F915F914F913F912F9179
:1007C0000F900FBE0F901F9018951F920F920FB6AB
:1007D0000F9211242F938F939F93EF93FF93E091A8
:1007E0008B01F0918C018081E0919101F091920157
:1007F00082FD12C09081809194018F5F8F73209150
:100800009501821751F0E0919401F0E0E558FE4F18
:10081000958F8093940101C08081FF91EF919F910A
:100820008F912F910F900FBE0F901F901895CF931F
:10083000DF9390E0FC01E155FF4F2491FC01E55668
:10084000FF4F8491882361F190E0880F991FFC018C
:10085000E859FF4FC591D491FC01E957FF4FA5918D
:10086000B491611109C09FB7F894888120958223C3
:100870008883EC912E230BC0623061F49FB7F8940B
:100880003881822F809583238883EC912E2B2C93A3
:100890009FBF06C08FB7F894E8812E2B28838FBFA7
:1008A000DF91CF9108958E3008F08E50877080646C
:1008B00080937C0080917A00806480937A0080919C
:1008C0007A0086FDFCCF809178002091790090E03D
:1008D000922B0895EF92FF920F931F93CF93DF9384
:1008E000CCE5D2E08E850E9453048C018D850E9458
:1008F00053047C018C850E945304BC01990F880B22
:10090000990B0E94F41020E030E845E853E40E947F
:10091000D80F2DEC3CEC4CE951E40E94A91120E0E9
:1009200030E045E053E40E944A102DEC3CEC4CE1F1
:1009300051E40E94D80F688379838A839B83B7012F
:10094000FF0C880B990B0E94F41020E030E843E87C
:1009500053E40E94D80F2DEC3CEC4CE951E40E948A
:10096000A91120E030E046E053E40E944A102DEC4B
:100970003CEC4CE151E40E94D80F6C837D838E8364
:100980009F83B801110F880B990B0E94F41020E08F
:1009900030E043E853E40E94D80F2DEC3CEC4CE9E6
:1009A00051E40E94A91120E030E047E053E40E94A6
:1009B0004A102DEC3CEC4CE151E40E94D80F6887C2
:1009C00079878A879B87DF91CF911F910F91FF9045
:1009D000EF900895EF92FF920F931F93CF93DF93C1
:1009E000EFE6F0E08081826080830E946A04ECE59B
:1009F000F2E0448155816681778180859185A28569
:100A0000B385C3E4D2E000811181228133810B835D
:100A10001C832D833E834F83588769877A878B8712
:100A20009C87AD87BE8786E5E82E82E0F82EF70129
:100A300080810E9453048C0183E10E945304800F43
:100A4000911FF7019283818381E08883DF91CF91A9
:100A50001F910F91FF90EF900895089520917201DA
:100A6000309173012817390771F4909170018091CA
:100A70007101981741F0E0917001F0E0E450FD4FF2
:100A8000808190E008958FEF9FEF089508951F9360
:100A9000CF93DF93DC015C962D913C915D972115FE
:100AA000310539F481E090E013969C938E93129770
:100AB0003DC05196ED91FC91529750969C91509764
:100AC000892F80951FB75E964C915E9741FB7727E3
:100AD00070F941FD6095F8944081772311F0492B1E
:100AE00001C048234083E9012197F1F748E0508194
:100AF00060FF02C0592B01C058235083E9012197A0
:100B0000F1F76695415099F7772321F09081892379
:100B1000808303C08081982B90831FBF5C968D914A
:100B20009C915D970197F1F721E030E0C901DF91D9
:100B3000CF911F9108952091720130917301281770
:100B4000390771F4809171012091700190E0805C0F
:100B50009F4F821B910960E470E00E94690F089525
:100B600080E090E008952091720130917301281780
:100B70003907B9F49091700180917101981789F04B
:100B8000E0917001F0E0E450FD4F80812091700110
:100B900030E02F5F3F4F2F7333272093700190E099
:100BA00008958FEF9FEF089585ED8093BC008091AD
:100BB000BC0084FDFCCF1092D60208954091B00293
:100BC000262F30E0240F311D21323105DCF4209135
:100BD000D6022430C9F4FC0180E090E0861758F476
:100BE0003091B0022191DC01A257BD4FA30FB11D7E
:100BF0002C930196F3CF8091B002680F6093B002FE
:100C000080E0089581E0089582E0089508958FEFCF
:100C10009FEF08958FEF9FEF089580918D0290E0F0
:100C20009195819591090895CF93DF9300D0CDB729
:100C3000DEB7CB01642F49835A830E94DE054981C8
:100C4000842F5A81952F0F900F90DF91CF910895A7
:100C5000CF93DF931F92CDB7DEB7698361E0CE01FA
:100C600001960E94DE0581E090E00F90DF91CF9128
:100C7000089582E591E00E940A02809159020E9443
:100C8000380382E691E00E940A020C94EA04809103
:100C900059020E94380382E691E00C940A028F9276
:100CA0009F92AF92BF92CF92DF92EF92FF92CF933B
:100CB00080905A0290905B028091590290910401B9
:100CC000981721F09F3F09F0E8C104C0E6E8F0E082
:100CD000C4917DC080930401E6E8F0E0C491CF3F69
:100CE00009F4DBC1C13029F1C23009F449C0C11196
:100CF0006EC014BC15BC94B5926094BD95B591605E
:100D000095BD282F30E0F901E556FF4FE491F0E062
:100D1000EE0FFF1FE957FF4F459154915093840206
:100D200040938302F901E155FF4FE491E093820281
:100D300050C01092800010928100909181009860C4
:100D40009093810090918100916090938100282F71
:100D500030E0F901E556FF4FE491F0E0EE0FFF1FA0
:100D6000E957FF4F4591549150938102409380027F
:100D7000F901E155FF4FE491E0937F02C1E029C002
:100D80001092B0001092B1009091B00092609093D8
:100D9000B0009091B10091609093B100282F30E0A5
:100DA000F901E556FF4FE491F0E0EE0FFF1FE95720
:100DB000FF4F459154915093750140937401F9018F
:100DC000E155FF4FE491E0937601C2E002C0C7FD18
:100DD00064C161E00E941704A12CB12C8C2F8D7F7F
:100DE00009F0A0C060E072E18AE790E0A5019401FB
:100DF0000E949F0F69017A01DA01C9010197A109D7
:100E0000B1098F3F9105A105B10509F008F442C071
:100E100060E472E48FE090E0A50194010E949F0FCE
:100E2000DA01C9010197A109B109C230E1F48F3F8C
:100E30009105A105B10509F008F42DC160E970ED37
:100E400083E090E0A50194010E949F0FDA01C9019F
:100E50000197A109B1098F3F9105A105B10509F0DD
:100E600088F523E058C08F3F9105A105B105A1F099
:100E700098F068E478EE81E090E0A50194010E948A
:100E80009F0FDA01C9010197A109B109CC2309F427
:100E9000B6C0F9C021E001C022E0CC2371F03BC014
:100EA000D701C6012AE0B595A795979587952A950C
:100EB000D1F70197A109B10925E035B5387F232B7A
:100EC00025BD61C068E478EE81E090E0A501940161
:100ED0000E949F0FDA01C9010197A109B1098F3F53
:100EE0009105A105B10509F008F487C064E274EF2B
:100EF00080E090E0A50194010E949F0FDA01C901F2
:100F00000197A109B1098F3F9105A105B10511F024
:100F100008F093C025E03091B100387F232B209357
:100F2000B1002BC060E072E18AE790E0A501940176
:100F30000E949F0FDA01C9010197A109B109009729
:100F400021E0A207B10578F068E478EE81E090E056
:100F5000A50194010E949F0FDA01C9010197A1091F
:100F6000B10933E001C031E0C13039F42091810092
:100F7000287F232B2093810018C0C130B1F0C230EC
:100F800049F1C1118AC087BD8FEF9FEFDC018093CB
:100F9000890290938A02A0938B02B0938C02809175
:100FA0006E00826080936E0078C090938900809379
:100FB00088008FEF9FEFDC0180938502909386027B
:100FC000A0938702B093880280916F008260809323
:100FD0006F0063C08093B3008FEF9FEFDC018093BD
:100FE000770190937801A0937901B0937A01809171
:100FF000700082608093700050C024E08CCF8F3FDF
:101000009105A105B105B9F0B0F062E17AE780E0A1
:1010100090E0A50194010E949F0FDA01C901019798
:10102000A109B1098F3F9105A105B10511F008F0A3
:1010300037CF24E042CF23E040CF62E17AE780E07F
:1010400090E0A50194010E949F0FDA01C901019768
:10105000A109B1098F3F9105A105B10591F088F073
:10106000D701C6013AE0B595A795979587953A952A
:10107000D1F70197A109B109CC2309F41DCF27E0CD
:101080004ACF26E00ACF8F3F9105A105B10509F0AF
:10109000A0F624E002CF22E03ECFCF91FF90EF9068
:1010A000DF90CF90BF90AF909F908F9008954F9218
:1010B0005F926F927F928F929F92AF92BF92CF92E8
:1010C000DF92EF92FF92FC016081718182819381B6
:1010D00084809580A680B780C084D184E284F38424
:1010E0009B01AC010E94A9112B013C01A5019401B7
:1010F000C501B4010E94A9119B01AC01C301B20159
:101100000E94D90F4B015C01A7019601C701B601EE
:101110000E94A9119B01AC01C501B4010E94D90F25
:10112000FF90EF90DF90CF90BF90AF909F908F9007
:101130007F906F905F904F900C941C121F920F92B3
:101140000FB60F9211242F933F938F939F93AF93DA
:10115000BF9380913D0390913E03A0913F03B091D6
:10116000400330913C0323E0230F2D3720F40196F8
:10117000A11DB11D05C026E8230F0296A11DB11DBA
:1011800020933C0380933D0390933E03A0933F0341
:10119000B093400380916C0190916D01A0916E011C
:1011A000B0916F010196A11DB11D80936C019093C8
:1011B0006D01A0936E01B0936F01BF91AF919F91AC
:1011C0008F913F912F910F900FBE0F901F90189508
:1011D0001F920F920FB60F9211242F933F934F93AC
:1011E0005F936F937F938F939F93AF93BF93EF938F
:1011F000FF93E0910201F09103010995FF91EF91B6
:10120000BF91AF919F918F917F916F915F914F911E
:101210003F912F910F900FBE0F901F9018951F9226
:101220000F920FB60F9211242F933F934F935F931A
:101230006F937F938F939F93AF93BF93EF93FF939E
:10124000E0910001F09101010995FF91EF91BF91AB
:10125000AF919F918F917F916F915F914F913F914E
:101260002F910F900FBE0F901F9018951F920F9205
:101270000FB60F9211242F933F934F935F936F9369
:101280007F938F939F93AF93BF93EF93FF93E091DF
:101290007201F0917301309709F451C0968DA685C3
:1012A000B785858591FF04C09C91892329F447C0A7
:1012B0009C91892309F043C0A389B4899C918589B5
:1012C000809589238C93868997890197F1F7608DA2
:1012D000718DA685B785558538E020E0CB01019753
:1012E000F1F7822F90E095958795282F4C91452313
:1012F00009F02068315091F7868D81FD209580910D
:10130000710190E001968F73992730917001381721
:1013100049F0A0917101B0E0A450BD4F2C9380938F
:10132000710103C0868D8160868F828D938D0197B8
:10133000F1F7A389B4899C918589892B8C93FF91BE
:10134000EF91BF91AF919F918F917F916F915F913D
:101350004F913F912F910F900FBE0F901F901895B6
:10136000E0917201F0917301E817F90769F4A3891C
:10137000B4899C918589809589238C9310927301FF
:101380001092720181E0089580E008951F920F92FB
:101390000FB60F9211242F933F934F935F936F9348
:1013A0007F938F939F93AF93BF93EF93FF9380911E
:1013B000B900887F803609F49CC068F5883209F44A
:1013C0005BC090F4803109F454C038F4882309F4E8
:1013D000F6C0883009F44DC0F6C0883109F44CC01D
:1013E000803209F45DC0EFC0803409F468C048F46D
:1013F000803309F455C0883309F0E5C08093D502E5
:10140000D8C0803509F44FC0883509F45DC08834F0
:1014100009F0D9C0D6C0883909F4C7C0A8F4883704
:1014200009F467C038F4883609F463C0803709F4DA
:1014300060C0C9C0883809F4B8C0803909F45FC0F9
:10144000803809F0C0C05BC0803B09F486C038F426
:10145000803A09F466C0883A09F47FC0B4C0803C81
:1014600009F4A7C0883C09F4A4C0883B09F48AC0E9
:10147000AAC08091FB0210C09091FA028091F902FB
:10148000981770F5E091FA0281E08E0F8093FA02CE
:10149000F0E0E752FD4F80818093BB0085EC86C071
:1014A0008093D5028EC0E091FA0281E08E0F809386
:1014B000FA028091BB00F0E0E752FD4F80839091EB
:1014C000FA028091F9026EC0E091FA0281E08E0F7B
:1014D0008093FA028091BB00F0E0E752FD4F8083D9
:1014E0008091D80281116DC081E08093D70284EA97
:1014F00061C083E08093D6021092D402CFCF809156
:10150000D402803208F051C0E091D40281E08E0F05
:101510008093D4028091BB00F0E0EC54FD4F8083B7
:10152000BDCF85EC8093BC001092D6028091D4028E
:10153000803230F4E091D402F0E0EC54FD4F1082A0
:101540006091D40270E0E091B202F091B30284EBBA
:1015500092E009951092D40236C084E08093D602BE
:101560001092B1021092B002E091AE02F091AF027F
:1015700009958091B002811105C081E08093B0028D
:1015800010928E02E091B10281E08E0F8093B10241
:10159000F0E0E257FD4F80818093BB009091B10253
:1015A0008091B002981708F479CF85E88093BC0049
:1015B0000AC085EC8093BC001092D60204C0109241
:1015C000D5020E94D405FF91EF91BF91AF919F91F9
:1015D0008F917F916F915F914F913F912F910F90DC
:1015E0000FBE0F901F9018951F920F920FB60F927B
:1015F0001124CF92DF92EF92FF920F931F932F93BC
:101600003F934F935F936F937F938F939F93AF938A
:10161000BF93EF93FF932FB7F89480913D03909180
:101620003E03A0913F03B09140032FBF80937B0204
:1016300090937C02A0937D02B0937E02409177024A
:10164000509178026091790270917A028C019D012B
:10165000041B150B260B370B05361105210531052B
:1016600008F455C18093770290937802A093790291
:10167000B0937A020E946A04409160025091610224
:1016800060916202709163028091640290916502A0
:10169000A0916602B0916702C0905C02D0905D029A
:1016A000E0905E02F0905F02C0921802D0921902A0
:1016B000E0921A02F0921B0240931C0250931D020A
:1016C00060931E0270931F02809320029093210268
:1016D000A0932202B093230282E10E945304BC0132
:1016E000990F880B990B0E94F41020E030E040E243
:1016F00051E40E94A91120E030EC4FE754E40E942D
:101700004A1020E030E0A9010E94D90F0E94C310C6
:10171000709345026093440283E10E945304BC012C
:10172000990F880B990B0E94F41020E030E04AEFEB
:1017300053E40E94A91120E030EC4FE754E40E94EA
:101740004A1020E030E0A9010E94D90F0E94C31086
:101750007093580260935702209118023091190239
:1017600040911A0250911B0260914602709147020B
:1017700080914802909149020E94D80F42E00E9455
:10178000640289E00E94590220911C0230911D02DE
:1017900040911E0250911F0260914A0270914B02CB
:1017A00080914C0290914D020E94D80F42E00E941D
:1017B000640289E00E9459022091200230912102A6
:1017C000409122025091230260914E0270914F028B
:1017D00080915002909151020E94D80F42E00E94E5
:1017E000640289E00E94590286E492E00E94570850
:1017F0006B017C0188E192E00E9457089B01AC01DB
:10180000C701B6010E94D80F42E00E94640289E03D
:101810000E94590288E192E00E94570842E00E942B
:10182000640289E00E94590281E10E9453046C0124
:10183000990FEE08FF08F7FE0CC08DE20E945902D6
:1018400066277727CB016C197D098E099F094AE02D
:1018500003C04AE0C701B6010E94180285E391E087
:101860000E94F80180914302882309F450C0E0905F
:101870004402F090450220911802309119024091E3
:101880001A0250911B0260914602709147028091AA
:101890004802909149020E94D80F0E94BC109B01FF
:1018A00077FF04C022273327261B370BE216F306E7
:1018B00048F1209120023091210240912202509162
:1018C000230260914E0270914F02809150029091DC
:1018D00051020E94D80F0E94BC109B0177FF04C0E8
:1018E00022273327261B370BE216F30658F0E09029
:1018F0005702F0905802809156020E945304E81655
:10190000F90628F4E0915202F09153020995FF91F3
:10191000EF91BF91AF919F918F917F916F915F9167
:101920004F913F912F911F910F91FF90EF90DF907A
:10193000CF900F900FBE0F901F901895CF92DF920F
:10194000EF92FF9210927E0110927D0198EEC92EC7
:1019500093E0D92EE12CF12CC0927F01D09280012E
:10196000E0928101F092820189E091E090937C0104
:1019700080937B0185EC90E09093880180938701B0
:1019800084EC90E090938A018093890180EC90E050
:1019900090938C0180938B0181EC90E090938E0169
:1019A00080938D0182EC90E09093900180938F0161
:1019B00086EC90E0909392018093910110929401B3
:1019C00010929501109296011092970110926E025A
:1019D00010926D02C0926F02D0927002E09271027A
:1019E000F092720289E191E090936C0280936B0215
:1019F00010925C0210925D0210925E0210925F02E1
:101A000010926002109261021092620210926302C0
:101A100010926402109265021092660210926702A0
:101A20008EE0809368028FE08093690280E180936A
:101A30006A0289E08093590288EE90E090935B02FD
:101A400080935A0261E089E00E94170481E180934B
:101A5000560262E00E941704109243028AE090E06E
:101A600090934502809344021092460210924702DE
:101A7000109248021092490210924A0210924B02B0
:101A800010924C0210924D0210924E0210924F0290
:101A900010925002109251028FE496E090935302FC
:101AA0008093520287E496E090935502809354020B
:101AB000F894109280001092810088E09DE390934A
:101AC00089008093880080918100886080938100E4
:101AD0008091810084608093810080918100816089
:101AE0008093810080916F008D7F80936F00789448
:101AF0001092270210922602C0922802D092290248
:101B0000E0922A02F0922B0289E291E09093250262
:101B10008093240210923B0210923A0210923D02EE
:101B200010923C0210923F0210923E02109241022B
:101B300010924002609142026E7F6D7F609342027C
:101B40006695617081E0682785E00E94850161E00B
:101B500085E00E941704E4EBF0E0E491E0933402A6
:101B6000E0EAF0E0E491F0E0EE0FFF1FE957FF4FED
:101B700085919491909336028093350260E084E0E1
:101B80000E9417048091420281FD04C061E084E05C
:101B90000E94850184E080933002E3EBF0E0E49161
:101BA000E0933102EFE9F0E0E491F0E0EE0FFF1F87
:101BB000EF56FF4F859194919093330280933202B8
:101BC000109218021092190210921A0210921B021F
:101BD00010921C0210921D0210921E0210921F02FF
:101BE00010922002109221021092220210922302DF
:101BF000FF90EF90DF90CF900895789484B5826045
:101C000084BD84B5816084BD85B5826085BD85B5A0
:101C1000816085BD80916E00816080936E0010921E
:101C20008100809181008260809381008091810099
:101C3000816080938100809180008160809380002A
:101C40008091B10084608093B1008091B000816088
:101C50008093B00080917A00846080937A008091B4
:101C60007A00826080937A0080917A00816080930C
:101C70007A0080917A00806880937A001092C10087
:101C8000E0918B01F0918C0182E08083E0918701EB
:101C9000F09188011082E0918901F0918A0180E140
:101CA000808310929301E0918F01F091900186E082
:101CB0008083E0918D01F0918E018081806180832D
:101CC000E0918D01F0918E01808188608083E091A8
:101CD0008D01F0918E01808180688083E0918D017B
:101CE000F0918E0180818F7D808310923F0210924F
:101CF0003E0210923D0210923C0210923B02109262
:101D00003A028DE991E090934102809340029091D4
:101D10003002963108F057C02DEB30E030933B0293
:101D200020933A022BE931E030933D0220933C02AC
:101D30002CE231E030933F0220933E022091680074
:101D4000983050F031E09E3008F430E081E001C07E
:101D5000880F3A95EAF701C084E0822B80936800EF
:101D6000983038F09E3040F0963148F020E030E076
:101D700008C02DE630E005C02BE630E002C02CE6BE
:101D800030E03093380220933702983030F481E00D
:101D900001C0880F9A95EAF70EC0292F30E09E30D7
:101DA00018F42850310902C02E50310981E001C0D9
:101DB000880F2A95EAF7809339028091400290912A
:101DC00041020197F1F780913E0290913F02892BE9
:101DD00021F1809172019091730122E08432920787
:101DE000E1F0009711F00E94B009809142028E7FCD
:101DF00080934202109271011092700184E292E08D
:101E00009093730180937201E0913702F091380250
:101E1000908180913902892B808361E08DE00E945E
:101E2000170461E08DE00E94850162E082E00E947B
:101E3000170489E396E0909301018093000180915B
:101E400069008C7F826080936900E89A84E491E065
:101E50000E940A020E94D1014B015C0184E6C82E57
:101E6000D12CE12CF12C0E94D101DC01CB0188198D
:101E70009909AA09BB09883E9340A105B10558F00C
:101E800081E0C81AD108E108F10828EE820E23E0AB
:101E9000921EA11CB11CC114D104E104F10419F774
:101EA0000E94EA0484E292E00E949B05892B21F0C3
:101EB00084E292E00E94B3050E947B01F3CF89E2A5
:101EC00091E0909325028093240284E292E00C94A6
:101ED000B00997FB072E16F4009407D077FD09D0C0
:101EE0000E94BE0F07FC05D03EF4909581959F4F50
:101EF0000895709561957F4F0895A1E21A2EAA1B4F
:101F0000BB1BFD010DC0AA1FBB1FEE1FFF1FA217A9
:101F1000B307E407F50720F0A21BB30BE40BF50BA6
:101F2000661F771F881F991F1A9469F7609570952F
:101F3000809590959B01AC01BD01CF010895052EC0
:101F400097FB1EF400940E94B60F57FD07D00E9425
:101F50007D0F07FC03D04EF40C94B60F50954095BE
:101F6000309521953F4F4F4F5F4F08959095809545
:101F7000709561957F4F8F4F9F4F0895AA1BBB1B94
:101F800051E107C0AA1FBB1FA617B70710F0A61B79
:101F9000B70B881F991F5A95A9F780959095BC019A
:101FA000CD010895EE0FFF1F0590F491E02D0994E7
:101FB0005058BB27AA270E94F00F0C946A110E9468
:101FC0005C1138F00E94631120F039F49F3F19F43E
:101FD00026F40C9459110EF4E095E7FB0C94531180
:101FE000E92F0E947B1158F3BA1762077307840721
:101FF000950720F079F4A6F50C949D110EF4E09568
:102000000B2EBA2FA02D0B01B90190010C01CA01B2
:10201000A0011124FF27591B99F0593F50F4503E5D
:1020200068F11A16F040A22F232F342F4427585F4F
:10203000F3CF469537952795A795F0405395C9F767
:102040007EF41F16BA0B620B730B840BBAF091501F
:10205000A1F0FF0FBB1F661F771F881FC2F70EC0BE
:10206000BA0F621F731F841F48F487957795679591
:10207000B795F7959E3F08F0B0CF9395880F08F07D
:102080009927EE0F9795879508950E942F1108F4D0
:1020900081E008950E945E100C946A110E94631101
:1020A00058F00E945C1140F029F45F3F29F00C9435
:1020B000531151110C949E110C9459110E947B11D3
:1020C00068F39923B1F3552391F3951B550BBB2767
:1020D000AA2762177307840738F09F5F5F4F220FAC
:1020E000331F441FAA1FA9F335D00E2E3AF0E0E8A3
:1020F00032D091505040E695001CCAF72BD0FE2FED
:1021000029D0660F771F881FBB1F26173707480780
:10211000AB07B0E809F0BB0B802DBF01FF27935838
:102120005F4F3AF09E3F510578F00C9453110C9498
:102130009E115F3FE4F3983ED4F3869577956795BB
:10214000B795F7959F5FC9F7880F911D969587956D
:1021500097F90895E1E0660F771F881FBB1F62178C
:1021600073078407BA0720F0621B730B840BBA0B4A
:10217000EE1F88F7E09508950E94C3106894B1118E
:102180000C949E1108950E94831188F09F5798F037
:10219000B92F9927B751B0F0E1F0660F771F881F6C
:1021A000991F1AF0BA95C9F714C0B13091F00E9486
:1021B0009D11B1E008950C949D11672F782F882709
:1021C000B85F39F0B93FCCF3869577956795B395AD
:1021D000D9F73EF490958095709561957F4F8F4F1C
:1021E0009F4F0895E89409C097FB3EF49095809521
:1021F000709561957F4F8F4F9F4F9923A9F0F92FCD
:1022000096E9BB279395F695879577956795B7954A
:10221000F111F8CFFAF4BB0F11F460FF1BC06F5F30
:102220007F4F8F4F9F4F16C0882311F096E911C042
:10223000772321F09EE8872F762F05C0662371F063
:1022400096E8862F70E060E02AF09A95660F771F77
:10225000881FDAF7880F9695879597F90895990F53
:102260000008550FAA0BE0E8FEEF16161706E80760
:10227000F907C0F012161306E407F50798F0621B81
:10228000730B840B950B39F40A2661F0232B242B56
:10229000252B21F408950A2609F4A140A6958FEF75
:1022A000811D811D089597F99F6780E870E060E0C7
:1022B00008959FEF80EC089500240A9416161706DF
:1022C00018060906089500240A9412161306140627
:1022D00005060895092E0394000C11F4882352F08A
:1022E000BB0F40F4BF2B11F460FF04C06F5F7F4F42
:1022F0008F4F9F4F089557FD9058440F551F59F029
:102300005F3F71F04795880F97FB991F61F09F3FE2
:1023100079F087950895121613061406551FF2CF0B
:102320004695F1DF08C0161617061806991FF1CF5B
:1023300086957105610508940895E894BB27662782
:102340007727CB0197F908950E942F1108F48FEF9A
:1023500008950E94BC110C946A110E945C1138F01F
:102360000E94631120F0952311F00C9453110C94EA
:10237000591111240C949E110E947B1170F3959FAA
:10238000C1F3950F50E0551F629FF001729FBB276C
:10239000F00DB11D639FAA27F00DB11DAA1F649F08
:1023A0006627B00DA11D661F829F2227B00DA11DBB
:1023B000621F739FB00DA11D621F839FA00D611D41
:1023C000221F749F3327A00D611D231F849F600D62
:1023D000211D822F762F6A2F11249F5750409AF08B
:1023E000F1F088234AF0EE0FFF1FBB1F661F771F17
:1023F000881F91505040A9F79E3F510580F00C94E2
:1024000053110C949E115F3FE4F3983ED4F38695EC
:1024100077956795B795F795E7959F5FC1F7FE2B81
:10242000880F911D9695879597F9089519F416F4DC
:102430000C9459110C9461120E948311B8F39923E2
:10244000C9F3B6F39F57550B87FF0E946F12002404
:10245000A0E640EA900180585695979528F4805C54
:10246000660F771F881F20F026173707480730F4BC
:10247000621B730B840B202931294A2BA6951794D4
:102480000794202531254A2758F7660F771F881FA4
:1024900020F026173707480730F4620B730B840BC4
:1024A000200D311D411DA09581F7B901842F915850
:1024B000880F9695879508950E942F11880B990B88
:1024C00008959F3F31F0915020F487957795679557
:1024D000B795880F911D9695879597F90895915016
:1024E0005040660F771F881FD2F7089581E090E073
:1024F000F8940C947B1210E0C3E6D0E004C0FE0117
:102500000E94D20F2196C436D107C9F7F894FFCFA5
:102510002D052D05FF0000000012018E00DB00B923
:1025200000CD00590100000000280614060D060A1F
:1025300006070606060000000047058E009B05B34F
:10254000052E0546050D0A006E616E00696E660077
:102550006F76660068656C6C6F2C20776F726C64A8
:10256000210062746E5F696E7420707265737365AA
:0C2570006400616C61726D206F66660093
:107800000C94343C0C94513C0C94513C0C94513CE1
:107810000C94513C0C94513C0C94513C0C94513CB4
:107820000C94513C0C94513C0C94513C0C94513CA4
:107830000C94513C0C94513C0C94513C0C94513C94
:107840000C94513C0C94513C0C94513C0C94513C84
:107850000C94513C0C94513C0C94513C0C94513C74
:107860000C94513C0C94513C11241FBECFEFD8E036
:10787000DEBFCDBF11E0A0E0B1E0ECE9FFE702C060
:1078800005900D92A230B107D9F712E0A2E0B1E065
:1078900001C01D92AD30B107E1F70E942D3D0C945F
:1078A000CC3F0C94003C982F959595959595959582
:1078B000905D8F708A307CF0282F295A8091C0000B
:1078C00085FFFCCF9093C6008091C00085FFFCCF60
:1078D0002093C6000895282F205DF0CF982F809127
:1078E000C00085FFFCCF9093C6000895EF92FF92F1
:1078F0000F931F93EE24FF2487018091C00087FD22
:1079000017C00894E11CF11C011D111D81E4E8164B
:1079100082E4F8068FE0080780E0180770F3E09132
:107920000401F091050109958091C00087FFE9CF1E
:107930008091C6001F910F91FF90EF9008950E94D3
:10794000763C982F8091C00085FFFCCF9093C600B5
:1079500091362CF490330CF09053892F089597555D
:10796000892F08951F930E949F3C182F0E949F3CCF
:107970001295107F810F1F9108951F93182F882350
:1079800021F00E94763C1150E1F71F9108951F935A
:10799000182F0E94763C803249F0809103018F5F5E
:1079A000809303018530C1F01F9108958091C0003C
:1079B00085FFFCCF84E18093C6008091C00085FFE5
:1079C000FCCF1093C6008091C00085FFFCCF80E102
:1079D0008093C6001F910895E0910401F091050184
:1079E00009951F9108950E94763C803241F0809164
:1079F00003018F5F80930301853081F008958091AA
:107A0000C00085FFFCCF84E18093C6008091C00058
:107A100085FFFCCF80E18093C6000895E0910401CA
:107A2000F09105010995089540E951E08823A1F0FE
:107A30002D9A28EE33E0FA013197F1F721503040CA
:107A4000D1F72D9828EE33E0FA013197F1F7215064
:107A50003040D1F7815061F708953F924F925F9285
:107A60006F927F928F929F92AF92BF92CF92DF924E
:107A7000EF92FF920F931F93CF93DF93000080E16B
:107A80008093C4001092C50088E18093C10086E015
:107A90008093C2005098589A259A81E00E94143D24
:107AA00024E1F22E9EE1E92E85E9D82E0FE0C02ECA
:107AB00010E1B12EAA24A394B1E49B2EA6E58A2E50
:107AC000F2E57F2EE0E26E2E79E4572E63E5462E36
:107AD00050E5352E0E94763C8033B1F18133B9F107
:107AE000803409F46FC0813409F476C0823409F41B
:107AF00085C0853409F488C0803531F1823521F1A3
:107B0000813511F1853509F485C0863509F48DC0BC
:107B1000843609F496C0843709F403C1853709F423
:107B200072C1863709F466C0809103018F5F80932C
:107B30000301853079F6E0910401F0910501099582
:107B40000E94763C803351F60E94F33CC3CF0E94E2
:107B5000763C803249F78091C00085FFFCCFF092DF
:107B6000C6008091C00085FFFCCF9092C600809136
:107B7000C00085FFFCCF8092C6008091C00085FFC9
:107B8000FCCF7092C6008091C00085FFFCCF609250
:107B9000C6008091C00085FFFCCF5092C600809146
:107BA000C00085FFFCCF4092C6008091C00085FFD9
:107BB000FCCF3092C6008091C00085FFFCCFB09210
:107BC000C60088CF0E94763C863808F4BDCF0E945C
:107BD000763C0E94F33C7ECF0E94763C803809F4CC
:107BE0009CC0813809F40BC1823809F43CC1883942
:107BF00009F48FC080E00E94C73C6CCF84E10E94F2
:107C0000BD3C0E94F33C66CF85E00E94BD3C0E94D3
:107C1000F33C60CF0E94763C809306010E94763C44
:107C2000809307010E94F33C55CF0E94763C80333D
:107C300009F41DC183E00E94BD3C80E00E94C73C66
:107C400049CF0E94763C809309020E94763C809343
:107C5000080280910C028E7F80930C020E94763C79
:107C6000853409F415C18091080290910902892B8D
:107C700089F000E010E00E94763CF801E85FFE4FDA
:107C800080830F5F1F4F80910802909109020817AF
:107C9000190788F30E94763C803209F045CF809125
:107CA0000C0280FF01C16091060170910701660F0F
:107CB000771F7093070160930601A0910802B091AD
:107CC00009021097C9F0E8E0F1E09B01AD014E0F09
:107CD0005F1FF999FECF32BD21BD819180BDFA9A17
:107CE000F99A2F5F3F4FE417F50799F76A0F7B1F4B
:107CF00070930701609306018091C00085FFFCCF5F
:107D0000F092C6008091C00085FFFCCFB092C60003
:107D1000E1CE83E00E94C73CDDCE82E00E94C73CFA
:107D2000D9CE0E94763C809309020E94763C8093D3
:107D300008028091060190910701880F991F909386
:107D40000701809306010E94763C853409F4A6C0A1
:107D500080910C028E7F80930C020E94763C8032D0
:107D600009F0B8CE8091C00085FFFCCFF092C6002C
:107D7000609108027091090261157105B9F140E046
:107D800050E080910C02A82FA170B82FB27011C0E2
:107D9000BB2309F45CC0E0910601F0910701319624
:107DA000F0930701E09306014F5F5F4F46175707B7
:107DB000E8F4AA2369F3F999FECF209106013091E6
:107DC000070132BD21BDF89A90B58091C00085FFB2
:107DD000FCCF9093C6002F5F3F4F30930701209355
:107DE00006014F5F5F4F4617570718F38091C00099
:107DF00085FDE5CE8091C00085FFF8CFE0CE81E023
:107E00000E94C73C67CE0E94763C803209F08CCE3F
:107E10008091C00085FFFCCFF092C6008091C00029
:107E200085FFFCCFE092C6008091C00085FFFCCFAB
:107E3000D092C6008091C00085FFFCCFC092C600E2
:107E40008091C00085FFFCCFB092C60043CEE09188
:107E50000601F091070194918091C00085FFFCCF4D
:107E60009093C6009CCF80E10E94C73C33CE0E9415
:107E7000763C0E94763C182F0E94763C112309F430
:107E800083C0113009F484C08FE00E94C73C22CE29
:107E900080910C02816080930C02E5CE80910C02EF
:107EA000816080930C0259CF809107018823880F4D
:107EB000880B8A2180930B02809106019091070123
:107EC000880F991F90930701809306018091080203
:107ED00080FF09C080910802909109020196909359
:107EE000090280930802F894F999FECF1127E091D6
:107EF0000601F0910701C8E0D1E08091080290915D
:107F00000902103091F40091570001700130D9F34B
:107F100003E000935700E89500915700017001308D
:107F2000D9F301E100935700E89509901990009169
:107F3000570001700130D9F301E000935700E89534
:107F40001395103498F011270091570001700130FB
:107F5000D9F305E000935700E895009157000170B0
:107F60000130D9F301E100935700E895329602976A
:107F700009F0C7CF103011F00296E5CF112480919F
:107F8000C00085FFB9CEBCCE8EE10E94C73CA2CD19
:0C7F900085E90E94C73C9ECDF894FFCF0D
:027F9C00800063
:040000030000780081
:00000001FF