:1000000008C1000036C1000034C1000032C1000048
:1000100030C100002EC100002CC100002AC1000028
:1000200028C1000026C1000024C1000022C1000038
:1000300020C100006BC600001CC100001AC10000F6
:1000400018C100006BC7000014C1000012C10000FD
:1000500010C100000EC100000CC1000015C7000057
:1000600008C10000DBC60000B0C6000002C10000ED
:1000700000C10000FEC00000FCC00000FAC000008B
:10008000F8C00000F6C00000F4C00000F2C000009C
:10009000F0C00000EEC00000ECC00000EAC00000AC
:1000A000E8C00000E6C00000E4C00000E2C00000BC
:1000B000E0C00000DEC00000DCC00000DAC00000CC
:1000C000D8C00000D6C00000D4C00000D2C00000DC
:1000D000D0C00000CEC00000CCC00000CAC00000EC
:1000E000C8C00000C701CA01B901BD01C1010102B8
:1000F000CE01D201D801DC01E001E601EA01EE0106
:100100000102F401F801FC0100000A0B02090C0DC8
:100110000E080703040100000000000000000000BA
:1001200000000000000000000000000000000000CF
:10013000000000001211100000000000000000008C
:1001400000000000000000000000000000000200AD
:10015000002200250028002B002E00310034000270
:10016000010000050108010B010000210024002707
:10017000002A002D003000330001010000040107B7
:10018000010A01050505050705080808080202021D
:10019000020A0A0808040404040101010101010122
:1001A000010303030303030303040707070C0C0CF9
:1001B0000C0C0C0C0C0202020206060606060606D1
:1001C000060B0B0B0B0B0B0B0B010210202008086E
:1001D00010204010204080020102010804020101A9
:1001E0000204081020408080402010080402018092
:1001F00004020180402010080402010804020101E9
:1002000002040810204080010204081020408000F1
:100210001C0811241FBECFEFD1E2DEBFCDBF00E02E
:100220000CBF12E0A0E0B2E0EAE3F5E100E00BBFB2
:1002300002C007900D92A231B107D9F722E0A2E1E6
:10024000B2E001C01D92AB3FB207E1F711E0C9E097
:10025000D1E000E006C021970109802FFE010E9435
:100260008109C830D10780E00807A9F74DD70C9461
:100270009B0AC6CE90E0FC01E753FE4F2491FC019F
:10028000ED57FE4F8491882399F090E0880F991FD5
:10029000FC01E759FE4FA591B491FC01E15BFE4FD3
:1002A000859194918FB7F894EC91E22BEC938FBFEA
:1002B00008959091000298133DC0EEE4F1E0E491BE
:1002C0009FEF90930002E230C9F050F4EE2399F0D2
:1002D000E13081F590916F009D7F90936F002AC06F
:1002E000E43019F1E0F0E53029F5909173009D7F3D
:1002F000909373001FC010926E001CC0909170000C
:100300009D7F9093700091E09093B0009091B10028
:10031000987F94609093B1001092B3000BC09091BD
:1003200071009D7F9093710005C0909172009D7F38
:100330009093720090E0FC01E85FFE4F4491FC0155
:10034000E753FE4F2491FC01ED57FE4F9491992302
:1003500009F466C0442309F454C050E0FA0131970F
:10036000E231F10508F04DC08827EE58FF4F8F4F5E
:10037000C8C7809180008F7707C0809180008F7DF3
:1003800003C080918000877F809380003AC084B54D
:100390008F7702C084B58F7D84BD33C08091B0005B
:1003A0008F7703C08091B0008F7D8093B00029C00B
:1003B000809190008F7707C0809190008F7D03C05F
:1003C00080919000877F809390001BC08091A00057
:1003D0008F7707C08091A0008F7D03C08091A0001F
:1003E000877F8093A0000DC0809120018F7707C088
:1003F000809120018F7D03C080912001877F8093B1
:100400002001E92FF0E0EE0FFF1FE15BFE4FA59109
:10041000B4918FB7F894EC9120952E232C938FBF35
:100420000895CF92DF92EF92FF920F931F93CF9395
:10043000DF936C017A018B01C0E0D0E0CE15DF05BF
:1004400089F0D8016D918D01D601ED91FC9101905B
:10045000F081E02DC6011995892B11F47E0102C0AF
:100460002196ECCFC701DF91CF911F910F91FF90A3
:10047000EF90DF90CF900895FC01918D828D9817B9
:1004800061F0828DDF01A80FB11D5D968C91928D78
:100490009F5F9F73928F90E008958FEF9FEF089575
:1004A000FC01918D828D981731F0828DE80FF11D3E
:1004B000858D90E008958FEF9FEF0895FC01918D59
:1004C000228D892F90E0805C9F4F821B91098F7352
:1004D000992708958DE492E0F1DF21E0892B09F45A
:1004E00020E0822F0895FC01848DDF01A80FB11D4B
:1004F000A35ABF4F2C91848D90E001968F7399275A
:10050000848FA689B7892C93A089B1898C91806446
:100510008C93938D848D981306C00288F389E02D07
:1005200080818F7D80830895EF92FF920F931F93B8
:10053000CF93DF93EC0181E0888F9B8D8C8D981396
:1005400005C0E889F989808185FD23C0F62E0B8DD1
:1005500010E00F5F1F4F0F731127E02E8C8DE812F4
:100560000BC00FB607FCFACFE889F989808185FFB7
:10057000F5CFCE01B8DFF2CF8B8DFE01E80FF11D74
:10058000E35AFF4FF0820B8FEA89FB8980818062FA
:1005900007C0EE89FF896083E889F98980818064DA
:1005A000808381E090E0DF91CF911F910F91FF90C8
:1005B000EF900895CF93DF93EC01888D8823C1F0ED
:1005C000EA89FB89808185FD05C0A889B9898C915C
:1005D00086FD0EC00FB607FCF5CF808185FFF2CFF8
:1005E000A889B9898C9185FFEDCFCE017CDFE8CF5A
:1005F000DF91CF91089580E090E0892B19F06ADFB8
:10060000811125C080E090E0892B41F080E090E0EE
:10061000892B21F00E94000081111CC080E090E035
:10062000892B41F080E090E0892B21F00E940000AE
:10063000811113C080E090E0892BA1F080E090E070
:10064000892B81F00E94000081110AC008950E9448
:100650000000D8CF0E940000E1CF0E940000EACF46
:100660000C9400000895863308F0865390917B0027
:10067000282F2870977F922B90937B00877080643F
:1006800080937C0080917A00806480937A008091CE
:100690007A0086FDFCCF809178002091790090E06F
:1006A000922B08953FB7F8948091420290914302B3
:1006B000A0914402B091450226B5A89B05C02F3FEA
:1006C00019F00196A11DB11D3FBFBA2FA92F982F78
:1006D0008827820F911DA11DB11DBC01CD0142E0F3
:1006E000660F771F881F991F4A95D1F708958F923B
:1006F0009F92AF92BF92CF92DF92EF92FF921F93A1
:10070000CF93DF93C091F002D091F1028091EF027C
:1007100090910002981721F09F3F09F0C3C204C0D6
:10072000EEE4F1E01491FEC080930002EEE4F1E00B
:1007300014911F3F09F4B6C2123009F47EC06CF563
:10074000112309F459C0113009F0ECC01092800057
:100750001092810090918100986090938100909117
:100760008100916090938100282F30E0F901ED57CE
:10077000FE4FE491F0E0EE0FFF1FE15BFE4F45916D
:1007800054915093250240932402F901E753FE4F00
:10079000E491E093230211E0C7C0143009F49BC038
:1007A0000CF472C0153009F0BDC0109220011092F7
:1007B0002101909121019860909321019091210154
:1007C000916090932101282F30E0F901ED57FE4F01
:1007D000E491F0E0EE0FFF1FE15BFE4F4591549175
:1007E00050931C0240931B02F901E753FE4FE49122
:1007F000E0931A0215E098C014BC15BC94B5926041
:1008000094BD95B5916095BD282F30E0F901ED5765
:10081000FE4FE491F0E0EE0FFF1FE15BFE4F4591CC
:1008200054915093280240932702F901E753FE4F59
:10083000E491E093260210E077C01092B00010928D
:10084000B1009091B00092609093B0009091B1008F
:1008500091609093B100282F30E0F901ED57FE4FE1
:10086000E491F0E0EE0FFF1FE15BFE4F45915491E4
:100870005093470240934602F901E753FE4FE4913B
:10088000E093480212E050C0109290001092910044
:100890009091910098609093910090919100916057
:1008A00090939100282F30E0F901ED57FE4FE4912D
:1008B000F0E0EE0FFF1FE15BFE4F45915491509326
:1008C000220240932102F901E753FE4FE491E093A5
:1008D000200213E029C01092A0001092A100909174
:1008E000A10098609093A1009091A10091609093D5
:1008F000A100282F30E0F901ED57FE4FE491F0E020
:10090000EE0FFF1FE15BFE4F4591549150931F0284
:1009100040931E02F901E753FE4FE491E0931D025C
:1009200014E002C017FDBEC1A5DC6E01E12CF12C64
:10093000812F8D7F09F09AC060E072E18AE790E034
:10094000A7019601C2D449015A01DA01C9010197F0
:10095000A109B1098F3F9105A105B10509F008F47E
:100960003FC060E472E48FE090E0A7019601ADD44F
:10097000DA01C9010197A109B1091230D9F48F3FF9
:100980009105A105B10509F008F48AC160E970ED8F
:1009900083E090E0A701960198D4DA01C90101979C
:1009A000A109B1098F3F9105A105B10509F080F5B5
:1009B00023E055C08F3F9105A105B10599F090F056
:1009C00068E478EE81E090E0A70196017ED4DA0138
:1009D000C9010197A109B109112309F417C158C12F
:1009E00021E001C022E0112371F039C0D501C4011A
:1009F0002AE0B595A795979587952A95D1F7019700
:100A0000A109B10925E035B5387F232B25BD83C069
:100A100068E478EE81E090E0A701960156D4DA010F
:100A2000C9010197A109B1098F3F9105A105B10540
:100A300009F008F4E9C064E274EF80E090E0A701F7
:100A4000960143D4DA01C9010197A109B1098F3F89
:100A50009105A105B10511F008F0F5C025E0309130
:100A6000B100387F232B2093B10044C060E072E1D5
:100A70008AE790E0A701960128D4DA01C90101971D
:100A8000A109B109009721E0A207B10570F068E45F
:100A900078EE81E090E0A701960117D4DA01C90150
:100AA0000197A109B10923E001C021E0113039F417
:100AB00030918100387F232B209381003EC013307A
:100AC00039F430919100387F232B209391005DC041
:100AD000143039F43091A100387F232B2093A100EA
:100AE00069C0153039F430912101387F232B2093D0
:100AF000210175C01230B1F134F4112361F01130CD
:100B000009F0D0C01AC0143009F454C0F4F1153003
:100B100009F465C0C7C087BD8FEF9FEFDC018093EC
:100B2000390290933A02A0933B02B0933C02809129
:100B30006E00826080936E00B5C0909389008093B0
:100B400088008FEF9FEFDC0180933502909336028F
:100B5000A0933702B093380280916F008260809337
:100B60006F00A0C08093B3008FEF9FEFDC018093F4
:100B7000490290934A02A0934B02B0934C02809199
:100B800070008260809370008DC090939900809374
:100B900098008FEF9FEFDC01809331029093320237
:100BA000A0933302B09334028091710082608093ED
:100BB000710078C09093A9008093A8008FEF9FEFF9
:100BC000DC0180932D0290932E02A0932F02B0930C
:100BD00030028091720082608093720063C09093B3
:100BE0002901809328018FEF9FEFDC018093290278
:100BF00090932A02A0932B02B0932C028091730051
:100C00008260809373004EC024E029CF8F3F91050E
:100C1000A105B105B1F0A8F062E17AE780E090E0CB
:100C2000A701960152D3DA01C9010197A109B109BF
:100C30008F3F9105A105B10511F008F0D7CE24E052
:100C4000E2CE23E0E0CE62E17AE780E090E0A70127
:100C500096013BD3DA01C9010197A109B1098F3F80
:100C60009105A105B10591F088F0D501C4013AE0E4
:100C7000B595A795979587953A95D1F70197A109CD
:100C8000B109112309F4BECE27E0E9CE26E0ABCEB0
:100C90008F3F9105A105B10509F0A8F624E0A3CE88
:100CA00022E0DDCEDF91CF911F91FF90EF90DF909A
:100CB000CF90BF90AF909F908F900895E2EFF2E0B9
:100CC000808191814281538124813581889FB00147
:100CD000899F700D700D1124449FC001459F900D98
:100CE000900D1124680F791F229FC001239F900D42
:100CF000900D1124680F791F072E000C880B990B9B
:100D000058D3BFD328D3CB01089511D41F920F928B
:100D10000FB60F9211240BB60F922F933F934F9360
:100D20005F936F937F938F939F93AF93BF93EF9353
:100D3000FF938091490290914A02A0914B02B09199
:100D40004C02892B8A2B8B2B51F180914802E09128
:100D50004602F09147029081892780838091490261
:100D600090914A02A0914B02B0914C0218161906BC
:100D70001A061B06BCF48091490290914A02A09188
:100D80004B02B0914C020197A109B109809349022D
:100D900090934A02A0934B02B0934C0203C08091FF
:100DA000000287DAFF91EF91BF91AF919F918F91F0
:100DB0007F916F915F914F913F912F910F900BBE5B
:100DC0000F900FBE0F901F9018951F920F920FB6A5
:100DD0000F9211240BB60F922F933F934F935F9373
:100DE0006F937F938F939F93AF93BF93EF93FF93F3
:100DF0008DE492E078DBFF91EF91BF91AF919F91ED
:100E00008F917F916F915F914F913F912F910F90B3
:100E10000BBE0F900FBE0F901F9018951F920F9250
:100E20000FB60F9211240BB60F922F938F939F93AF
:100E3000EF93FF93E0915D02F0915E028081E0917B
:100E40006302F091640282FD12C09081809166027B
:100E50008F5F8F7320916702821751F0E0916602D5
:100E6000F0E0E35BFD4F958F8093660201C08081C7
:100E7000FF91EF919F918F912F910F900BBE0F904B
:100E80000FBE0F901F9018951F920F920FB60F92E2
:100E900011242F933F938F939F93AF93BF93809190
:100EA0003E0290913F02A0914002B09141023091E8
:100EB0003D0223E0230F2D3720F40196A11DB11D23
:100EC00005C026E8230F0296A11DB11D20933D0207
:100ED00080933E0290933F02A0934002B093410260
:100EE0008091420290914302A0914402B091450248
:100EF0000196A11DB11D8093420290934302A093DD
:100F00004402B0934502BF91AF919F918F913F9161
:100F10002F910F900FBE0F901F9018951F920F9258
:100F20000FB60F9211240BB60F920F931F932F93AE
:100F30003F934F935F936F937F938F939F93AF9361
:100F4000BF93CF93DF93EF93FF932FB7F8948091E4
:100F50003E0290913F02A0914002B09141022FBF0A
:100F60008093160290931702A0931802B09319026F
:100F70004091120250911302609114027091150277
:100F80008C019D01041B150B260B370B0536110533
:100F900021053105D0F18093120290931302A093A2
:100FA0001402B093150288E35EDBEC0187E35BDBA0
:100FB0008C0186E358DB8A5591409093F30280932D
:100FC000F2020A5511401093F5020093F402CA553B
:100FD000D140D093F702C093F60270DE2091EB026D
:100FE0003091EC024091EA0250E0B901641B750BAC
:100FF0008617970728F0240F351F2817390728F47C
:10100000E091ED02F091EE021995FF91EF91DF91E1
:10101000CF91BF91AF919F918F917F916F915F9190
:101020004F913F912F911F910F910F900BBE0F90F9
:101030000FBE0F901F901895EDE4F2E0138212821C
:1010400088EE93E0A0E0B0E084839583A683B78325
:1010500085E092E09183808385EC90E0958784879A
:1010600084EC90E09787868780EC90E0918B808B72
:1010700081EC90E0938B828B82EC90E0958B848B5B
:1010800086EC90E0978B868B118E128E138E148EC9
:10109000E2EFF2E011821082138212821582148232
:1010A00086E3868387E3878388E38087EFEEF2E039
:1010B0008CE0808388EE90E0928381838CE0DAD8A4
:1010C000EAEEF2E089E1808387E793E0948383830B
:1010D000F89410928000E1E8F0E0108288E09DE34F
:1010E00090938900809388008081886080838081CC
:1010F00084608083808181608083EFE6F0E080817E
:101100008D7F808378940895789484B5826084BDBF
:1011100084B5816084BD85B5826085BD85B58160FB
:1011200085BD80916E00816080936E001092810079
:101130008091810082608093810080918100816034
:1011400080938100809180008160809380008091F5
:10115000B10084608093B1008091B0008160809381
:10116000B000809191008260809391008091910005
:1011700081608093910080919000816080939000C5
:101180008091A10082608093A1008091A100816084
:101190008093A1008091A00081608093A000809145
:1011A00021018260809321018091210181608093DF
:1011B00021018091200181608093200180917A003B
:1011C000846080937A0080917A00826080937A00B4
:1011D00080917A00816080937A0080917A008068A3
:1011E00080937A001092C100E0915D02F0915E025E
:1011F00082E08083E0915902F0915A021082E091DE
:101200005B02F0915C0280E1808310926502E091C4
:101210006102F091620286E08083E0915F02F091CA
:101220006002808180618083E0915F02F0916002C2
:10123000808188608083E0915F02F091600280810C
:1012400080688083E0915F02F091600280818F7DF1
:1012500080838DE00FD880916F00826080936F0053
:101260002DDD9093EC028093EB021CDA4B015C01C4
:1012700088EEC82E83E0D82EE12CF12C13DADC01A5
:10128000CB0188199909AA09BB09883E9340A10599
:10129000B10558F021E0C21AD108E108F10888EE42
:1012A000880E83E0981EA11CB11CC114D104E10476
:1012B000F10421F780916F008D7F80936F00809102
:1012C000EF020E94590197D9C6CF052E97FB16F45D
:1012D00000940FD057FD05D01CD007FC02D046F477
:1012E00008C050954095309521953F4F4F4F5F4F27
:1012F000089590958095709561957F4F8F4F9F4F82
:101300000895EE0FFF1F881F8BBF0790F691E02D09
:101310001994A1E21A2EAA1BBB1BFD010DC0AA1F26
:10132000BB1FEE1FFF1FA217B307E407F50720F04E
:10133000A21BB30BE40BF50B661F771F881F991FC9
:101340001A9469F760957095809590959B01AC0112
:10135000BD01CF01089570D088F09F5790F0B92F4C
:101360009927B751A0F0D1F0660F771F881F991FFA
:101370001AF0BA95C9F712C0B13081F077D0B1E058
:10138000089574C0672F782F8827B85F39F0B93F68
:10139000CCF3869577956795B395D9F73EF49095FC
:1013A0008095709561957F4F8F4F9F4F0895E8947A
:1013B00009C097FB3EF490958095709561957F4F9D
:1013C0008F4F9F4F9923A9F0F92F96E9BB2793954B
:1013D000F695879577956795B795F111F8CFFAF45B
:1013E000BB0F11F460FF1BC06F5F7F4F8F4F9F4F8C
:1013F00016C0882311F096E911C0772321F09EE8EA
:10140000872F762F05C0662371F096E8862F70E04F
:1014100060E02AF09A95660F771F881FDAF7880F29
:101420009695879597F9089557FD9058440F551F45
:1014300059F05F3F71F04795880F97FB991F61F056
:101440009F3F79F087950895121613061406551FCD
:10145000F2CF4695F1DF08C0161617061806991F39
:10146000F1CF86957105610508940895E894BB272E
:1014700066277727CB0197F9089511F40EF44DC034
:101480003EC0DADFD0F39923D9F3CEF39F57550B43
:1014900087FF46D00024A0E640EA90018058569588
:1014A000979528F4805C660F771F881F20F0261719
:1014B0003707480730F4621B730B840B202931294E
:1014C0004A2BA69517940794202531254A2758F7CB
:1014D000660F771F881F20F026173707480730F45C
:1014E000620B730B840B200D311D411DA09581F7FC
:1014F000B901842F9158880F9695879508959F3F3D
:1015000031F0915020F4879577956795B795880FBE
:10151000911D9695879597F908959FEF80EC089512
:1015200091505040660F771F881FD2F7089581E0D1
:0A15300090E0F89400C0F894FFCF9B
:10153A00FF00000000940211025E023C025002DA2F
:02154A0002009D
:00000001FF
